{
  "_format": "hh-sol-artifact-1",
  "contractName": "FPMMMarket",
  "sourceName": "contracts/FPMM_market.sol",
  "abi": [
    {
      "inputs": [
        {
          "internalType": "uint32",
          "name": "_fee",
          "type": "uint32"
        }
      ],
      "stateMutability": "nonpayable",
      "type": "constructor"
    },
    {
      "anonymous": false,
      "inputs": [
        {
          "indexed": true,
          "internalType": "address",
          "name": "buyer",
          "type": "address"
        },
        {
          "indexed": false,
          "internalType": "uint128",
          "name": "investmentAmount",
          "type": "uint128"
        },
        {
          "indexed": false,
          "internalType": "uint32",
          "name": "outcomeIndex",
          "type": "uint32"
        },
        {
          "indexed": false,
          "internalType": "uint256",
          "name": "outcomeTokensBought",
          "type": "uint256"
        }
      ],
      "name": "FPMMBuy",
      "type": "event"
    },
    {
      "anonymous": false,
      "inputs": [
        {
          "indexed": true,
          "internalType": "address",
          "name": "funder",
          "type": "address"
        },
        {
          "indexed": false,
          "internalType": "uint256",
          "name": "amountsAdded",
          "type": "uint256"
        }
      ],
      "name": "FPMMFundingAdded",
      "type": "event"
    },
    {
      "anonymous": false,
      "inputs": [
        {
          "indexed": true,
          "internalType": "address",
          "name": "funder",
          "type": "address"
        },
        {
          "indexed": false,
          "internalType": "uint256",
          "name": "collateralRemovedFromFeePool",
          "type": "uint256"
        },
        {
          "indexed": false,
          "internalType": "uint256",
          "name": "amountsRemoved",
          "type": "uint256"
        }
      ],
      "name": "FPMMFundingRemoved",
      "type": "event"
    },
    {
      "anonymous": false,
      "inputs": [
        {
          "indexed": true,
          "internalType": "uint256",
          "name": "marketId",
          "type": "uint256"
        },
        {
          "indexed": false,
          "internalType": "string[]",
          "name": "outcomes",
          "type": "string[]"
        },
        {
          "indexed": false,
          "internalType": "uint128",
          "name": "deadline",
          "type": "uint128"
        }
      ],
      "name": "FPMMMarketInit",
      "type": "event"
    },
    {
      "anonymous": false,
      "inputs": [
        {
          "indexed": true,
          "internalType": "address",
          "name": "seller",
          "type": "address"
        },
        {
          "indexed": false,
          "internalType": "uint128",
          "name": "returnAmount",
          "type": "uint128"
        },
        {
          "indexed": false,
          "internalType": "uint32",
          "name": "outcomeIndex",
          "type": "uint32"
        },
        {
          "indexed": false,
          "internalType": "uint256",
          "name": "outcomeTokensSold",
          "type": "uint256"
        }
      ],
      "name": "FPMMSell",
      "type": "event"
    },
    {
      "inputs": [],
      "name": "DECIMALS",
      "outputs": [
        {
          "internalType": "uint256",
          "name": "",
          "type": "uint256"
        }
      ],
      "stateMutability": "view",
      "type": "function"
    },
    {
      "inputs": [],
      "name": "ETH_TO_USDC_RATE",
      "outputs": [
        {
          "internalType": "uint256",
          "name": "",
          "type": "uint256"
        }
      ],
      "stateMutability": "view",
      "type": "function"
    },
    {
      "inputs": [],
      "name": "SCALING_FACTOR",
      "outputs": [
        {
          "internalType": "uint256",
          "name": "",
          "type": "uint256"
        }
      ],
      "stateMutability": "view",
      "type": "function"
    },
    {
      "inputs": [],
      "name": "addFunding",
      "outputs": [],
      "stateMutability": "payable",
      "type": "function"
    },
    {
      "inputs": [
        {
          "internalType": "uint256",
          "name": "",
          "type": "uint256"
        },
        {
          "internalType": "address",
          "name": "",
          "type": "address"
        },
        {
          "internalType": "uint32",
          "name": "",
          "type": "uint32"
        }
      ],
      "name": "balances",
      "outputs": [
        {
          "internalType": "uint256",
          "name": "",
          "type": "uint256"
        }
      ],
      "stateMutability": "view",
      "type": "function"
    },
    {
      "inputs": [
        {
          "internalType": "uint256",
          "name": "marketId",
          "type": "uint256"
        },
        {
          "internalType": "uint32",
          "name": "outcomeIndex",
          "type": "uint32"
        },
        {
          "internalType": "uint128",
          "name": "minOutcomeTokensToBuy",
          "type": "uint128"
        }
      ],
      "name": "buy",
      "outputs": [],
      "stateMutability": "payable",
      "type": "function"
    },
    {
      "inputs": [
        {
          "internalType": "uint256",
          "name": "marketId",
          "type": "uint256"
        },
        {
          "internalType": "uint128",
          "name": "investmentAmount",
          "type": "uint128"
        },
        {
          "internalType": "uint32",
          "name": "outcomeIndex",
          "type": "uint32"
        }
      ],
      "name": "calcBuyAmount",
      "outputs": [
        {
          "internalType": "uint128",
          "name": "",
          "type": "uint128"
        }
      ],
      "stateMutability": "view",
      "type": "function"
    },
    {
      "inputs": [
        {
          "internalType": "uint256",
          "name": "marketId",
          "type": "uint256"
        },
        {
          "internalType": "uint128",
          "name": "returnAmount",
          "type": "uint128"
        },
        {
          "internalType": "uint32",
          "name": "outcomeIndex",
          "type": "uint32"
        }
      ],
      "name": "calcSellAmount",
      "outputs": [
        {
          "internalType": "uint128",
          "name": "",
          "type": "uint128"
        }
      ],
      "stateMutability": "view",
      "type": "function"
    },
    {
      "inputs": [
        {
          "internalType": "uint256",
          "name": "marketId",
          "type": "uint256"
        },
        {
          "internalType": "uint32",
          "name": "outcomeIndex",
          "type": "uint32"
        }
      ],
      "name": "claimWinnings",
      "outputs": [],
      "stateMutability": "nonpayable",
      "type": "function"
    },
    {
      "inputs": [],
      "name": "collateralToken",
      "outputs": [
        {
          "internalType": "address",
          "name": "",
          "type": "address"
        }
      ],
      "stateMutability": "view",
      "type": "function"
    },
    {
      "inputs": [
        {
          "internalType": "uint256",
          "name": "ethAmount",
          "type": "uint256"
        }
      ],
      "name": "convertEthToUsdc",
      "outputs": [
        {
          "internalType": "uint256",
          "name": "",
          "type": "uint256"
        }
      ],
      "stateMutability": "pure",
      "type": "function"
    },
    {
      "inputs": [
        {
          "internalType": "uint256",
          "name": "usdcAmount",
          "type": "uint256"
        }
      ],
      "name": "convertUsdcToEth",
      "outputs": [
        {
          "internalType": "uint256",
          "name": "",
          "type": "uint256"
        }
      ],
      "stateMutability": "pure",
      "type": "function"
    },
    {
      "inputs": [],
      "name": "currentLiquidity",
      "outputs": [
        {
          "internalType": "uint256",
          "name": "",
          "type": "uint256"
        }
      ],
      "stateMutability": "view",
      "type": "function"
    },
    {
      "inputs": [
        {
          "internalType": "uint256",
          "name": "marketId",
          "type": "uint256"
        }
      ],
      "name": "disableMarket",
      "outputs": [],
      "stateMutability": "nonpayable",
      "type": "function"
    },
    {
      "inputs": [],
      "name": "fee",
      "outputs": [
        {
          "internalType": "uint32",
          "name": "",
          "type": "uint32"
        }
      ],
      "stateMutability": "view",
      "type": "function"
    },
    {
      "inputs": [],
      "name": "feesAccrued",
      "outputs": [
        {
          "internalType": "uint256",
          "name": "",
          "type": "uint256"
        }
      ],
      "stateMutability": "view",
      "type": "function"
    },
    {
      "inputs": [
        {
          "internalType": "address",
          "name": "account",
          "type": "address"
        }
      ],
      "name": "feesWithdrawableBy",
      "outputs": [
        {
          "internalType": "uint256",
          "name": "",
          "type": "uint256"
        }
      ],
      "stateMutability": "view",
      "type": "function"
    },
    {
      "inputs": [
        {
          "internalType": "address",
          "name": "user",
          "type": "address"
        }
      ],
      "name": "getAllUserBets",
      "outputs": [
        {
          "components": [
            {
              "internalType": "uint256",
              "name": "marketId",
              "type": "uint256"
            },
            {
              "internalType": "uint256[]",
              "name": "bets",
              "type": "uint256[]"
            },
            {
              "internalType": "bool",
              "name": "isActive",
              "type": "bool"
            },
            {
              "internalType": "bool",
              "name": "isSettled",
              "type": "bool"
            }
          ],
          "internalType": "struct FPMMStructs.UserMarketBets[]",
          "name": "",
          "type": "tuple[]"
        }
      ],
      "stateMutability": "view",
      "type": "function"
    },
    {
      "inputs": [],
      "name": "getCollateralToken",
      "outputs": [
        {
          "internalType": "address",
          "name": "",
          "type": "address"
        }
      ],
      "stateMutability": "view",
      "type": "function"
    },
    {
      "inputs": [],
      "name": "getFee",
      "outputs": [
        {
          "internalType": "uint32",
          "name": "",
          "type": "uint32"
        }
      ],
      "stateMutability": "view",
      "type": "function"
    },
    {
      "inputs": [
        {
          "internalType": "uint256",
          "name": "marketId",
          "type": "uint256"
        }
      ],
      "name": "getMarket",
      "outputs": [
        {
          "components": [
            {
              "internalType": "uint32",
              "name": "numOutcomes",
              "type": "uint32"
            },
            {
              "internalType": "uint128",
              "name": "deadline",
              "type": "uint128"
            },
            {
              "internalType": "bool",
              "name": "isActive",
              "type": "bool"
            },
            {
              "internalType": "bool",
              "name": "isSettled",
              "type": "bool"
            }
          ],
          "internalType": "struct FPMMStructs.FPMMMarket",
          "name": "",
          "type": "tuple"
        }
      ],
      "stateMutability": "view",
      "type": "function"
    },
    {
      "inputs": [],
      "name": "getNumMarkets",
      "outputs": [
        {
          "internalType": "uint256",
          "name": "",
          "type": "uint256"
        }
      ],
      "stateMutability": "view",
      "type": "function"
    },
    {
      "inputs": [
        {
          "internalType": "uint256",
          "name": "marketId",
          "type": "uint256"
        },
        {
          "internalType": "uint32",
          "name": "outcomeIndex",
          "type": "uint32"
        }
      ],
      "name": "getOutcome",
      "outputs": [
        {
          "components": [
            {
              "internalType": "string",
              "name": "name",
              "type": "string"
            },
            {
              "internalType": "uint128",
              "name": "numSharesInPool",
              "type": "uint128"
            },
            {
              "internalType": "bool",
              "name": "winner",
              "type": "bool"
            }
          ],
          "internalType": "struct FPMMStructs.Outcome",
          "name": "",
          "type": "tuple"
        }
      ],
      "stateMutability": "view",
      "type": "function"
    },
    {
      "inputs": [],
      "name": "getTreasury",
      "outputs": [
        {
          "internalType": "address",
          "name": "",
          "type": "address"
        }
      ],
      "stateMutability": "view",
      "type": "function"
    },
    {
      "inputs": [
        {
          "internalType": "address",
          "name": "user",
          "type": "address"
        }
      ],
      "name": "getUserBalance",
      "outputs": [
        {
          "internalType": "uint256",
          "name": "",
          "type": "uint256"
        }
      ],
      "stateMutability": "view",
      "type": "function"
    },
    {
      "inputs": [
        {
          "internalType": "address",
          "name": "user",
          "type": "address"
        },
        {
          "internalType": "uint256",
          "name": "marketId",
          "type": "uint256"
        },
        {
          "internalType": "uint32",
          "name": "outcomeIndex",
          "type": "uint32"
        }
      ],
      "name": "getUserMarketShare",
      "outputs": [
        {
          "internalType": "uint256",
          "name": "",
          "type": "uint256"
        }
      ],
      "stateMutability": "view",
      "type": "function"
    },
    {
      "inputs": [
        {
          "internalType": "string[]",
          "name": "outcomeNames",
          "type": "string[]"
        },
        {
          "internalType": "uint128",
          "name": "deadline",
          "type": "uint128"
        }
      ],
      "name": "initMarket",
      "outputs": [],
      "stateMutability": "nonpayable",
      "type": "function"
    },
    {
      "inputs": [
        {
          "internalType": "address",
          "name": "",
          "type": "address"
        }
      ],
      "name": "liquidityBalance",
      "outputs": [
        {
          "internalType": "uint256",
          "name": "",
          "type": "uint256"
        }
      ],
      "stateMutability": "view",
      "type": "function"
    },
    {
      "inputs": [],
      "name": "liquidityPool",
      "outputs": [
        {
          "internalType": "uint256",
          "name": "",
          "type": "uint256"
        }
      ],
      "stateMutability": "view",
      "type": "function"
    },
    {
      "inputs": [
        {
          "internalType": "uint256",
          "name": "",
          "type": "uint256"
        }
      ],
      "name": "markets",
      "outputs": [
        {
          "internalType": "uint32",
          "name": "numOutcomes",
          "type": "uint32"
        },
        {
          "internalType": "uint128",
          "name": "deadline",
          "type": "uint128"
        },
        {
          "internalType": "bool",
          "name": "isActive",
          "type": "bool"
        },
        {
          "internalType": "bool",
          "name": "isSettled",
          "type": "bool"
        }
      ],
      "stateMutability": "view",
      "type": "function"
    },
    {
      "inputs": [],
      "name": "numMarkets",
      "outputs": [
        {
          "internalType": "uint256",
          "name": "",
          "type": "uint256"
        }
      ],
      "stateMutability": "view",
      "type": "function"
    },
    {
      "inputs": [
        {
          "internalType": "uint256",
          "name": "",
          "type": "uint256"
        },
        {
          "internalType": "uint32",
          "name": "",
          "type": "uint32"
        }
      ],
      "name": "outcomes",
      "outputs": [
        {
          "internalType": "string",
          "name": "name",
          "type": "string"
        },
        {
          "internalType": "uint128",
          "name": "numSharesInPool",
          "type": "uint128"
        },
        {
          "internalType": "bool",
          "name": "winner",
          "type": "bool"
        }
      ],
      "stateMutability": "view",
      "type": "function"
    },
    {
      "inputs": [],
      "name": "owner",
      "outputs": [
        {
          "internalType": "address",
          "name": "",
          "type": "address"
        }
      ],
      "stateMutability": "view",
      "type": "function"
    },
    {
      "inputs": [
        {
          "internalType": "uint128",
          "name": "fundsToRemove",
          "type": "uint128"
        }
      ],
      "name": "removeFunding",
      "outputs": [],
      "stateMutability": "payable",
      "type": "function"
    },
    {
      "inputs": [
        {
          "internalType": "uint256",
          "name": "marketId",
          "type": "uint256"
        },
        {
          "internalType": "uint128",
          "name": "returnAmount",
          "type": "uint128"
        },
        {
          "internalType": "uint32",
          "name": "outcomeIndex",
          "type": "uint32"
        },
        {
          "internalType": "uint128",
          "name": "maxOutcomeTokensToSell",
          "type": "uint128"
        }
      ],
      "name": "sell",
      "outputs": [],
      "stateMutability": "nonpayable",
      "type": "function"
    },
    {
      "inputs": [
        {
          "internalType": "uint32",
          "name": "_fee",
          "type": "uint32"
        }
      ],
      "name": "setFee",
      "outputs": [],
      "stateMutability": "nonpayable",
      "type": "function"
    },
    {
      "inputs": [
        {
          "internalType": "uint256",
          "name": "marketId",
          "type": "uint256"
        },
        {
          "internalType": "uint32",
          "name": "outcomeIndex",
          "type": "uint32"
        }
      ],
      "name": "setMarketWinner",
      "outputs": [],
      "stateMutability": "nonpayable",
      "type": "function"
    },
    {
      "inputs": [
        {
          "internalType": "uint32",
          "name": "_fee",
          "type": "uint32"
        }
      ],
      "name": "setTreasurerFee",
      "outputs": [],
      "stateMutability": "nonpayable",
      "type": "function"
    },
    {
      "inputs": [
        {
          "internalType": "address",
          "name": "treasurer",
          "type": "address"
        }
      ],
      "name": "setTreasury",
      "outputs": [],
      "stateMutability": "nonpayable",
      "type": "function"
    },
    {
      "inputs": [
        {
          "internalType": "uint256",
          "name": "marketId",
          "type": "uint256"
        },
        {
          "internalType": "uint32",
          "name": "outcomeIndex",
          "type": "uint32"
        }
      ],
      "name": "setWinner",
      "outputs": [],
      "stateMutability": "nonpayable",
      "type": "function"
    },
    {
      "inputs": [],
      "name": "treasuryFee",
      "outputs": [
        {
          "internalType": "uint32",
          "name": "",
          "type": "uint32"
        }
      ],
      "stateMutability": "view",
      "type": "function"
    },
    {
      "inputs": [],
      "name": "treasuryWallet",
      "outputs": [
        {
          "internalType": "address",
          "name": "",
          "type": "address"
        }
      ],
      "stateMutability": "view",
      "type": "function"
    },
    {
      "inputs": [
        {
          "internalType": "uint256",
          "name": "marketId",
          "type": "uint256"
        },
        {
          "internalType": "uint128",
          "name": "deadline",
          "type": "uint128"
        }
      ],
      "name": "updateDeadline",
      "outputs": [],
      "stateMutability": "nonpayable",
      "type": "function"
    }
  ],
  "bytecode": "0x608060405234801561001057600080fd5b50604051615e93380380615e93833981810160405281019061003291906100db565b80600260006101000a81548163ffffffff021916908363ffffffff16021790555033600560006101000a81548173ffffffffffffffffffffffffffffffffffffffff021916908373ffffffffffffffffffffffffffffffffffffffff16021790555050610108565b600080fd5b600063ffffffff82169050919050565b6100b88161009f565b81146100c357600080fd5b50565b6000815190506100d5816100af565b92915050565b6000602082840312156100f1576100f061009a565b5b60006100ff848285016100c6565b91505092915050565b615d7c806101176000396000f3fe60806040526004361061025c5760003560e01c806360b1791411610144578063c86df029116100b6578063dfef00941161007a578063dfef009414610935578063e94119ce14610951578063eb44fdd31461098e578063ef4cadc5146109cb578063f0f44260146109f6578063f244244f14610a1f5761025c565b8063c86df0291461085b578063cc32d17614610877578063ced72f87146108a2578063dd296480146108cd578063ddca3f431461090a5761025c565b80639642366311610108578063964236631461070c5780639ecabe9714610737578063b1283e7714610776578063b2016bd4146107b6578063ba2abf26146107e1578063c392b9a61461081e5761025c565b806360b1791414610625578063665a11ca14610662578063794da9cc1461068d5780638da5cb5b146106b657806394db0595146106e15761025c565b80633064c8b0116101dd57806347734892116101a157806347734892146105055780634ac4e727146105425780634f5fa3f71461057f578063565c1714146105a8578063573c16f6146105d15780635dc48d8e146105fc5761025c565b80633064c8b01461041e57806335a0ca931461045b5780633b19e84a146104845780634626402b146104af57806346caf2ae146104da5761025c565b806326e04f9d1161022457806326e04f9d14610337578063295c39a5146103625780632b38fe621461038d5780632c381775146103ca5780632e0f2625146103f35761025c565b806306ba8618146102615780630f2539e01461029e57806313dce938146102c757806316dbd776146102d15780631ab971ab1461030e575b600080fd5b34801561026d57600080fd5b5061028860048036038101906102839190613c29565b610a48565b6040516102959190613c8b565b60405180910390f35b3480156102aa57600080fd5b506102c560048036038101906102c09190613cee565b610ac1565b005b6102cf610e09565b005b3480156102dd57600080fd5b506102f860048036038101906102f39190613d55565b610f19565b6040516103059190613c8b565b60405180910390f35b34801561031a57600080fd5b5061033560048036038101906103309190613d82565b610fcb565b005b34801561034357600080fd5b5061034c61107f565b6040516103599190613c8b565b60405180910390f35b34801561036e57600080fd5b50610377611085565b6040516103849190613c8b565b60405180910390f35b34801561039957600080fd5b506103b460048036038101906103af9190613daf565b61108f565b6040516103c19190613ef9565b60405180910390f35b3480156103d657600080fd5b506103f160048036038101906103ec9190614136565b6111d1565b005b3480156103ff57600080fd5b5061040861159a565b6040516104159190613c8b565b60405180910390f35b34801561042a57600080fd5b5061044560048036038101906104409190614192565b61159f565b6040516104529190613c8b565b60405180910390f35b34801561046757600080fd5b50610482600480360381019061047d9190613daf565b6115d1565b005b34801561049057600080fd5b506104996117a2565b6040516104a691906141f4565b60405180910390f35b3480156104bb57600080fd5b506104c461185c565b6040516104d191906141f4565b60405180910390f35b3480156104e657600080fd5b506104ef611882565b6040516104fc9190613c8b565b60405180910390f35b34801561051157600080fd5b5061052c60048036038101906105279190613d55565b61188c565b6040516105399190613c8b565b60405180910390f35b34801561054e57600080fd5b506105696004803603810190610564919061420f565b6118d5565b6040516105769190614271565b60405180910390f35b34801561058b57600080fd5b506105a660048036038101906105a1919061428c565b611c58565b005b3480156105b457600080fd5b506105cf60048036038101906105ca91906142cc565b611e36565b005b3480156105dd57600080fd5b506105e6611f4f565b6040516105f39190613c8b565b60405180910390f35b34801561060857600080fd5b50610623600480360381019061061e9190613d82565b611f55565b005b34801561063157600080fd5b5061064c600480360381019061064791906142cc565b612009565b6040516106599190613c8b565b60405180910390f35b34801561066e57600080fd5b5061067761202d565b6040516106849190613c8b565b60405180910390f35b34801561069957600080fd5b506106b460048036038101906106af9190613daf565b612033565b005b3480156106c257600080fd5b506106cb61233d565b6040516106d891906141f4565b60405180910390f35b3480156106ed57600080fd5b506106f6612363565b6040516107039190613c8b565b60405180910390f35b34801561071857600080fd5b50610721612369565b60405161072e91906141f4565b60405180910390f35b34801561074357600080fd5b5061075e60048036038101906107599190613daf565b612392565b60405161076d93929190614352565b60405180910390f35b34801561078257600080fd5b5061079d600480360381019061079891906142cc565b61247a565b6040516107ad949392919061439f565b60405180910390f35b3480156107c257600080fd5b506107cb6124f0565b6040516107d891906141f4565b60405180910390f35b3480156107ed57600080fd5b5061080860048036038101906108039190613d55565b612514565b60405161081591906145c7565b60405180910390f35b34801561082a57600080fd5b506108456004803603810190610840919061420f565b61275a565b6040516108529190614271565b60405180910390f35b610875600480360381019061087091906145e9565b612b17565b005b34801561088357600080fd5b5061088c612e13565b604051610899919061463c565b60405180910390f35b3480156108ae57600080fd5b506108b7612e29565b6040516108c4919061463c565b60405180910390f35b3480156108d957600080fd5b506108f460048036038101906108ef9190613d55565b612e43565b6040516109019190613c8b565b60405180910390f35b34801561091657600080fd5b5061091f612e5b565b60405161092c919061463c565b60405180910390f35b61094f600480360381019061094a9190614657565b612e71565b005b34801561095d57600080fd5b50610978600480360381019061097391906142cc565b6131c0565b6040516109859190613c8b565b60405180910390f35b34801561099a57600080fd5b506109b560048036038101906109b091906142cc565b6131ef565b6040516109c291906146e8565b60405180910390f35b3480156109d757600080fd5b506109e06132c2565b6040516109ed9190613c8b565b60405180910390f35b348015610a0257600080fd5b50610a1d6004803603810190610a189190613d55565b6132d3565b005b348015610a2b57600080fd5b50610a466004803603810190610a419190613daf565b6133a7565b005b60006009600084815260200190815260200160002060008573ffffffffffffffffffffffffffffffffffffffff1673ffffffffffffffffffffffffffffffffffffffff16815260200190815260200160002060008363ffffffff1663ffffffff1681526020019081526020016000205490509392505050565b6000610ade846fffffffffffffffffffffffffffffffff16612009565b90506000610aed8686866118d5565b9050826fffffffffffffffffffffffffffffffff16816fffffffffffffffffffffffffffffffff161115610b56576040517f08c379a0000000000000000000000000000000000000000000000000000000008152600401610b4d9061474f565b60405180910390fd5b6009600087815260200190815260200160002060003373ffffffffffffffffffffffffffffffffffffffff1673ffffffffffffffffffffffffffffffffffffffff16815260200190815260200160002060008563ffffffff1663ffffffff16815260200190815260200160002054816fffffffffffffffffffffffffffffffff161115610c18576040517f08c379a0000000000000000000000000000000000000000000000000000000008152600401610c0f906147bb565b60405180910390fd5b806fffffffffffffffffffffffffffffffff166009600088815260200190815260200160002060003373ffffffffffffffffffffffffffffffffffffffff1673ffffffffffffffffffffffffffffffffffffffff16815260200190815260200160002060008663ffffffff1663ffffffff1681526020019081526020016000206000828254610ca7919061480a565b925050819055506064600260009054906101000a900463ffffffff1663ffffffff1683610cd4919061483e565b610cde91906148af565b60046000828254610cef91906148e0565b9250508190555060006064600260009054906101000a900463ffffffff1663ffffffff1684610d1e919061483e565b610d2891906148af565b83610d33919061480a565b9050610d476007600a8984898760006135cf565b6000610d64876fffffffffffffffffffffffffffffffff166131c0565b90503373ffffffffffffffffffffffffffffffffffffffff166108fc829081150290604051600060405180830381858888f19350505050158015610dac573d6000803e3d6000fd5b503373ffffffffffffffffffffffffffffffffffffffff167fd119a55f8addb8a2ff33c692b1d13c26a766c3f16aee9126a733534d47aa81c2858886604051610df79392919061494f565b60405180910390a25050505050505050565b60003411610e4c576040517f08c379a0000000000000000000000000000000000000000000000000000000008152600401610e43906149d2565b60405180910390fd5b6000610e5734612009565b905080600860003373ffffffffffffffffffffffffffffffffffffffff1673ffffffffffffffffffffffffffffffffffffffff1681526020019081526020016000206000828254610ea891906148e0565b925050819055508060036000828254610ec191906148e0565b925050819055503373ffffffffffffffffffffffffffffffffffffffff167f7ebb51c69763e72edc59161ffe7e6c51ab52010637c6d4e8ca433f5b43c876cb82604051610f0e9190613c8b565b60405180910390a250565b600080600354600860008573ffffffffffffffffffffffffffffffffffffffff1673ffffffffffffffffffffffffffffffffffffffff16815260200190815260200160002054600454610f6c919061483e565b610f7691906148af565b9050600860008473ffffffffffffffffffffffffffffffffffffffff1673ffffffffffffffffffffffffffffffffffffffff1681526020019081526020016000205481610fc391906148e0565b915050919050565b600560009054906101000a900473ffffffffffffffffffffffffffffffffffffffff1673ffffffffffffffffffffffffffffffffffffffff163373ffffffffffffffffffffffffffffffffffffffff161461105b576040517f08c379a000000000000000000000000000000000000000000000000000000000815260040161105290614a3e565b60405180910390fd5b80600260006101000a81548163ffffffff021916908363ffffffff16021790555050565b60015481565b6000600154905090565b611097613aa0565b600a600084815260200190815260200160002060008363ffffffff1663ffffffff1681526020019081526020016000206040518060600160405290816000820180546110e290614a8d565b80601f016020809104026020016040519081016040528092919081815260200182805461110e90614a8d565b801561115b5780601f106111305761010080835404028352916020019161115b565b820191906000526020600020905b81548152906001019060200180831161113e57829003601f168201915b505050505081526020016001820160009054906101000a90046fffffffffffffffffffffffffffffffff166fffffffffffffffffffffffffffffffff166fffffffffffffffffffffffffffffffff1681526020016001820160109054906101000a900460ff161515151581525050905092915050565b6000825111611215576040517f08c379a000000000000000000000000000000000000000000000000000000000815260040161120c90614b0a565b60405180910390fd5b6101008251111561125b576040517f08c379a000000000000000000000000000000000000000000000000000000000815260040161125290614b76565b60405180910390fd5b42816fffffffffffffffffffffffffffffffff16116112af576040517f08c379a00000000000000000000000000000000000000000000000000000000081526004016112a690614be2565b60405180910390fd5b60006003549050600081116112f9576040517f08c379a00000000000000000000000000000000000000000000000000000000081526004016112f090614c4e565b60405180910390fd5b60006001805461130991906148e0565b905080600181905550600084519050600060405180608001604052808363ffffffff168152602001866fffffffffffffffffffffffffffffffff168152602001600115158152602001600015158152509050806007600085815260200190815260200160002060008201518160000160006101000a81548163ffffffff021916908363ffffffff16021790555060208201518160000160046101000a8154816fffffffffffffffffffffffffffffffff02191690836fffffffffffffffffffffffffffffffff16021790555060408201518160000160146101000a81548160ff02191690831515021790555060608201518160000160156101000a81548160ff0219169083151502179055509050506000600a8363ffffffff168661142e91906148af565b61143891906148af565b905060005b8363ffffffff168163ffffffff161015611556576040518060600160405280898363ffffffff168151811061147557611474614c6e565b5b60200260200101518152602001836fffffffffffffffffffffffffffffffff16815260200160001515815250600a600087815260200190815260200160002060008363ffffffff1663ffffffff16815260200190815260200160002060008201518160000190816114e69190614e3f565b5060208201518160010160006101000a8154816fffffffffffffffffffffffffffffffff02191690836fffffffffffffffffffffffffffffffff16021790555060408201518160010160106101000a81548160ff021916908315150217905550905050808060010191505061143d565b50837f413a0255d79470114fc16c403c7e791ea572bf8776a21aea08820e65201936f28888604051611589929190614fd3565b60405180910390a250505050505050565b600681565b600960205282600052604060002060205281600052604060002060205280600052604060002060009250925050505481565b600560009054906101000a900473ffffffffffffffffffffffffffffffffffffffff1673ffffffffffffffffffffffffffffffffffffffff163373ffffffffffffffffffffffffffffffffffffffff1614611661576040517f08c379a00000000000000000000000000000000000000000000000000000000081526004016116589061504f565b60405180910390fd5b60006007600084815260200190815260200160002090508060000160159054906101000a900460ff16156116ca576040517f08c379a00000000000000000000000000000000000000000000000000000000081526004016116c1906150bb565b60405180910390fd5b60005b8160000160009054906101000a900463ffffffff1663ffffffff168163ffffffff161015611762578263ffffffff168163ffffffff1603611755576001600a600086815260200190815260200160002060008363ffffffff1663ffffffff16815260200190815260200160002060010160106101000a81548160ff0219169083151502179055505b80806001019150506116cd565b5060008160000160146101000a81548160ff02191690831515021790555060018160000160156101000a81548160ff021916908315150217905550505050565b6000600560009054906101000a900473ffffffffffffffffffffffffffffffffffffffff1673ffffffffffffffffffffffffffffffffffffffff163373ffffffffffffffffffffffffffffffffffffffff1614611834576040517f08c379a000000000000000000000000000000000000000000000000000000000815260040161182b90615127565b60405180910390fd5b600660009054906101000a900473ffffffffffffffffffffffffffffffffffffffff16905090565b600660009054906101000a900473ffffffffffffffffffffffffffffffffffffffff1681565b6000600354905090565b6000600860008373ffffffffffffffffffffffffffffffffffffffff1673ffffffffffffffffffffffffffffffffffffffff168152602001908152602001600020549050919050565b600080836fffffffffffffffffffffffffffffffff161161192b576040517f08c379a000000000000000000000000000000000000000000000000000000000815260040161192290615193565b60405180910390fd5b600154841115611970576040517f08c379a0000000000000000000000000000000000000000000000000000000008152600401611967906151ff565b60405180910390fd5b60006007600086815260200190815260200160002090508060000160009054906101000a900463ffffffff1663ffffffff168363ffffffff16106119e9576040517f08c379a00000000000000000000000000000000000000000000000000000000081526004016119e09061526b565b60405180910390fd5b8060000160149054906101000a900460ff16611a3a576040517f08c379a0000000000000000000000000000000000000000000000000000000008152600401611a31906152d7565b60405180910390fd5b8060000160159054906101000a900460ff1615611a8c576040517f08c379a0000000000000000000000000000000000000000000000000000000008152600401611a83906150bb565b60405180910390fd5b6000611aa9856fffffffffffffffffffffffffffffffff16612009565b90506000611aba6007600a89613895565b905060006064600260009054906101000a900463ffffffff1663ffffffff1684611ae4919061483e565b611aee91906148af565b83611af9919061480a565b90506000828763ffffffff1681518110611b1657611b15614c6e565b5b6020026020010151905060005b83518163ffffffff161015611bbd578763ffffffff168163ffffffff1614611baa5782848263ffffffff1681518110611b5f57611b5e614c6e565b5b6020026020010151611b7191906152f7565b848263ffffffff1681518110611b8a57611b89614c6e565b5b602002602001015183611b9d919061533b565b611ba79190615378565b91505b8080611bb5906153a9565b915050611b23565b506000816fffffffffffffffffffffffffffffffff1611611c13576040517f08c379a0000000000000000000000000000000000000000000000000000000008152600401611c0a90615421565b60405180910390fd5b828763ffffffff1681518110611c2c57611c2b614c6e565b5b60200260200101518183611c409190615441565b611c4a91906152f7565b955050505050509392505050565b600560009054906101000a900473ffffffffffffffffffffffffffffffffffffffff1673ffffffffffffffffffffffffffffffffffffffff163373ffffffffffffffffffffffffffffffffffffffff1614611ce8576040517f08c379a0000000000000000000000000000000000000000000000000000000008152600401611cdf906154d1565b60405180910390fd5b60006007600084815260200190815260200160002090508060000160149054906101000a900460ff16611d50576040517f08c379a0000000000000000000000000000000000000000000000000000000008152600401611d47906152d7565b60405180910390fd5b8060000160159054906101000a900460ff1615611da2576040517f08c379a0000000000000000000000000000000000000000000000000000000008152600401611d99906150bb565b60405180910390fd5b42826fffffffffffffffffffffffffffffffff1611611df6576040517f08c379a0000000000000000000000000000000000000000000000000000000008152600401611ded90614be2565b60405180910390fd5b818160000160046101000a8154816fffffffffffffffffffffffffffffffff02191690836fffffffffffffffffffffffffffffffff160217905550505050565b600560009054906101000a900473ffffffffffffffffffffffffffffffffffffffff1673ffffffffffffffffffffffffffffffffffffffff163373ffffffffffffffffffffffffffffffffffffffff1614611ec6576040517f08c379a0000000000000000000000000000000000000000000000000000000008152600401611ebd9061553d565b60405180910390fd5b60006007600083815260200190815260200160002090508060000160149054906101000a900460ff16611f2e576040517f08c379a0000000000000000000000000000000000000000000000000000000008152600401611f25906155a9565b60405180910390fd5b60008160000160146101000a81548160ff0219169083151502179055505050565b610a0981565b600560009054906101000a900473ffffffffffffffffffffffffffffffffffffffff1673ffffffffffffffffffffffffffffffffffffffff163373ffffffffffffffffffffffffffffffffffffffff1614611fe5576040517f08c379a0000000000000000000000000000000000000000000000000000000008152600401611fdc90614a3e565b60405180910390fd5b80600660146101000a81548163ffffffff021916908363ffffffff16021790555050565b60008061201583613a86565b9050610a0981612025919061483e565b915050919050565b60035481565b60006007600084815260200190815260200160002090508060000160159054906101000a900460ff1661209b576040517f08c379a000000000000000000000000000000000000000000000000000000000815260040161209290615615565b60405180910390fd5b6000600a600085815260200190815260200160002060008463ffffffff1663ffffffff16815260200190815260200160002090508060010160109054906101000a900460ff16612120576040517f08c379a000000000000000000000000000000000000000000000000000000000815260040161211790615681565b60405180910390fd5b60006009600086815260200190815260200160002060003373ffffffffffffffffffffffffffffffffffffffff1673ffffffffffffffffffffffffffffffffffffffff16815260200190815260200160002060008563ffffffff1663ffffffff168152602001908152602001600020549050600081116121d5576040517f08c379a00000000000000000000000000000000000000000000000000000000081526004016121cc906156ed565b60405180910390fd5b60006064600260009054906101000a900463ffffffff1660646121f8919061570d565b63ffffffff1683612209919061483e565b61221391906148af565b905060006009600088815260200190815260200160002060003373ffffffffffffffffffffffffffffffffffffffff1673ffffffffffffffffffffffffffffffffffffffff16815260200190815260200160002060008763ffffffff1663ffffffff1681526020019081526020016000208190555060003373ffffffffffffffffffffffffffffffffffffffff16826040516122ae90615776565b60006040518083038185875af1925050503d80600081146122eb576040519150601f19603f3d011682016040523d82523d6000602084013e6122f0565b606091505b5050905080612334576040517f08c379a000000000000000000000000000000000000000000000000000000000815260040161232b906157d7565b60405180910390fd5b50505050505050565b600560009054906101000a900473ffffffffffffffffffffffffffffffffffffffff1681565b60045481565b60008060009054906101000a900473ffffffffffffffffffffffffffffffffffffffff16905090565b600a602052816000526040600020602052806000526040600020600091509150508060000180546123c290614a8d565b80601f01602080910402602001604051908101604052809291908181526020018280546123ee90614a8d565b801561243b5780601f106124105761010080835404028352916020019161243b565b820191906000526020600020905b81548152906001019060200180831161241e57829003601f168201915b5050505050908060010160009054906101000a90046fffffffffffffffffffffffffffffffff16908060010160109054906101000a900460ff16905083565b60076020528060005260406000206000915090508060000160009054906101000a900463ffffffff16908060000160049054906101000a90046fffffffffffffffffffffffffffffffff16908060000160149054906101000a900460ff16908060000160159054906101000a900460ff16905084565b60008054906101000a900473ffffffffffffffffffffffffffffffffffffffff1681565b6060600060015467ffffffffffffffff81111561253457612533613f20565b5b60405190808252806020026020018201604052801561256d57816020015b61255a613ad5565b8152602001906001900390816125525790505b5090506000600190505b600154811161275057600060076000838152602001908152602001600020905060008160000160009054906101000a900463ffffffff1663ffffffff1667ffffffffffffffff8111156125cd576125cc613f20565b5b6040519080825280602002602001820160405280156125fb5781602001602082028036833780820191505090505b50905060005b8260000160009054906101000a900463ffffffff1663ffffffff168163ffffffff1610156126c9576009600085815260200190815260200160002060008873ffffffffffffffffffffffffffffffffffffffff1673ffffffffffffffffffffffffffffffffffffffff16815260200190815260200160002060008263ffffffff1663ffffffff16815260200190815260200160002054828263ffffffff16815181106126b0576126af614c6e565b5b6020026020010181815250508080600101915050612601565b5060405180608001604052808481526020018281526020018360000160149054906101000a900460ff16151581526020018360000160159054906101000a900460ff1615158152508460018561271f919061480a565b815181106127305761272f614c6e565b5b602002602001018190525050508080612748906157f7565b915050612577565b5080915050919050565b600080836fffffffffffffffffffffffffffffffff16116127b0576040517f08c379a00000000000000000000000000000000000000000000000000000000081526004016127a79061588b565b60405180910390fd5b6001548411156127f5576040517f08c379a00000000000000000000000000000000000000000000000000000000081526004016127ec906151ff565b60405180910390fd5b6000612812846fffffffffffffffffffffffffffffffff16612009565b905060006007600087815260200190815260200160002090508060000160009054906101000a900463ffffffff1663ffffffff168463ffffffff161061288d576040517f08c379a00000000000000000000000000000000000000000000000000000000081526004016128849061526b565b60405180910390fd5b8060000160149054906101000a900460ff166128de576040517f08c379a00000000000000000000000000000000000000000000000000000000081526004016128d5906152d7565b60405180910390fd5b8060000160159054906101000a900460ff1615612930576040517f08c379a0000000000000000000000000000000000000000000000000000000008152600401612927906150bb565b60405180910390fd5b600061293f6007600a89613895565b905060006064600660149054906101000a900463ffffffff1663ffffffff1685612969919061533b565b6129739190615378565b6064600260009054906101000a900463ffffffff1663ffffffff1686612999919061533b565b6129a39190615378565b856129ae91906152f7565b6129b891906152f7565b90506000828763ffffffff16815181106129d5576129d4614c6e565b5b6020026020010151905060005b83518163ffffffff161015612a7c578763ffffffff168163ffffffff1614612a695782848263ffffffff1681518110612a1e57612a1d614c6e565b5b6020026020010151612a309190615441565b848263ffffffff1681518110612a4957612a48614c6e565b5b602002602001015183612a5c919061533b565b612a669190615378565b91505b8080612a74906153a9565b9150506129e2565b506000816fffffffffffffffffffffffffffffffff1611612ad2576040517f08c379a0000000000000000000000000000000000000000000000000000000008152600401612ac990615421565b60405180910390fd5b8082848963ffffffff1681518110612aed57612aec614c6e565b5b6020026020010151612aff9190615441565b612b0991906152f7565b955050505050509392505050565b6000612b2234612009565b90506000612b3185348661275a565b9050826fffffffffffffffffffffffffffffffff16816fffffffffffffffffffffffffffffffff161015612b9a576040517f08c379a0000000000000000000000000000000000000000000000000000000008152600401612b91906158f7565b60405180910390fd5b6064600260009054906101000a900463ffffffff1663ffffffff1683612bc0919061483e565b612bca91906148af565b60046000828254612bdb91906148e0565b925050819055506000612c1c6064600660149054906101000a900463ffffffff1663ffffffff1685612c0d919061483e565b612c1791906148af565b6131c0565b9050600660009054906101000a900473ffffffffffffffffffffffffffffffffffffffff1673ffffffffffffffffffffffffffffffffffffffff166108fc64e8d4a5100083612c6b919061483e565b9081150290604051600060405180830381858888f19350505050158015612c96573d6000803e3d6000fd5b5060006064600660149054906101000a900463ffffffff1663ffffffff1685612cbf919061483e565b612cc991906148af565b6064600260009054906101000a900463ffffffff1663ffffffff1686612cef919061483e565b612cf991906148af565b85612d0491906152f7565b612d0e91906152f7565b9050612d226007600a89848a8860016135cf565b826fffffffffffffffffffffffffffffffff166009600089815260200190815260200160002060003373ffffffffffffffffffffffffffffffffffffffff1673ffffffffffffffffffffffffffffffffffffffff16815260200190815260200160002060008863ffffffff1663ffffffff1681526020019081526020016000206000828254612db191906148e0565b925050819055503373ffffffffffffffffffffffffffffffffffffffff167f285fd84012d60ebf3e087ae762bc6298ae35d7dbe0a659a56dd670656c17e656858886604051612e029392919061494f565b60405180910390a250505050505050565b600660149054906101000a900463ffffffff1681565b6000600260009054906101000a900463ffffffff16905090565b60086020528060005260406000206000915090505481565b600260009054906101000a900463ffffffff1681565b6000816fffffffffffffffffffffffffffffffff1611612ec6576040517f08c379a0000000000000000000000000000000000000000000000000000000008152600401612ebd90615963565b60405180910390fd5b600354816fffffffffffffffffffffffffffffffff161115612f1d576040517f08c379a0000000000000000000000000000000000000000000000000000000008152600401612f14906159cf565b60405180910390fd5b806fffffffffffffffffffffffffffffffff16600860003373ffffffffffffffffffffffffffffffffffffffff1673ffffffffffffffffffffffffffffffffffffffff168152602001908152602001600020541015612fb1576040517f08c379a0000000000000000000000000000000000000000000000000000000008152600401612fa890615a3b565b60405180910390fd5b6000600354826fffffffffffffffffffffffffffffffff16600454612fd6919061483e565b612fe091906148af565b90506000612fed33610f19565b905060008111613032576040517f08c379a000000000000000000000000000000000000000000000000000000000815260040161302990615aa7565b60405180910390fd5b600061303d826131c0565b905064e8d4a5100081613050919061483e565b471015613092576040517f08c379a000000000000000000000000000000000000000000000000000000000815260040161308990615b13565b60405180910390fd5b3373ffffffffffffffffffffffffffffffffffffffff166108fc64e8d4a51000836130bd919061483e565b9081150290604051600060405180830381858888f193505050501580156130e8573d6000803e3d6000fd5b5082600460008282546130fb919061480a565b92505081905550836fffffffffffffffffffffffffffffffff16600860003373ffffffffffffffffffffffffffffffffffffffff1673ffffffffffffffffffffffffffffffffffffffff1681526020019081526020016000206000828254613163919061480a565b925050819055503373ffffffffffffffffffffffffffffffffffffffff167f8338d96d1ac03fc732036bb25b1469d0568ef83e329cc80df18ec1b705c6fa1d85856040516131b2929190615b33565b60405180910390a250505050565b6000610a096006600a6131d39190615c8f565b836131de919061483e565b6131e891906148af565b9050919050565b6131f7613b01565b600760008381526020019081526020016000206040518060800160405290816000820160009054906101000a900463ffffffff1663ffffffff1663ffffffff1681526020016000820160049054906101000a90046fffffffffffffffffffffffffffffffff166fffffffffffffffffffffffffffffffff166fffffffffffffffffffffffffffffffff1681526020016000820160149054906101000a900460ff161515151581526020016000820160159054906101000a900460ff1615151515815250509050919050565b6006600a6132d09190615c8f565b81565b600560009054906101000a900473ffffffffffffffffffffffffffffffffffffffff1673ffffffffffffffffffffffffffffffffffffffff163373ffffffffffffffffffffffffffffffffffffffff1614613363576040517f08c379a000000000000000000000000000000000000000000000000000000000815260040161335a90615d26565b60405180910390fd5b80600660006101000a81548173ffffffffffffffffffffffffffffffffffffffff021916908373ffffffffffffffffffffffffffffffffffffffff16021790555050565b600560009054906101000a900473ffffffffffffffffffffffffffffffffffffffff1673ffffffffffffffffffffffffffffffffffffffff163373ffffffffffffffffffffffffffffffffffffffff1614613437576040517f08c379a000000000000000000000000000000000000000000000000000000000815260040161342e9061504f565b60405180910390fd5b60006007600084815260200190815260200160002090508060000160149054906101000a900460ff1661349f576040517f08c379a0000000000000000000000000000000000000000000000000000000008152600401613496906152d7565b60405180910390fd5b8060000160159054906101000a900460ff16156134f1576040517f08c379a00000000000000000000000000000000000000000000000000000000081526004016134e8906150bb565b60405180910390fd5b60005b8160000160009054906101000a900463ffffffff1663ffffffff168163ffffffff16101561358f576000600a600086815260200190815260200160002060008363ffffffff1663ffffffff16815260200190815260200160002090508363ffffffff168263ffffffff16036135815760018160010160106101000a81548160ff0219169083151502179055505b5080806001019150506134f4565b5060008160000160146101000a81548160ff02191690831515021790555060018160000160156101000a81548160ff021916908315150217905550505050565b60008760008781526020019081526020016000206040518060800160405290816000820160009054906101000a900463ffffffff1663ffffffff1663ffffffff1681526020016000820160049054906101000a90046fffffffffffffffffffffffffffffffff166fffffffffffffffffffffffffffffffff166fffffffffffffffffffffffffffffffff1681526020016000820160149054906101000a900460ff161515151581526020016000820160159054906101000a900460ff161515151581525050905060008160000151905060005b8163ffffffff168163ffffffff1610156138895760008960008a815260200190815260200160002060008363ffffffff1663ffffffff168152602001908152602001600020905060008160010160009054906101000a90046fffffffffffffffffffffffffffffffff16905085156137c9578763ffffffff168363ffffffff160361377d578689826137349190615441565b61373e91906152f7565b8260010160006101000a8154816fffffffffffffffffffffffffffffffff02191690836fffffffffffffffffffffffffffffffff1602179055506137c4565b88816137899190615441565b8260010160006101000a8154816fffffffffffffffffffffffffffffffff02191690836fffffffffffffffffffffffffffffffff1602179055505b61387a565b8763ffffffff168363ffffffff1603613832578887826137e99190615441565b6137f391906152f7565b8260010160006101000a8154816fffffffffffffffffffffffffffffffff02191690836fffffffffffffffffffffffffffffffff160217905550613879565b888161383e91906152f7565b8260010160006101000a8154816fffffffffffffffffffffffffffffffff02191690836fffffffffffffffffffffffffffffffff1602179055505b5b505080806001019150506136a2565b50505050505050505050565b606060008460008481526020019081526020016000206040518060800160405290816000820160009054906101000a900463ffffffff1663ffffffff1663ffffffff1681526020016000820160049054906101000a90046fffffffffffffffffffffffffffffffff166fffffffffffffffffffffffffffffffff166fffffffffffffffffffffffffffffffff1681526020016000820160149054906101000a900460ff161515151581526020016000820160159054906101000a900460ff161515151581525050905060008160000151905060008163ffffffff1667ffffffffffffffff81111561398957613988613f20565b5b6040519080825280602002602001820160405280156139b75781602001602082028036833780820191505090505b50905060005b8263ffffffff168163ffffffff161015613a785786600087815260200190815260200160002060008263ffffffff1663ffffffff16815260200190815260200160002060010160009054906101000a90046fffffffffffffffffffffffffffffffff16828263ffffffff1681518110613a3957613a38614c6e565b5b60200260200101906fffffffffffffffffffffffffffffffff1690816fffffffffffffffffffffffffffffffff168152505080806001019150506139bd565b508093505050509392505050565b600064e8d4a5100082613a9991906148af565b9050919050565b60405180606001604052806060815260200160006fffffffffffffffffffffffffffffffff1681526020016000151581525090565b604051806080016040528060008152602001606081526020016000151581526020016000151581525090565b6040518060800160405280600063ffffffff16815260200160006fffffffffffffffffffffffffffffffff1681526020016000151581526020016000151581525090565b6000604051905090565b600080fd5b600080fd5b600073ffffffffffffffffffffffffffffffffffffffff82169050919050565b6000613b8482613b59565b9050919050565b613b9481613b79565b8114613b9f57600080fd5b50565b600081359050613bb181613b8b565b92915050565b6000819050919050565b613bca81613bb7565b8114613bd557600080fd5b50565b600081359050613be781613bc1565b92915050565b600063ffffffff82169050919050565b613c0681613bed565b8114613c1157600080fd5b50565b600081359050613c2381613bfd565b92915050565b600080600060608486031215613c4257613c41613b4f565b5b6000613c5086828701613ba2565b9350506020613c6186828701613bd8565b9250506040613c7286828701613c14565b9150509250925092565b613c8581613bb7565b82525050565b6000602082019050613ca06000830184613c7c565b92915050565b60006fffffffffffffffffffffffffffffffff82169050919050565b613ccb81613ca6565b8114613cd657600080fd5b50565b600081359050613ce881613cc2565b92915050565b60008060008060808587031215613d0857613d07613b4f565b5b6000613d1687828801613bd8565b9450506020613d2787828801613cd9565b9350506040613d3887828801613c14565b9250506060613d4987828801613cd9565b91505092959194509250565b600060208284031215613d6b57613d6a613b4f565b5b6000613d7984828501613ba2565b91505092915050565b600060208284031215613d9857613d97613b4f565b5b6000613da684828501613c14565b91505092915050565b60008060408385031215613dc657613dc5613b4f565b5b6000613dd485828601613bd8565b9250506020613de585828601613c14565b9150509250929050565b600081519050919050565b600082825260208201905092915050565b60005b83811015613e29578082015181840152602081019050613e0e565b60008484015250505050565b6000601f19601f8301169050919050565b6000613e5182613def565b613e5b8185613dfa565b9350613e6b818560208601613e0b565b613e7481613e35565b840191505092915050565b613e8881613ca6565b82525050565b60008115159050919050565b613ea381613e8e565b82525050565b60006060830160008301518482036000860152613ec68282613e46565b9150506020830151613edb6020860182613e7f565b506040830151613eee6040860182613e9a565b508091505092915050565b60006020820190508181036000830152613f138184613ea9565b905092915050565b600080fd5b7f4e487b7100000000000000000000000000000000000000000000000000000000600052604160045260246000fd5b613f5882613e35565b810181811067ffffffffffffffff82111715613f7757613f76613f20565b5b80604052505050565b6000613f8a613b45565b9050613f968282613f4f565b919050565b600067ffffffffffffffff821115613fb657613fb5613f20565b5b602082029050602081019050919050565b600080fd5b600080fd5b600067ffffffffffffffff821115613fec57613feb613f20565b5b613ff582613e35565b9050602081019050919050565b82818337600083830152505050565b600061402461401f84613fd1565b613f80565b9050828152602081018484840111156140405761403f613fcc565b5b61404b848285614002565b509392505050565b600082601f83011261406857614067613f1b565b5b8135614078848260208601614011565b91505092915050565b600061409461408f84613f9b565b613f80565b905080838252602082019050602084028301858111156140b7576140b6613fc7565b5b835b818110156140fe57803567ffffffffffffffff8111156140dc576140db613f1b565b5b8086016140e98982614053565b855260208501945050506020810190506140b9565b5050509392505050565b600082601f83011261411d5761411c613f1b565b5b813561412d848260208601614081565b91505092915050565b6000806040838503121561414d5761414c613b4f565b5b600083013567ffffffffffffffff81111561416b5761416a613b54565b5b61417785828601614108565b925050602061418885828601613cd9565b9150509250929050565b6000806000606084860312156141ab576141aa613b4f565b5b60006141b986828701613bd8565b93505060206141ca86828701613ba2565b92505060406141db86828701613c14565b9150509250925092565b6141ee81613b79565b82525050565b600060208201905061420960008301846141e5565b92915050565b60008060006060848603121561422857614227613b4f565b5b600061423686828701613bd8565b935050602061424786828701613cd9565b925050604061425886828701613c14565b9150509250925092565b61426b81613ca6565b82525050565b60006020820190506142866000830184614262565b92915050565b600080604083850312156142a3576142a2613b4f565b5b60006142b185828601613bd8565b92505060206142c285828601613cd9565b9150509250929050565b6000602082840312156142e2576142e1613b4f565b5b60006142f084828501613bd8565b91505092915050565b600082825260208201905092915050565b600061431582613def565b61431f81856142f9565b935061432f818560208601613e0b565b61433881613e35565b840191505092915050565b61434c81613e8e565b82525050565b6000606082019050818103600083015261436c818661430a565b905061437b6020830185614262565b6143886040830184614343565b949350505050565b61439981613bed565b82525050565b60006080820190506143b46000830187614390565b6143c16020830186614262565b6143ce6040830185614343565b6143db6060830184614343565b95945050505050565b600081519050919050565b600082825260208201905092915050565b6000819050602082019050919050565b61441981613bb7565b82525050565b600081519050919050565b600082825260208201905092915050565b6000819050602082019050919050565b60006144578383614410565b60208301905092915050565b6000602082019050919050565b600061447b8261441f565b614485818561442a565b93506144908361443b565b8060005b838110156144c15781516144a8888261444b565b97506144b383614463565b925050600181019050614494565b5085935050505092915050565b60006080830160008301516144e66000860182614410565b50602083015184820360208601526144fe8282614470565b91505060408301516145136040860182613e9a565b5060608301516145266060860182613e9a565b508091505092915050565b600061453d83836144ce565b905092915050565b6000602082019050919050565b600061455d826143e4565b61456781856143ef565b93508360208202850161457985614400565b8060005b858110156145b557848403895281516145968582614531565b94506145a183614545565b925060208a0199505060018101905061457d565b50829750879550505050505092915050565b600060208201905081810360008301526145e18184614552565b905092915050565b60008060006060848603121561460257614601613b4f565b5b600061461086828701613bd8565b935050602061462186828701613c14565b925050604061463286828701613cd9565b9150509250925092565b60006020820190506146516000830184614390565b92915050565b60006020828403121561466d5761466c613b4f565b5b600061467b84828501613cd9565b91505092915050565b61468d81613bed565b82525050565b6080820160008201516146a96000850182614684565b5060208201516146bc6020850182613e7f565b5060408201516146cf6040850182613e9a565b5060608201516146e26060850182613e9a565b50505050565b60006080820190506146fd6000830184614693565b92915050565b7f53656c6c696e67206d6f7265207468616e206578706563746564000000000000600082015250565b6000614739601a836142f9565b915061474482614703565b602082019050919050565b600060208201905081810360008301526147688161472c565b9050919050565b7f496e73756666696369656e742062616c616e6365000000000000000000000000600082015250565b60006147a56014836142f9565b91506147b08261476f565b602082019050919050565b600060208201905081810360008301526147d481614798565b9050919050565b7f4e487b7100000000000000000000000000000000000000000000000000000000600052601160045260246000fd5b600061481582613bb7565b915061482083613bb7565b9250828203905081811115614838576148376147db565b5b92915050565b600061484982613bb7565b915061485483613bb7565b925082820261486281613bb7565b91508282048414831517614879576148786147db565b5b5092915050565b7f4e487b7100000000000000000000000000000000000000000000000000000000600052601260045260246000fd5b60006148ba82613bb7565b91506148c583613bb7565b9250826148d5576148d4614880565b5b828204905092915050565b60006148eb82613bb7565b91506148f683613bb7565b925082820190508082111561490e5761490d6147db565b5b92915050565b6000819050919050565b600061493961493461492f84613ca6565b614914565b613bb7565b9050919050565b6149498161491e565b82525050565b60006060820190506149646000830186614262565b6149716020830185614390565b61497e6040830184614940565b949350505050565b7f41646465642066756e6473206d75737420626520706f73697469766500000000600082015250565b60006149bc601c836142f9565b91506149c782614986565b602082019050919050565b600060208201905081810360008301526149eb816149af565b9050919050565b7f4f6e6c79206f776e65722063616e207365742066656500000000000000000000600082015250565b6000614a286016836142f9565b9150614a33826149f2565b602082019050919050565b60006020820190508181036000830152614a5781614a1b565b9050919050565b7f4e487b7100000000000000000000000000000000000000000000000000000000600052602260045260246000fd5b60006002820490506001821680614aa557607f821691505b602082108103614ab857614ab7614a5e565b5b50919050565b7f4f7574636f6d65732061727261792063616e6e6f7420626520656d7074790000600082015250565b6000614af4601e836142f9565b9150614aff82614abe565b602082019050919050565b60006020820190508181036000830152614b2381614ae7565b9050919050565b7f546f6f206d616e79206f7574636f6d6573000000000000000000000000000000600082015250565b6000614b606011836142f9565b9150614b6b82614b2a565b602082019050919050565b60006020820190508181036000830152614b8f81614b53565b9050919050565b7f446561646c696e65206d75737420626520696e20746865206675747572650000600082015250565b6000614bcc601e836142f9565b9150614bd782614b96565b602082019050919050565b60006020820190508181036000830152614bfb81614bbf565b9050919050565b7f4e6f206c697175696469747920696e2074686520706f6f6c0000000000000000600082015250565b6000614c386018836142f9565b9150614c4382614c02565b602082019050919050565b60006020820190508181036000830152614c6781614c2b565b9050919050565b7f4e487b7100000000000000000000000000000000000000000000000000000000600052603260045260246000fd5b60008190508160005260206000209050919050565b60006020601f8301049050919050565b600082821b905092915050565b600060088302614cff7fffffffffffffffffffffffffffffffffffffffffffffffffffffffffffffffff82614cc2565b614d098683614cc2565b95508019841693508086168417925050509392505050565b6000614d3c614d37614d3284613bb7565b614914565b613bb7565b9050919050565b6000819050919050565b614d5683614d21565b614d6a614d6282614d43565b848454614ccf565b825550505050565b600090565b614d7f614d72565b614d8a818484614d4d565b505050565b5b81811015614dae57614da3600082614d77565b600181019050614d90565b5050565b601f821115614df357614dc481614c9d565b614dcd84614cb2565b81016020851015614ddc578190505b614df0614de885614cb2565b830182614d8f565b50505b505050565b600082821c905092915050565b6000614e1660001984600802614df8565b1980831691505092915050565b6000614e2f8383614e05565b9150826002028217905092915050565b614e4882613def565b67ffffffffffffffff811115614e6157614e60613f20565b5b614e6b8254614a8d565b614e76828285614db2565b600060209050601f831160018114614ea95760008415614e97578287015190505b614ea18582614e23565b865550614f09565b601f198416614eb786614c9d565b60005b82811015614edf57848901518255600182019150602085019450602081019050614eba565b86831015614efc5784890151614ef8601f891682614e05565b8355505b6001600288020188555050505b505050505050565b600081519050919050565b600082825260208201905092915050565b6000819050602082019050919050565b6000614f498383613e46565b905092915050565b6000602082019050919050565b6000614f6982614f11565b614f738185614f1c565b935083602082028501614f8585614f2d565b8060005b85811015614fc15784840389528151614fa28582614f3d565b9450614fad83614f51565b925060208a01995050600181019050614f89565b50829750879550505050505092915050565b60006040820190508181036000830152614fed8185614f5e565b9050614ffc6020830184614262565b9392505050565b7f4f6e6c79206f776e65722063616e207365742077696e6e657200000000000000600082015250565b60006150396019836142f9565b915061504482615003565b602082019050919050565b600060208201905081810360008301526150688161502c565b9050919050565b7f4d61726b657420697320616c726561647920736574746c656400000000000000600082015250565b60006150a56019836142f9565b91506150b08261506f565b602082019050919050565b600060208201905081810360008301526150d481615098565b9050919050565b7f4f6e6c79206f776e65722063616e207365652074726561737572657200000000600082015250565b6000615111601c836142f9565b915061511c826150db565b602082019050919050565b6000602082019050818103600083015261514081615104565b9050919050565b7f4d75737420626520706f73697469766500000000000000000000000000000000600082015250565b600061517d6010836142f9565b915061518882615147565b602082019050919050565b600060208201905081810360008301526151ac81615170565b9050919050565b7f496e76616c6964206d61726b6574204944000000000000000000000000000000600082015250565b60006151e96011836142f9565b91506151f4826151b3565b602082019050919050565b60006020820190508181036000830152615218816151dc565b9050919050565b7f496e76616c6964206f7574636f6d6520696e6465780000000000000000000000600082015250565b60006152556015836142f9565b91506152608261521f565b602082019050919050565b6000602082019050818103600083015261528481615248565b9050919050565b7f4d61726b6574206973206e6f7420616374697665000000000000000000000000600082015250565b60006152c16014836142f9565b91506152cc8261528b565b602082019050919050565b600060208201905081810360008301526152f0816152b4565b9050919050565b600061530282613ca6565b915061530d83613ca6565b925082820390506fffffffffffffffffffffffffffffffff811115615335576153346147db565b5b92915050565b600061534682613ca6565b915061535183613ca6565b925082820261535f81613ca6565b9150808214615371576153706147db565b5b5092915050565b600061538382613ca6565b915061538e83613ca6565b92508261539e5761539d614880565b5b828204905092915050565b60006153b482613bed565b915063ffffffff82036153ca576153c96147db565b5b600182019050919050565b7f4d7573742068617665206e6f6e2d7a65726f2062616c616e6365730000000000600082015250565b600061540b601b836142f9565b9150615416826153d5565b602082019050919050565b6000602082019050818103600083015261543a816153fe565b9050919050565b600061544c82613ca6565b915061545783613ca6565b925082820190506fffffffffffffffffffffffffffffffff81111561547f5761547e6147db565b5b92915050565b7f4f6e6c79206f776e65722063616e2075706461746520646561646c696e650000600082015250565b60006154bb601e836142f9565b91506154c682615485565b602082019050919050565b600060208201905081810360008301526154ea816154ae565b9050919050565b7f4f6e6c79206f776e65722063616e2064697361626c65206d61726b6574000000600082015250565b6000615527601d836142f9565b9150615532826154f1565b602082019050919050565b600060208201905081810360008301526155568161551a565b9050919050565b7f4d61726b657420697320616c72656164792064697361626c6564000000000000600082015250565b6000615593601a836142f9565b915061559e8261555d565b602082019050919050565b600060208201905081810360008301526155c281615586565b9050919050565b7f4d61726b6574206973206e6f7420736574746c65640000000000000000000000600082015250565b60006155ff6015836142f9565b915061560a826155c9565b602082019050919050565b6000602082019050818103600083015261562e816155f2565b9050919050565b7f4f7574636f6d65206973206e6f7420612077696e6e6572000000000000000000600082015250565b600061566b6017836142f9565b915061567682615635565b602082019050919050565b6000602082019050818103600083015261569a8161565e565b9050919050565b7f4e6f2062616c616e636520746f20636c61696d00000000000000000000000000600082015250565b60006156d76013836142f9565b91506156e2826156a1565b602082019050919050565b60006020820190508181036000830152615706816156ca565b9050919050565b600061571882613bed565b915061572383613bed565b9250828203905063ffffffff81111561573f5761573e6147db565b5b92915050565b600081905092915050565b50565b6000615760600083615745565b915061576b82615750565b600082019050919050565b600061578182615753565b9150819050919050565b7f5472616e73666572206661696c65640000000000000000000000000000000000600082015250565b60006157c1600f836142f9565b91506157cc8261578b565b602082019050919050565b600060208201905081810360008301526157f0816157b4565b9050919050565b600061580282613bb7565b91507fffffffffffffffffffffffffffffffffffffffffffffffffffffffffffffffff8203615834576158336147db565b5b600182019050919050565b7f496e766573746d656e74206d75737420626520706f7369746976650000000000600082015250565b6000615875601b836142f9565b91506158808261583f565b602082019050919050565b600060208201905081810360008301526158a481615868565b9050919050565b7f526563656976696e67206c657373207468616e20657870656374656400000000600082015250565b60006158e1601c836142f9565b91506158ec826158ab565b602082019050919050565b60006020820190508181036000830152615910816158d4565b9050919050565b7f46756e6473206d75737420626520706f73697469766500000000000000000000600082015250565b600061594d6016836142f9565b915061595882615917565b602082019050919050565b6000602082019050818103600083015261597c81615940565b9050919050565b7f43616e6e6f742072656d6f7665206d6f7265207468616e20706f6f6c00000000600082015250565b60006159b9601c836142f9565b91506159c482615983565b602082019050919050565b600060208201905081810360008301526159e8816159ac565b9050919050565b7f496e73756666696369656e742066756e64730000000000000000000000000000600082015250565b6000615a256012836142f9565b9150615a30826159ef565b602082019050919050565b60006020820190508181036000830152615a5481615a18565b9050919050565b7f52657175697265206e6f6e2d7a65726f2062616c616e63657300000000000000600082015250565b6000615a916019836142f9565b9150615a9c82615a5b565b602082019050919050565b60006020820190508181036000830152615ac081615a84565b9050919050565b7f496e73756666696369656e7420636f6e74726163742062616c616e6365000000600082015250565b6000615afd601d836142f9565b9150615b0882615ac7565b602082019050919050565b60006020820190508181036000830152615b2c81615af0565b9050919050565b6000604082019050615b486000830185614940565b615b556020830184613c7c565b9392505050565b60008160011c9050919050565b6000808291508390505b6001851115615bb357808604811115615b8f57615b8e6147db565b5b6001851615615b9e5780820291505b8081029050615bac85615b5c565b9450615b73565b94509492505050565b600082615bcc5760019050615c88565b81615bda5760009050615c88565b8160018114615bf05760028114615bfa57615c29565b6001915050615c88565b60ff841115615c0c57615c0b6147db565b5b8360020a915084821115615c2357615c226147db565b5b50615c88565b5060208310610133831016604e8410600b8410161715615c5e5782820a905083811115615c5957615c586147db565b5b615c88565b615c6b8484846001615b69565b92509050818404811115615c8257615c816147db565b5b81810290505b9392505050565b6000615c9a82613bb7565b9150615ca583613bb7565b9250615cd27fffffffffffffffffffffffffffffffffffffffffffffffffffffffffffffffff8484615bbc565b905092915050565b7f4f6e6c79206f776e65722063616e207365742074726561737572657200000000600082015250565b6000615d10601c836142f9565b9150615d1b82615cda565b602082019050919050565b60006020820190508181036000830152615d3f81615d03565b905091905056fea2646970667358221220c9e3779ade0c847c93961e2c64ecffa20f7d292a36fb1056d01c2b659045f80764736f6c634300081a0033",
  "linkReferences": {},
  "deployedLinkReferences": {}
}