{
  "_format": "hh-sol-artifact-1",
  "contractName": "FPMMMarket",
  "sourceName": "contracts/FPMM_market.sol",
  "abi": [
    {
      "inputs": [
        {
          "internalType": "uint32",
          "name": "_fee",
          "type": "uint32"
        }
      ],
      "stateMutability": "nonpayable",
      "type": "constructor"
    },
    {
      "anonymous": false,
      "inputs": [
        {
          "indexed": true,
          "internalType": "address",
          "name": "buyer",
          "type": "address"
        },
        {
          "indexed": false,
          "internalType": "uint128",
          "name": "investmentAmount",
          "type": "uint128"
        },
        {
          "indexed": false,
          "internalType": "uint32",
          "name": "outcomeIndex",
          "type": "uint32"
        },
        {
          "indexed": false,
          "internalType": "uint256",
          "name": "outcomeTokensBought",
          "type": "uint256"
        }
      ],
      "name": "FPMMBuy",
      "type": "event"
    },
    {
      "anonymous": false,
      "inputs": [
        {
          "indexed": true,
          "internalType": "address",
          "name": "funder",
          "type": "address"
        },
        {
          "indexed": false,
          "internalType": "uint256",
          "name": "amountsAdded",
          "type": "uint256"
        }
      ],
      "name": "FPMMFundingAdded",
      "type": "event"
    },
    {
      "anonymous": false,
      "inputs": [
        {
          "indexed": true,
          "internalType": "address",
          "name": "funder",
          "type": "address"
        },
        {
          "indexed": false,
          "internalType": "uint256",
          "name": "collateralRemovedFromFeePool",
          "type": "uint256"
        },
        {
          "indexed": false,
          "internalType": "uint256",
          "name": "amountsRemoved",
          "type": "uint256"
        }
      ],
      "name": "FPMMFundingRemoved",
      "type": "event"
    },
    {
      "anonymous": false,
      "inputs": [
        {
          "indexed": true,
          "internalType": "uint256",
          "name": "marketId",
          "type": "uint256"
        },
        {
          "indexed": false,
          "internalType": "string[]",
          "name": "outcomes",
          "type": "string[]"
        },
        {
          "indexed": false,
          "internalType": "uint128",
          "name": "deadline",
          "type": "uint128"
        }
      ],
      "name": "FPMMMarketInit",
      "type": "event"
    },
    {
      "anonymous": false,
      "inputs": [
        {
          "indexed": true,
          "internalType": "address",
          "name": "seller",
          "type": "address"
        },
        {
          "indexed": false,
          "internalType": "uint128",
          "name": "returnAmount",
          "type": "uint128"
        },
        {
          "indexed": false,
          "internalType": "uint32",
          "name": "outcomeIndex",
          "type": "uint32"
        },
        {
          "indexed": false,
          "internalType": "uint256",
          "name": "outcomeTokensSold",
          "type": "uint256"
        }
      ],
      "name": "FPMMSell",
      "type": "event"
    },
    {
      "inputs": [],
      "name": "addFunding",
      "outputs": [],
      "stateMutability": "payable",
      "type": "function"
    },
    {
      "inputs": [
        {
          "internalType": "uint256",
          "name": "",
          "type": "uint256"
        },
        {
          "internalType": "address",
          "name": "",
          "type": "address"
        },
        {
          "internalType": "uint32",
          "name": "",
          "type": "uint32"
        }
      ],
      "name": "balances",
      "outputs": [
        {
          "internalType": "uint256",
          "name": "",
          "type": "uint256"
        }
      ],
      "stateMutability": "view",
      "type": "function"
    },
    {
      "inputs": [
        {
          "internalType": "uint256",
          "name": "marketId",
          "type": "uint256"
        },
        {
          "internalType": "uint32",
          "name": "outcomeIndex",
          "type": "uint32"
        },
        {
          "internalType": "uint128",
          "name": "minOutcomeTokensToBuy",
          "type": "uint128"
        }
      ],
      "name": "buy",
      "outputs": [],
      "stateMutability": "payable",
      "type": "function"
    },
    {
      "inputs": [
        {
          "internalType": "uint256",
          "name": "marketId",
          "type": "uint256"
        },
        {
          "internalType": "uint128",
          "name": "investmentAmount",
          "type": "uint128"
        },
        {
          "internalType": "uint32",
          "name": "outcomeIndex",
          "type": "uint32"
        }
      ],
      "name": "calcBuyAmount",
      "outputs": [
        {
          "internalType": "uint128",
          "name": "",
          "type": "uint128"
        }
      ],
      "stateMutability": "view",
      "type": "function"
    },
    {
      "inputs": [
        {
          "internalType": "uint256",
          "name": "marketId",
          "type": "uint256"
        },
        {
          "internalType": "uint128",
          "name": "returnAmount",
          "type": "uint128"
        },
        {
          "internalType": "uint32",
          "name": "outcomeIndex",
          "type": "uint32"
        }
      ],
      "name": "calcSellAmount",
      "outputs": [
        {
          "internalType": "uint128",
          "name": "",
          "type": "uint128"
        }
      ],
      "stateMutability": "view",
      "type": "function"
    },
    {
      "inputs": [
        {
          "internalType": "uint256",
          "name": "marketId",
          "type": "uint256"
        },
        {
          "internalType": "uint32",
          "name": "outcomeIndex",
          "type": "uint32"
        }
      ],
      "name": "claimWinnings",
      "outputs": [],
      "stateMutability": "nonpayable",
      "type": "function"
    },
    {
      "inputs": [],
      "name": "collateralToken",
      "outputs": [
        {
          "internalType": "address",
          "name": "",
          "type": "address"
        }
      ],
      "stateMutability": "view",
      "type": "function"
    },
    {
      "inputs": [],
      "name": "currentLiquidity",
      "outputs": [
        {
          "internalType": "uint256",
          "name": "",
          "type": "uint256"
        }
      ],
      "stateMutability": "view",
      "type": "function"
    },
    {
      "inputs": [
        {
          "internalType": "uint256",
          "name": "marketId",
          "type": "uint256"
        }
      ],
      "name": "disableMarket",
      "outputs": [],
      "stateMutability": "nonpayable",
      "type": "function"
    },
    {
      "inputs": [],
      "name": "fee",
      "outputs": [
        {
          "internalType": "uint32",
          "name": "",
          "type": "uint32"
        }
      ],
      "stateMutability": "view",
      "type": "function"
    },
    {
      "inputs": [],
      "name": "feesAccrued",
      "outputs": [
        {
          "internalType": "uint256",
          "name": "",
          "type": "uint256"
        }
      ],
      "stateMutability": "view",
      "type": "function"
    },
    {
      "inputs": [
        {
          "internalType": "address",
          "name": "account",
          "type": "address"
        }
      ],
      "name": "feesWithdrawableBy",
      "outputs": [
        {
          "internalType": "uint256",
          "name": "",
          "type": "uint256"
        }
      ],
      "stateMutability": "view",
      "type": "function"
    },
    {
      "inputs": [],
      "name": "getCollateralToken",
      "outputs": [
        {
          "internalType": "address",
          "name": "",
          "type": "address"
        }
      ],
      "stateMutability": "view",
      "type": "function"
    },
    {
      "inputs": [],
      "name": "getFee",
      "outputs": [
        {
          "internalType": "uint32",
          "name": "",
          "type": "uint32"
        }
      ],
      "stateMutability": "view",
      "type": "function"
    },
    {
      "inputs": [
        {
          "internalType": "uint256",
          "name": "marketId",
          "type": "uint256"
        }
      ],
      "name": "getMarket",
      "outputs": [
        {
          "components": [
            {
              "internalType": "uint32",
              "name": "numOutcomes",
              "type": "uint32"
            },
            {
              "internalType": "uint128",
              "name": "deadline",
              "type": "uint128"
            },
            {
              "internalType": "bool",
              "name": "isActive",
              "type": "bool"
            },
            {
              "internalType": "bool",
              "name": "isSettled",
              "type": "bool"
            }
          ],
          "internalType": "struct FPMMStructs.FPMMMarket",
          "name": "",
          "type": "tuple"
        }
      ],
      "stateMutability": "view",
      "type": "function"
    },
    {
      "inputs": [],
      "name": "getNumMarkets",
      "outputs": [
        {
          "internalType": "uint256",
          "name": "",
          "type": "uint256"
        }
      ],
      "stateMutability": "view",
      "type": "function"
    },
    {
      "inputs": [
        {
          "internalType": "uint256",
          "name": "marketId",
          "type": "uint256"
        },
        {
          "internalType": "uint32",
          "name": "outcomeIndex",
          "type": "uint32"
        }
      ],
      "name": "getOutcome",
      "outputs": [
        {
          "components": [
            {
              "internalType": "string",
              "name": "name",
              "type": "string"
            },
            {
              "internalType": "uint128",
              "name": "numSharesInPool",
              "type": "uint128"
            },
            {
              "internalType": "bool",
              "name": "winner",
              "type": "bool"
            }
          ],
          "internalType": "struct FPMMStructs.Outcome",
          "name": "",
          "type": "tuple"
        }
      ],
      "stateMutability": "view",
      "type": "function"
    },
    {
      "inputs": [],
      "name": "getTreasury",
      "outputs": [
        {
          "internalType": "address",
          "name": "",
          "type": "address"
        }
      ],
      "stateMutability": "view",
      "type": "function"
    },
    {
      "inputs": [
        {
          "internalType": "address",
          "name": "user",
          "type": "address"
        }
      ],
      "name": "getUserBalance",
      "outputs": [
        {
          "internalType": "uint256",
          "name": "",
          "type": "uint256"
        }
      ],
      "stateMutability": "view",
      "type": "function"
    },
    {
      "inputs": [
        {
          "internalType": "address",
          "name": "user",
          "type": "address"
        },
        {
          "internalType": "uint256",
          "name": "marketId",
          "type": "uint256"
        },
        {
          "internalType": "uint32",
          "name": "outcomeIndex",
          "type": "uint32"
        }
      ],
      "name": "getUserMarketShare",
      "outputs": [
        {
          "internalType": "uint256",
          "name": "",
          "type": "uint256"
        }
      ],
      "stateMutability": "view",
      "type": "function"
    },
    {
      "inputs": [
        {
          "internalType": "string[]",
          "name": "outcomeNames",
          "type": "string[]"
        },
        {
          "internalType": "uint128",
          "name": "deadline",
          "type": "uint128"
        }
      ],
      "name": "initMarket",
      "outputs": [],
      "stateMutability": "nonpayable",
      "type": "function"
    },
    {
      "inputs": [
        {
          "internalType": "address",
          "name": "",
          "type": "address"
        }
      ],
      "name": "liquidityBalance",
      "outputs": [
        {
          "internalType": "uint256",
          "name": "",
          "type": "uint256"
        }
      ],
      "stateMutability": "view",
      "type": "function"
    },
    {
      "inputs": [],
      "name": "liquidityPool",
      "outputs": [
        {
          "internalType": "uint256",
          "name": "",
          "type": "uint256"
        }
      ],
      "stateMutability": "view",
      "type": "function"
    },
    {
      "inputs": [
        {
          "internalType": "uint256",
          "name": "",
          "type": "uint256"
        }
      ],
      "name": "markets",
      "outputs": [
        {
          "internalType": "uint32",
          "name": "numOutcomes",
          "type": "uint32"
        },
        {
          "internalType": "uint128",
          "name": "deadline",
          "type": "uint128"
        },
        {
          "internalType": "bool",
          "name": "isActive",
          "type": "bool"
        },
        {
          "internalType": "bool",
          "name": "isSettled",
          "type": "bool"
        }
      ],
      "stateMutability": "view",
      "type": "function"
    },
    {
      "inputs": [],
      "name": "numMarkets",
      "outputs": [
        {
          "internalType": "uint256",
          "name": "",
          "type": "uint256"
        }
      ],
      "stateMutability": "view",
      "type": "function"
    },
    {
      "inputs": [
        {
          "internalType": "uint256",
          "name": "",
          "type": "uint256"
        },
        {
          "internalType": "uint32",
          "name": "",
          "type": "uint32"
        }
      ],
      "name": "outcomes",
      "outputs": [
        {
          "internalType": "string",
          "name": "name",
          "type": "string"
        },
        {
          "internalType": "uint128",
          "name": "numSharesInPool",
          "type": "uint128"
        },
        {
          "internalType": "bool",
          "name": "winner",
          "type": "bool"
        }
      ],
      "stateMutability": "view",
      "type": "function"
    },
    {
      "inputs": [],
      "name": "owner",
      "outputs": [
        {
          "internalType": "address",
          "name": "",
          "type": "address"
        }
      ],
      "stateMutability": "view",
      "type": "function"
    },
    {
      "inputs": [
        {
          "internalType": "uint128",
          "name": "fundsToRemove",
          "type": "uint128"
        }
      ],
      "name": "removeFunding",
      "outputs": [],
      "stateMutability": "payable",
      "type": "function"
    },
    {
      "inputs": [
        {
          "internalType": "uint256",
          "name": "marketId",
          "type": "uint256"
        },
        {
          "internalType": "uint128",
          "name": "returnAmount",
          "type": "uint128"
        },
        {
          "internalType": "uint32",
          "name": "outcomeIndex",
          "type": "uint32"
        },
        {
          "internalType": "uint128",
          "name": "maxOutcomeTokensToSell",
          "type": "uint128"
        }
      ],
      "name": "sell",
      "outputs": [],
      "stateMutability": "nonpayable",
      "type": "function"
    },
    {
      "inputs": [
        {
          "internalType": "uint32",
          "name": "_fee",
          "type": "uint32"
        }
      ],
      "name": "setFee",
      "outputs": [],
      "stateMutability": "nonpayable",
      "type": "function"
    },
    {
      "inputs": [
        {
          "internalType": "uint256",
          "name": "marketId",
          "type": "uint256"
        },
        {
          "internalType": "uint32",
          "name": "outcomeIndex",
          "type": "uint32"
        }
      ],
      "name": "setMarketWinner",
      "outputs": [],
      "stateMutability": "nonpayable",
      "type": "function"
    },
    {
      "inputs": [
        {
          "internalType": "uint32",
          "name": "_fee",
          "type": "uint32"
        }
      ],
      "name": "setTreasurerFee",
      "outputs": [],
      "stateMutability": "nonpayable",
      "type": "function"
    },
    {
      "inputs": [
        {
          "internalType": "address",
          "name": "treasurer",
          "type": "address"
        }
      ],
      "name": "setTreasury",
      "outputs": [],
      "stateMutability": "nonpayable",
      "type": "function"
    },
    {
      "inputs": [
        {
          "internalType": "uint256",
          "name": "marketId",
          "type": "uint256"
        },
        {
          "internalType": "uint32",
          "name": "outcomeIndex",
          "type": "uint32"
        }
      ],
      "name": "setWinner",
      "outputs": [],
      "stateMutability": "nonpayable",
      "type": "function"
    },
    {
      "inputs": [],
      "name": "treasuryFee",
      "outputs": [
        {
          "internalType": "uint32",
          "name": "",
          "type": "uint32"
        }
      ],
      "stateMutability": "view",
      "type": "function"
    },
    {
      "inputs": [],
      "name": "treasuryWallet",
      "outputs": [
        {
          "internalType": "address",
          "name": "",
          "type": "address"
        }
      ],
      "stateMutability": "view",
      "type": "function"
    },
    {
      "inputs": [
        {
          "internalType": "uint256",
          "name": "marketId",
          "type": "uint256"
        },
        {
          "internalType": "uint128",
          "name": "deadline",
          "type": "uint128"
        }
      ],
      "name": "updateDeadline",
      "outputs": [],
      "stateMutability": "nonpayable",
      "type": "function"
    }
  ],
  "bytecode": "0x608060405234801561001057600080fd5b5060405161551c38038061551c833981810160405281019061003291906100db565b80600260006101000a81548163ffffffff021916908363ffffffff16021790555033600560006101000a81548173ffffffffffffffffffffffffffffffffffffffff021916908373ffffffffffffffffffffffffffffffffffffffff16021790555050610108565b600080fd5b600063ffffffff82169050919050565b6100b88161009f565b81146100c357600080fd5b50565b6000815190506100d5816100af565b92915050565b6000602082840312156100f1576100f061009a565b5b60006100ff848285016100c6565b91505092915050565b615405806101176000396000f3fe60806040526004361061021a5760003560e01c80635dc48d8e11610123578063c392b9a6116100ab578063ddca3f431161006f578063ddca3f43146107f8578063dfef009414610823578063eb44fdd31461083f578063f0f442601461087c578063f244244f146108a55761021a565b8063c392b9a61461070c578063c86df02914610749578063cc32d17614610765578063ced72f8714610790578063dd296480146107bb5761021a565b806394db0595116100f257806394db05951461060c57806396423663146106375780639ecabe9714610662578063b1283e77146106a1578063b2016bd4146106e15761021a565b80635dc48d8e14610564578063665a11ca1461058d578063794da9cc146105b85780638da5cb5b146105e15761021a565b80633064c8b0116101a657806346caf2ae1161017557806346caf2ae1461046d57806347734892146104985780634ac4e727146104d55780634f5fa3f714610512578063565c17141461053b5761021a565b80633064c8b0146103b157806335a0ca93146103ee5780633b19e84a146104175780634626402b146104425761021a565b80631ab971ab116101ed5780631ab971ab146102cc57806326e04f9d146102f5578063295c39a5146103205780632b38fe621461034b5780632c381775146103885761021a565b806306ba86181461021f5780630f2539e01461025c57806313dce9381461028557806316dbd7761461028f575b600080fd5b34801561022b57600080fd5b50610246600480360381019061024191906136e9565b6108ce565b604051610253919061374b565b60405180910390f35b34801561026857600080fd5b50610283600480360381019061027e91906137ae565b610947565b005b61028d610c73565b005b34801561029b57600080fd5b506102b660048036038101906102b19190613815565b610d75565b6040516102c3919061374b565b60405180910390f35b3480156102d857600080fd5b506102f360048036038101906102ee9190613842565b610e27565b005b34801561030157600080fd5b5061030a610edb565b604051610317919061374b565b60405180910390f35b34801561032c57600080fd5b50610335610ee1565b604051610342919061374b565b60405180910390f35b34801561035757600080fd5b50610372600480360381019061036d919061386f565b610eeb565b60405161037f91906139b9565b60405180910390f35b34801561039457600080fd5b506103af60048036038101906103aa9190613bf6565b61102d565b005b3480156103bd57600080fd5b506103d860048036038101906103d39190613c52565b611406565b6040516103e5919061374b565b60405180910390f35b3480156103fa57600080fd5b506104156004803603810190610410919061386f565b611438565b005b34801561042357600080fd5b5061042c611609565b6040516104399190613cb4565b60405180910390f35b34801561044e57600080fd5b506104576116c3565b6040516104649190613cb4565b60405180910390f35b34801561047957600080fd5b506104826116e9565b60405161048f919061374b565b60405180910390f35b3480156104a457600080fd5b506104bf60048036038101906104ba9190613815565b6116f3565b6040516104cc919061374b565b60405180910390f35b3480156104e157600080fd5b506104fc60048036038101906104f79190613ccf565b61173c565b6040516105099190613d31565b60405180910390f35b34801561051e57600080fd5b5061053960048036038101906105349190613d4c565b611a9f565b005b34801561054757600080fd5b50610562600480360381019061055d9190613d8c565b611c7d565b005b34801561057057600080fd5b5061058b60048036038101906105869190613842565b611d96565b005b34801561059957600080fd5b506105a2611e4a565b6040516105af919061374b565b60405180910390f35b3480156105c457600080fd5b506105df60048036038101906105da919061386f565b611e50565b005b3480156105ed57600080fd5b506105f661215a565b6040516106039190613cb4565b60405180910390f35b34801561061857600080fd5b50610621612180565b60405161062e919061374b565b60405180910390f35b34801561064357600080fd5b5061064c612186565b6040516106599190613cb4565b60405180910390f35b34801561066e57600080fd5b506106896004803603810190610684919061386f565b6121af565b60405161069893929190613e12565b60405180910390f35b3480156106ad57600080fd5b506106c860048036038101906106c39190613d8c565b612297565b6040516106d89493929190613e5f565b60405180910390f35b3480156106ed57600080fd5b506106f661230d565b6040516107039190613cb4565b60405180910390f35b34801561071857600080fd5b50610733600480360381019061072e9190613ccf565b612331565b6040516107409190613d31565b60405180910390f35b610763600480360381019061075e9190613ea4565b6126d4565b005b34801561077157600080fd5b5061077a6129ce565b6040516107879190613ef7565b60405180910390f35b34801561079c57600080fd5b506107a56129e4565b6040516107b29190613ef7565b60405180910390f35b3480156107c757600080fd5b506107e260048036038101906107dd9190613815565b6129fe565b6040516107ef919061374b565b60405180910390f35b34801561080457600080fd5b5061080d612a16565b60405161081a9190613ef7565b60405180910390f35b61083d60048036038101906108389190613f12565b612a2c565b005b34801561084b57600080fd5b5061086660048036038101906108619190613d8c565b612d06565b6040516108739190613fa3565b60405180910390f35b34801561088857600080fd5b506108a3600480360381019061089e9190613815565b612dd9565b005b3480156108b157600080fd5b506108cc60048036038101906108c7919061386f565b612ead565b005b60006009600084815260200190815260200160002060008573ffffffffffffffffffffffffffffffffffffffff1673ffffffffffffffffffffffffffffffffffffffff16815260200190815260200160002060008363ffffffff1663ffffffff1681526020019081526020016000205490509392505050565b600061095485858561173c565b9050816fffffffffffffffffffffffffffffffff16816fffffffffffffffffffffffffffffffff1611156109bd576040517f08c379a00000000000000000000000000000000000000000000000000000000081526004016109b49061400a565b60405180910390fd5b6009600086815260200190815260200160002060003373ffffffffffffffffffffffffffffffffffffffff1673ffffffffffffffffffffffffffffffffffffffff16815260200190815260200160002060008463ffffffff1663ffffffff16815260200190815260200160002054816fffffffffffffffffffffffffffffffff161115610a7f576040517f08c379a0000000000000000000000000000000000000000000000000000000008152600401610a7690614076565b60405180910390fd5b806fffffffffffffffffffffffffffffffff166009600087815260200190815260200160002060003373ffffffffffffffffffffffffffffffffffffffff1673ffffffffffffffffffffffffffffffffffffffff16815260200190815260200160002060008563ffffffff1663ffffffff1681526020019081526020016000206000828254610b0e91906140c5565b925050819055506064600260009054906101000a900463ffffffff1663ffffffff1685610b3b91906140f9565b610b459190614165565b6fffffffffffffffffffffffffffffffff1660046000828254610b689190614196565b9250508190555060006064600260009054906101000a900463ffffffff1663ffffffff1686610b9791906140f9565b610ba19190614165565b85610bac91906141ca565b9050610bc06007600a8884888760006130d5565b3373ffffffffffffffffffffffffffffffffffffffff166108fc866fffffffffffffffffffffffffffffffff169081150290604051600060405180830381858888f19350505050158015610c18573d6000803e3d6000fd5b503373ffffffffffffffffffffffffffffffffffffffff167fd119a55f8addb8a2ff33c692b1d13c26a766c3f16aee9126a733534d47aa81c2868685604051610c6393929190614249565b60405180910390a2505050505050565b60003411610cb6576040517f08c379a0000000000000000000000000000000000000000000000000000000008152600401610cad906142cc565b60405180910390fd5b34600860003373ffffffffffffffffffffffffffffffffffffffff1673ffffffffffffffffffffffffffffffffffffffff1681526020019081526020016000206000828254610d059190614196565b925050819055503460036000828254610d1e9190614196565b925050819055503373ffffffffffffffffffffffffffffffffffffffff167f7ebb51c69763e72edc59161ffe7e6c51ab52010637c6d4e8ca433f5b43c876cb34604051610d6b919061374b565b60405180910390a2565b600080600354600860008573ffffffffffffffffffffffffffffffffffffffff1673ffffffffffffffffffffffffffffffffffffffff16815260200190815260200160002054600454610dc891906142ec565b610dd2919061432e565b9050600860008473ffffffffffffffffffffffffffffffffffffffff1673ffffffffffffffffffffffffffffffffffffffff1681526020019081526020016000205481610e1f9190614196565b915050919050565b600560009054906101000a900473ffffffffffffffffffffffffffffffffffffffff1673ffffffffffffffffffffffffffffffffffffffff163373ffffffffffffffffffffffffffffffffffffffff1614610eb7576040517f08c379a0000000000000000000000000000000000000000000000000000000008152600401610eae906143ab565b60405180910390fd5b80600260006101000a81548163ffffffff021916908363ffffffff16021790555050565b60015481565b6000600154905090565b610ef361358c565b600a600084815260200190815260200160002060008363ffffffff1663ffffffff168152602001908152602001600020604051806060016040529081600082018054610f3e906143fa565b80601f0160208091040260200160405190810160405280929190818152602001828054610f6a906143fa565b8015610fb75780601f10610f8c57610100808354040283529160200191610fb7565b820191906000526020600020905b815481529060010190602001808311610f9a57829003601f168201915b505050505081526020016001820160009054906101000a90046fffffffffffffffffffffffffffffffff166fffffffffffffffffffffffffffffffff166fffffffffffffffffffffffffffffffff1681526020016001820160109054906101000a900460ff161515151581525050905092915050565b6000825111611071576040517f08c379a000000000000000000000000000000000000000000000000000000000815260040161106890614477565b60405180910390fd5b610100825111156110b7576040517f08c379a00000000000000000000000000000000000000000000000000000000081526004016110ae906144e3565b60405180910390fd5b42816fffffffffffffffffffffffffffffffff161161110b576040517f08c379a00000000000000000000000000000000000000000000000000000000081526004016111029061454f565b60405180910390fd5b6000600354905060008111611155576040517f08c379a000000000000000000000000000000000000000000000000000000000815260040161114c906145bb565b60405180910390fd5b6000600180546111659190614196565b905080600181905550600084519050600060405180608001604052808363ffffffff168152602001866fffffffffffffffffffffffffffffffff168152602001600115158152602001600015158152509050806007600085815260200190815260200160002060008201518160000160006101000a81548163ffffffff021916908363ffffffff16021790555060208201518160000160046101000a8154816fffffffffffffffffffffffffffffffff02191690836fffffffffffffffffffffffffffffffff16021790555060408201518160000160146101000a81548160ff02191690831515021790555060608201518160000160156101000a81548160ff02191690831515021790555090505060008263ffffffff1664174876e800600a87611290919061432e565b61129a919061432e565b6112a4919061432e565b905060005b8363ffffffff168163ffffffff1610156113c2576040518060600160405280898363ffffffff16815181106112e1576112e06145db565b5b60200260200101518152602001836fffffffffffffffffffffffffffffffff16815260200160001515815250600a600087815260200190815260200160002060008363ffffffff1663ffffffff168152602001908152602001600020600082015181600001908161135291906147ac565b5060208201518160010160006101000a8154816fffffffffffffffffffffffffffffffff02191690836fffffffffffffffffffffffffffffffff16021790555060408201518160010160106101000a81548160ff02191690831515021790555090505080806001019150506112a9565b50837f413a0255d79470114fc16c403c7e791ea572bf8776a21aea08820e65201936f288886040516113f5929190614940565b60405180910390a250505050505050565b600960205282600052604060002060205281600052604060002060205280600052604060002060009250925050505481565b600560009054906101000a900473ffffffffffffffffffffffffffffffffffffffff1673ffffffffffffffffffffffffffffffffffffffff163373ffffffffffffffffffffffffffffffffffffffff16146114c8576040517f08c379a00000000000000000000000000000000000000000000000000000000081526004016114bf906149bc565b60405180910390fd5b60006007600084815260200190815260200160002090508060000160159054906101000a900460ff1615611531576040517f08c379a000000000000000000000000000000000000000000000000000000000815260040161152890614a28565b60405180910390fd5b60005b8160000160009054906101000a900463ffffffff1663ffffffff168163ffffffff1610156115c9578263ffffffff168163ffffffff16036115bc576001600a600086815260200190815260200160002060008363ffffffff1663ffffffff16815260200190815260200160002060010160106101000a81548160ff0219169083151502179055505b8080600101915050611534565b5060008160000160146101000a81548160ff02191690831515021790555060018160000160156101000a81548160ff021916908315150217905550505050565b6000600560009054906101000a900473ffffffffffffffffffffffffffffffffffffffff1673ffffffffffffffffffffffffffffffffffffffff163373ffffffffffffffffffffffffffffffffffffffff161461169b576040517f08c379a000000000000000000000000000000000000000000000000000000000815260040161169290614a94565b60405180910390fd5b600660009054906101000a900473ffffffffffffffffffffffffffffffffffffffff16905090565b600660009054906101000a900473ffffffffffffffffffffffffffffffffffffffff1681565b6000600354905090565b6000600860008373ffffffffffffffffffffffffffffffffffffffff1673ffffffffffffffffffffffffffffffffffffffff168152602001908152602001600020549050919050565b600080836fffffffffffffffffffffffffffffffff1611611792576040517f08c379a000000000000000000000000000000000000000000000000000000000815260040161178990614b00565b60405180910390fd5b6001548411156117d7576040517f08c379a00000000000000000000000000000000000000000000000000000000081526004016117ce90614b6c565b60405180910390fd5b60006007600086815260200190815260200160002090508060000160009054906101000a900463ffffffff1663ffffffff168363ffffffff1610611850576040517f08c379a000000000000000000000000000000000000000000000000000000000815260040161184790614bd8565b60405180910390fd5b8060000160149054906101000a900460ff166118a1576040517f08c379a000000000000000000000000000000000000000000000000000000000815260040161189890614c44565b60405180910390fd5b8060000160159054906101000a900460ff16156118f3576040517f08c379a00000000000000000000000000000000000000000000000000000000081526004016118ea90614a28565b60405180910390fd5b60006119026007600a8861339b565b905060006064600260009054906101000a900463ffffffff1663ffffffff168761192c91906140f9565b6119369190614165565b8661194191906141ca565b90506000828663ffffffff168151811061195e5761195d6145db565b5b6020026020010151905060005b83518163ffffffff161015611a05578663ffffffff168163ffffffff16146119f25782848263ffffffff16815181106119a7576119a66145db565b5b60200260200101516119b991906141ca565b848263ffffffff16815181106119d2576119d16145db565b5b6020026020010151836119e591906140f9565b6119ef9190614165565b91505b80806119fd90614c64565b91505061196b565b506000816fffffffffffffffffffffffffffffffff1611611a5b576040517f08c379a0000000000000000000000000000000000000000000000000000000008152600401611a5290614cdc565b60405180910390fd5b828663ffffffff1681518110611a7457611a736145db565b5b60200260200101518183611a889190614cfc565b611a9291906141ca565b9450505050509392505050565b600560009054906101000a900473ffffffffffffffffffffffffffffffffffffffff1673ffffffffffffffffffffffffffffffffffffffff163373ffffffffffffffffffffffffffffffffffffffff1614611b2f576040517f08c379a0000000000000000000000000000000000000000000000000000000008152600401611b2690614d8c565b60405180910390fd5b60006007600084815260200190815260200160002090508060000160149054906101000a900460ff16611b97576040517f08c379a0000000000000000000000000000000000000000000000000000000008152600401611b8e90614c44565b60405180910390fd5b8060000160159054906101000a900460ff1615611be9576040517f08c379a0000000000000000000000000000000000000000000000000000000008152600401611be090614a28565b60405180910390fd5b42826fffffffffffffffffffffffffffffffff1611611c3d576040517f08c379a0000000000000000000000000000000000000000000000000000000008152600401611c349061454f565b60405180910390fd5b818160000160046101000a8154816fffffffffffffffffffffffffffffffff02191690836fffffffffffffffffffffffffffffffff160217905550505050565b600560009054906101000a900473ffffffffffffffffffffffffffffffffffffffff1673ffffffffffffffffffffffffffffffffffffffff163373ffffffffffffffffffffffffffffffffffffffff1614611d0d576040517f08c379a0000000000000000000000000000000000000000000000000000000008152600401611d0490614df8565b60405180910390fd5b60006007600083815260200190815260200160002090508060000160149054906101000a900460ff16611d75576040517f08c379a0000000000000000000000000000000000000000000000000000000008152600401611d6c90614e64565b60405180910390fd5b60008160000160146101000a81548160ff0219169083151502179055505050565b600560009054906101000a900473ffffffffffffffffffffffffffffffffffffffff1673ffffffffffffffffffffffffffffffffffffffff163373ffffffffffffffffffffffffffffffffffffffff1614611e26576040517f08c379a0000000000000000000000000000000000000000000000000000000008152600401611e1d906143ab565b60405180910390fd5b80600660146101000a81548163ffffffff021916908363ffffffff16021790555050565b60035481565b60006007600084815260200190815260200160002090508060000160159054906101000a900460ff16611eb8576040517f08c379a0000000000000000000000000000000000000000000000000000000008152600401611eaf90614ed0565b60405180910390fd5b6000600a600085815260200190815260200160002060008463ffffffff1663ffffffff16815260200190815260200160002090508060010160109054906101000a900460ff16611f3d576040517f08c379a0000000000000000000000000000000000000000000000000000000008152600401611f3490614f3c565b60405180910390fd5b60006009600086815260200190815260200160002060003373ffffffffffffffffffffffffffffffffffffffff1673ffffffffffffffffffffffffffffffffffffffff16815260200190815260200160002060008563ffffffff1663ffffffff16815260200190815260200160002054905060008111611ff2576040517f08c379a0000000000000000000000000000000000000000000000000000000008152600401611fe990614fa8565b60405180910390fd5b60006064600260009054906101000a900463ffffffff1660646120159190614fc8565b63ffffffff168361202691906142ec565b612030919061432e565b905060006009600088815260200190815260200160002060003373ffffffffffffffffffffffffffffffffffffffff1673ffffffffffffffffffffffffffffffffffffffff16815260200190815260200160002060008763ffffffff1663ffffffff1681526020019081526020016000208190555060003373ffffffffffffffffffffffffffffffffffffffff16826040516120cb90615031565b60006040518083038185875af1925050503d8060008114612108576040519150601f19603f3d011682016040523d82523d6000602084013e61210d565b606091505b5050905080612151576040517f08c379a000000000000000000000000000000000000000000000000000000000815260040161214890615092565b60405180910390fd5b50505050505050565b600560009054906101000a900473ffffffffffffffffffffffffffffffffffffffff1681565b60045481565b60008060009054906101000a900473ffffffffffffffffffffffffffffffffffffffff16905090565b600a602052816000526040600020602052806000526040600020600091509150508060000180546121df906143fa565b80601f016020809104026020016040519081016040528092919081815260200182805461220b906143fa565b80156122585780601f1061222d57610100808354040283529160200191612258565b820191906000526020600020905b81548152906001019060200180831161223b57829003601f168201915b5050505050908060010160009054906101000a90046fffffffffffffffffffffffffffffffff16908060010160109054906101000a900460ff16905083565b60076020528060005260406000206000915090508060000160009054906101000a900463ffffffff16908060000160049054906101000a90046fffffffffffffffffffffffffffffffff16908060000160149054906101000a900460ff16908060000160159054906101000a900460ff16905084565b60008054906101000a900473ffffffffffffffffffffffffffffffffffffffff1681565b600080836fffffffffffffffffffffffffffffffff1611612387576040517f08c379a000000000000000000000000000000000000000000000000000000000815260040161237e906150fe565b60405180910390fd5b6001548411156123cc576040517f08c379a00000000000000000000000000000000000000000000000000000000081526004016123c390614b6c565b60405180910390fd5b60006007600086815260200190815260200160002090508060000160009054906101000a900463ffffffff1663ffffffff168363ffffffff1610612445576040517f08c379a000000000000000000000000000000000000000000000000000000000815260040161243c90614bd8565b60405180910390fd5b8060000160149054906101000a900460ff16612496576040517f08c379a000000000000000000000000000000000000000000000000000000000815260040161248d90614c44565b60405180910390fd5b8060000160159054906101000a900460ff16156124e8576040517f08c379a00000000000000000000000000000000000000000000000000000000081526004016124df90614a28565b60405180910390fd5b60006124f76007600a8861339b565b905060006064600660149054906101000a900463ffffffff1663ffffffff168761252191906140f9565b61252b9190614165565b6064600260009054906101000a900463ffffffff1663ffffffff168861255191906140f9565b61255b9190614165565b8761256691906141ca565b61257091906141ca565b90506000828663ffffffff168151811061258d5761258c6145db565b5b6020026020010151905060005b83518163ffffffff161015612634578663ffffffff168163ffffffff16146126215782848263ffffffff16815181106125d6576125d56145db565b5b60200260200101516125e89190614cfc565b848263ffffffff1681518110612601576126006145db565b5b60200260200101518361261491906140f9565b61261e9190614165565b91505b808061262c90614c64565b91505061259a565b506000816fffffffffffffffffffffffffffffffff161161268a576040517f08c379a000000000000000000000000000000000000000000000000000000000815260040161268190614cdc565b60405180910390fd5b60008183858963ffffffff16815181106126a7576126a66145db565b5b60200260200101516126b99190614cfc565b6126c391906141ca565b905080955050505050509392505050565b600034905060006126e6858386612331565b9050826fffffffffffffffffffffffffffffffff16816fffffffffffffffffffffffffffffffff16101561274f576040517f08c379a00000000000000000000000000000000000000000000000000000000081526004016127469061516a565b60405180910390fd5b6064600260009054906101000a900463ffffffff1663ffffffff168361277591906140f9565b61277f9190614165565b6fffffffffffffffffffffffffffffffff16600460008282546127a29190614196565b92505081905550600660009054906101000a900473ffffffffffffffffffffffffffffffffffffffff1673ffffffffffffffffffffffffffffffffffffffff166108fc6064600660149054906101000a900463ffffffff1663ffffffff168561280b91906140f9565b6128159190614165565b6fffffffffffffffffffffffffffffffff169081150290604051600060405180830381858888f19350505050158015612852573d6000803e3d6000fd5b5060006064600660149054906101000a900463ffffffff1663ffffffff168461287b91906140f9565b6128859190614165565b6064600260009054906101000a900463ffffffff1663ffffffff16856128ab91906140f9565b6128b59190614165565b846128c091906141ca565b6128ca91906141ca565b90506128de6007600a8884898760016130d5565b816fffffffffffffffffffffffffffffffff166009600088815260200190815260200160002060003373ffffffffffffffffffffffffffffffffffffffff1673ffffffffffffffffffffffffffffffffffffffff16815260200190815260200160002060008763ffffffff1663ffffffff168152602001908152602001600020600082825461296d9190614196565b925050819055503373ffffffffffffffffffffffffffffffffffffffff167f285fd84012d60ebf3e087ae762bc6298ae35d7dbe0a659a56dd670656c17e6568487856040516129be93929190614249565b60405180910390a2505050505050565b600660149054906101000a900463ffffffff1681565b6000600260009054906101000a900463ffffffff16905090565b60086020528060005260406000206000915090505481565b600260009054906101000a900463ffffffff1681565b6000816fffffffffffffffffffffffffffffffff1611612a81576040517f08c379a0000000000000000000000000000000000000000000000000000000008152600401612a78906151d6565b60405180910390fd5b47816fffffffffffffffffffffffffffffffff161115612ad6576040517f08c379a0000000000000000000000000000000000000000000000000000000008152600401612acd90615242565b60405180910390fd5b806fffffffffffffffffffffffffffffffff16600860003373ffffffffffffffffffffffffffffffffffffffff1673ffffffffffffffffffffffffffffffffffffffff168152602001908152602001600020541015612b6a576040517f08c379a0000000000000000000000000000000000000000000000000000000008152600401612b61906152ae565b60405180910390fd5b600047826fffffffffffffffffffffffffffffffff16600454612b8d91906142ec565b612b97919061432e565b90506000612ba433610d75565b905060008111612be9576040517f08c379a0000000000000000000000000000000000000000000000000000000008152600401612be09061531a565b60405180910390fd5b3373ffffffffffffffffffffffffffffffffffffffff166108fc829081150290604051600060405180830381858888f19350505050158015612c2f573d6000803e3d6000fd5b508160046000828254612c4291906140c5565b92505081905550826fffffffffffffffffffffffffffffffff16600860003373ffffffffffffffffffffffffffffffffffffffff1673ffffffffffffffffffffffffffffffffffffffff1681526020019081526020016000206000828254612caa91906140c5565b925050819055503373ffffffffffffffffffffffffffffffffffffffff167f8338d96d1ac03fc732036bb25b1469d0568ef83e329cc80df18ec1b705c6fa1d8484604051612cf992919061533a565b60405180910390a2505050565b612d0e6135c1565b600760008381526020019081526020016000206040518060800160405290816000820160009054906101000a900463ffffffff1663ffffffff1663ffffffff1681526020016000820160049054906101000a90046fffffffffffffffffffffffffffffffff166fffffffffffffffffffffffffffffffff166fffffffffffffffffffffffffffffffff1681526020016000820160149054906101000a900460ff161515151581526020016000820160159054906101000a900460ff1615151515815250509050919050565b600560009054906101000a900473ffffffffffffffffffffffffffffffffffffffff1673ffffffffffffffffffffffffffffffffffffffff163373ffffffffffffffffffffffffffffffffffffffff1614612e69576040517f08c379a0000000000000000000000000000000000000000000000000000000008152600401612e60906153af565b60405180910390fd5b80600660006101000a81548173ffffffffffffffffffffffffffffffffffffffff021916908373ffffffffffffffffffffffffffffffffffffffff16021790555050565b600560009054906101000a900473ffffffffffffffffffffffffffffffffffffffff1673ffffffffffffffffffffffffffffffffffffffff163373ffffffffffffffffffffffffffffffffffffffff1614612f3d576040517f08c379a0000000000000000000000000000000000000000000000000000000008152600401612f34906149bc565b60405180910390fd5b60006007600084815260200190815260200160002090508060000160149054906101000a900460ff16612fa5576040517f08c379a0000000000000000000000000000000000000000000000000000000008152600401612f9c90614c44565b60405180910390fd5b8060000160159054906101000a900460ff1615612ff7576040517f08c379a0000000000000000000000000000000000000000000000000000000008152600401612fee90614a28565b60405180910390fd5b60005b8160000160009054906101000a900463ffffffff1663ffffffff168163ffffffff161015613095576000600a600086815260200190815260200160002060008363ffffffff1663ffffffff16815260200190815260200160002090508363ffffffff168263ffffffff16036130875760018160010160106101000a81548160ff0219169083151502179055505b508080600101915050612ffa565b5060008160000160146101000a81548160ff02191690831515021790555060018160000160156101000a81548160ff021916908315150217905550505050565b60008760008781526020019081526020016000206040518060800160405290816000820160009054906101000a900463ffffffff1663ffffffff1663ffffffff1681526020016000820160049054906101000a90046fffffffffffffffffffffffffffffffff166fffffffffffffffffffffffffffffffff166fffffffffffffffffffffffffffffffff1681526020016000820160149054906101000a900460ff161515151581526020016000820160159054906101000a900460ff161515151581525050905060008160000151905060005b8163ffffffff168163ffffffff16101561338f5760008960008a815260200190815260200160002060008363ffffffff1663ffffffff168152602001908152602001600020905060008160010160009054906101000a90046fffffffffffffffffffffffffffffffff16905085156132cf578763ffffffff168363ffffffff16036132835786898261323a9190614cfc565b61324491906141ca565b8260010160006101000a8154816fffffffffffffffffffffffffffffffff02191690836fffffffffffffffffffffffffffffffff1602179055506132ca565b888161328f9190614cfc565b8260010160006101000a8154816fffffffffffffffffffffffffffffffff02191690836fffffffffffffffffffffffffffffffff1602179055505b613380565b8763ffffffff168363ffffffff1603613338578887826132ef9190614cfc565b6132f991906141ca565b8260010160006101000a8154816fffffffffffffffffffffffffffffffff02191690836fffffffffffffffffffffffffffffffff16021790555061337f565b888161334491906141ca565b8260010160006101000a8154816fffffffffffffffffffffffffffffffff02191690836fffffffffffffffffffffffffffffffff1602179055505b5b505080806001019150506131a8565b50505050505050505050565b606060008460008481526020019081526020016000206040518060800160405290816000820160009054906101000a900463ffffffff1663ffffffff1663ffffffff1681526020016000820160049054906101000a90046fffffffffffffffffffffffffffffffff166fffffffffffffffffffffffffffffffff166fffffffffffffffffffffffffffffffff1681526020016000820160149054906101000a900460ff161515151581526020016000820160159054906101000a900460ff161515151581525050905060008160000151905060008163ffffffff1667ffffffffffffffff81111561348f5761348e6139e0565b5b6040519080825280602002602001820160405280156134bd5781602001602082028036833780820191505090505b50905060005b8263ffffffff168163ffffffff16101561357e5786600087815260200190815260200160002060008263ffffffff1663ffffffff16815260200190815260200160002060010160009054906101000a90046fffffffffffffffffffffffffffffffff16828263ffffffff168151811061353f5761353e6145db565b5b60200260200101906fffffffffffffffffffffffffffffffff1690816fffffffffffffffffffffffffffffffff168152505080806001019150506134c3565b508093505050509392505050565b60405180606001604052806060815260200160006fffffffffffffffffffffffffffffffff1681526020016000151581525090565b6040518060800160405280600063ffffffff16815260200160006fffffffffffffffffffffffffffffffff1681526020016000151581526020016000151581525090565b6000604051905090565b600080fd5b600080fd5b600073ffffffffffffffffffffffffffffffffffffffff82169050919050565b600061364482613619565b9050919050565b61365481613639565b811461365f57600080fd5b50565b6000813590506136718161364b565b92915050565b6000819050919050565b61368a81613677565b811461369557600080fd5b50565b6000813590506136a781613681565b92915050565b600063ffffffff82169050919050565b6136c6816136ad565b81146136d157600080fd5b50565b6000813590506136e3816136bd565b92915050565b6000806000606084860312156137025761370161360f565b5b600061371086828701613662565b935050602061372186828701613698565b9250506040613732868287016136d4565b9150509250925092565b61374581613677565b82525050565b6000602082019050613760600083018461373c565b92915050565b60006fffffffffffffffffffffffffffffffff82169050919050565b61378b81613766565b811461379657600080fd5b50565b6000813590506137a881613782565b92915050565b600080600080608085870312156137c8576137c761360f565b5b60006137d687828801613698565b94505060206137e787828801613799565b93505060406137f8878288016136d4565b925050606061380987828801613799565b91505092959194509250565b60006020828403121561382b5761382a61360f565b5b600061383984828501613662565b91505092915050565b6000602082840312156138585761385761360f565b5b6000613866848285016136d4565b91505092915050565b600080604083850312156138865761388561360f565b5b600061389485828601613698565b92505060206138a5858286016136d4565b9150509250929050565b600081519050919050565b600082825260208201905092915050565b60005b838110156138e95780820151818401526020810190506138ce565b60008484015250505050565b6000601f19601f8301169050919050565b6000613911826138af565b61391b81856138ba565b935061392b8185602086016138cb565b613934816138f5565b840191505092915050565b61394881613766565b82525050565b60008115159050919050565b6139638161394e565b82525050565b600060608301600083015184820360008601526139868282613906565b915050602083015161399b602086018261393f565b5060408301516139ae604086018261395a565b508091505092915050565b600060208201905081810360008301526139d38184613969565b905092915050565b600080fd5b7f4e487b7100000000000000000000000000000000000000000000000000000000600052604160045260246000fd5b613a18826138f5565b810181811067ffffffffffffffff82111715613a3757613a366139e0565b5b80604052505050565b6000613a4a613605565b9050613a568282613a0f565b919050565b600067ffffffffffffffff821115613a7657613a756139e0565b5b602082029050602081019050919050565b600080fd5b600080fd5b600067ffffffffffffffff821115613aac57613aab6139e0565b5b613ab5826138f5565b9050602081019050919050565b82818337600083830152505050565b6000613ae4613adf84613a91565b613a40565b905082815260208101848484011115613b0057613aff613a8c565b5b613b0b848285613ac2565b509392505050565b600082601f830112613b2857613b276139db565b5b8135613b38848260208601613ad1565b91505092915050565b6000613b54613b4f84613a5b565b613a40565b90508083825260208201905060208402830185811115613b7757613b76613a87565b5b835b81811015613bbe57803567ffffffffffffffff811115613b9c57613b9b6139db565b5b808601613ba98982613b13565b85526020850194505050602081019050613b79565b5050509392505050565b600082601f830112613bdd57613bdc6139db565b5b8135613bed848260208601613b41565b91505092915050565b60008060408385031215613c0d57613c0c61360f565b5b600083013567ffffffffffffffff811115613c2b57613c2a613614565b5b613c3785828601613bc8565b9250506020613c4885828601613799565b9150509250929050565b600080600060608486031215613c6b57613c6a61360f565b5b6000613c7986828701613698565b9350506020613c8a86828701613662565b9250506040613c9b868287016136d4565b9150509250925092565b613cae81613639565b82525050565b6000602082019050613cc96000830184613ca5565b92915050565b600080600060608486031215613ce857613ce761360f565b5b6000613cf686828701613698565b9350506020613d0786828701613799565b9250506040613d18868287016136d4565b9150509250925092565b613d2b81613766565b82525050565b6000602082019050613d466000830184613d22565b92915050565b60008060408385031215613d6357613d6261360f565b5b6000613d7185828601613698565b9250506020613d8285828601613799565b9150509250929050565b600060208284031215613da257613da161360f565b5b6000613db084828501613698565b91505092915050565b600082825260208201905092915050565b6000613dd5826138af565b613ddf8185613db9565b9350613def8185602086016138cb565b613df8816138f5565b840191505092915050565b613e0c8161394e565b82525050565b60006060820190508181036000830152613e2c8186613dca565b9050613e3b6020830185613d22565b613e486040830184613e03565b949350505050565b613e59816136ad565b82525050565b6000608082019050613e746000830187613e50565b613e816020830186613d22565b613e8e6040830185613e03565b613e9b6060830184613e03565b95945050505050565b600080600060608486031215613ebd57613ebc61360f565b5b6000613ecb86828701613698565b9350506020613edc868287016136d4565b9250506040613eed86828701613799565b9150509250925092565b6000602082019050613f0c6000830184613e50565b92915050565b600060208284031215613f2857613f2761360f565b5b6000613f3684828501613799565b91505092915050565b613f48816136ad565b82525050565b608082016000820151613f646000850182613f3f565b506020820151613f77602085018261393f565b506040820151613f8a604085018261395a565b506060820151613f9d606085018261395a565b50505050565b6000608082019050613fb86000830184613f4e565b92915050565b7f53656c6c696e67206d6f7265207468616e206578706563746564000000000000600082015250565b6000613ff4601a83613db9565b9150613fff82613fbe565b602082019050919050565b6000602082019050818103600083015261402381613fe7565b9050919050565b7f496e73756666696369656e742062616c616e6365000000000000000000000000600082015250565b6000614060601483613db9565b915061406b8261402a565b602082019050919050565b6000602082019050818103600083015261408f81614053565b9050919050565b7f4e487b7100000000000000000000000000000000000000000000000000000000600052601160045260246000fd5b60006140d082613677565b91506140db83613677565b92508282039050818111156140f3576140f2614096565b5b92915050565b600061410482613766565b915061410f83613766565b925082820261411d81613766565b915080821461412f5761412e614096565b5b5092915050565b7f4e487b7100000000000000000000000000000000000000000000000000000000600052601260045260246000fd5b600061417082613766565b915061417b83613766565b92508261418b5761418a614136565b5b828204905092915050565b60006141a182613677565b91506141ac83613677565b92508282019050808211156141c4576141c3614096565b5b92915050565b60006141d582613766565b91506141e083613766565b925082820390506fffffffffffffffffffffffffffffffff81111561420857614207614096565b5b92915050565b6000819050919050565b600061423361422e61422984613766565b61420e565b613677565b9050919050565b61424381614218565b82525050565b600060608201905061425e6000830186613d22565b61426b6020830185613e50565b614278604083018461423a565b949350505050565b7f41646465642066756e6473206d75737420626520706f73697469766500000000600082015250565b60006142b6601c83613db9565b91506142c182614280565b602082019050919050565b600060208201905081810360008301526142e5816142a9565b9050919050565b60006142f782613677565b915061430283613677565b925082820261431081613677565b9150828204841483151761432757614326614096565b5b5092915050565b600061433982613677565b915061434483613677565b92508261435457614353614136565b5b828204905092915050565b7f4f6e6c79206f776e65722063616e207365742066656500000000000000000000600082015250565b6000614395601683613db9565b91506143a08261435f565b602082019050919050565b600060208201905081810360008301526143c481614388565b9050919050565b7f4e487b7100000000000000000000000000000000000000000000000000000000600052602260045260246000fd5b6000600282049050600182168061441257607f821691505b602082108103614425576144246143cb565b5b50919050565b7f4f7574636f6d65732061727261792063616e6e6f7420626520656d7074790000600082015250565b6000614461601e83613db9565b915061446c8261442b565b602082019050919050565b6000602082019050818103600083015261449081614454565b9050919050565b7f546f6f206d616e79206f7574636f6d6573000000000000000000000000000000600082015250565b60006144cd601183613db9565b91506144d882614497565b602082019050919050565b600060208201905081810360008301526144fc816144c0565b9050919050565b7f446561646c696e65206d75737420626520696e20746865206675747572650000600082015250565b6000614539601e83613db9565b915061454482614503565b602082019050919050565b600060208201905081810360008301526145688161452c565b9050919050565b7f4e6f206c697175696469747920696e2074686520706f6f6c0000000000000000600082015250565b60006145a5601883613db9565b91506145b08261456f565b602082019050919050565b600060208201905081810360008301526145d481614598565b9050919050565b7f4e487b7100000000000000000000000000000000000000000000000000000000600052603260045260246000fd5b60008190508160005260206000209050919050565b60006020601f8301049050919050565b600082821b905092915050565b60006008830261466c7fffffffffffffffffffffffffffffffffffffffffffffffffffffffffffffffff8261462f565b614676868361462f565b95508019841693508086168417925050509392505050565b60006146a96146a461469f84613677565b61420e565b613677565b9050919050565b6000819050919050565b6146c38361468e565b6146d76146cf826146b0565b84845461463c565b825550505050565b600090565b6146ec6146df565b6146f78184846146ba565b505050565b5b8181101561471b576147106000826146e4565b6001810190506146fd565b5050565b601f821115614760576147318161460a565b61473a8461461f565b81016020851015614749578190505b61475d6147558561461f565b8301826146fc565b50505b505050565b600082821c905092915050565b600061478360001984600802614765565b1980831691505092915050565b600061479c8383614772565b9150826002028217905092915050565b6147b5826138af565b67ffffffffffffffff8111156147ce576147cd6139e0565b5b6147d882546143fa565b6147e382828561471f565b600060209050601f8311600181146148165760008415614804578287015190505b61480e8582614790565b865550614876565b601f1984166148248661460a565b60005b8281101561484c57848901518255600182019150602085019450602081019050614827565b868310156148695784890151614865601f891682614772565b8355505b6001600288020188555050505b505050505050565b600081519050919050565b600082825260208201905092915050565b6000819050602082019050919050565b60006148b68383613906565b905092915050565b6000602082019050919050565b60006148d68261487e565b6148e08185614889565b9350836020820285016148f28561489a565b8060005b8581101561492e578484038952815161490f85826148aa565b945061491a836148be565b925060208a019950506001810190506148f6565b50829750879550505050505092915050565b6000604082019050818103600083015261495a81856148cb565b90506149696020830184613d22565b9392505050565b7f4f6e6c79206f776e65722063616e207365742077696e6e657200000000000000600082015250565b60006149a6601983613db9565b91506149b182614970565b602082019050919050565b600060208201905081810360008301526149d581614999565b9050919050565b7f4d61726b657420697320616c726561647920736574746c656400000000000000600082015250565b6000614a12601983613db9565b9150614a1d826149dc565b602082019050919050565b60006020820190508181036000830152614a4181614a05565b9050919050565b7f4f6e6c79206f776e65722063616e207365652074726561737572657200000000600082015250565b6000614a7e601c83613db9565b9150614a8982614a48565b602082019050919050565b60006020820190508181036000830152614aad81614a71565b9050919050565b7f4d75737420626520706f73697469766500000000000000000000000000000000600082015250565b6000614aea601083613db9565b9150614af582614ab4565b602082019050919050565b60006020820190508181036000830152614b1981614add565b9050919050565b7f496e76616c6964206d61726b6574204944000000000000000000000000000000600082015250565b6000614b56601183613db9565b9150614b6182614b20565b602082019050919050565b60006020820190508181036000830152614b8581614b49565b9050919050565b7f496e76616c6964206f7574636f6d6520696e6465780000000000000000000000600082015250565b6000614bc2601583613db9565b9150614bcd82614b8c565b602082019050919050565b60006020820190508181036000830152614bf181614bb5565b9050919050565b7f4d61726b6574206973206e6f7420616374697665000000000000000000000000600082015250565b6000614c2e601483613db9565b9150614c3982614bf8565b602082019050919050565b60006020820190508181036000830152614c5d81614c21565b9050919050565b6000614c6f826136ad565b915063ffffffff8203614c8557614c84614096565b5b600182019050919050565b7f4d7573742068617665206e6f6e2d7a65726f2062616c616e6365730000000000600082015250565b6000614cc6601b83613db9565b9150614cd182614c90565b602082019050919050565b60006020820190508181036000830152614cf581614cb9565b9050919050565b6000614d0782613766565b9150614d1283613766565b925082820190506fffffffffffffffffffffffffffffffff811115614d3a57614d39614096565b5b92915050565b7f4f6e6c79206f776e65722063616e2075706461746520646561646c696e650000600082015250565b6000614d76601e83613db9565b9150614d8182614d40565b602082019050919050565b60006020820190508181036000830152614da581614d69565b9050919050565b7f4f6e6c79206f776e65722063616e2064697361626c65206d61726b6574000000600082015250565b6000614de2601d83613db9565b9150614ded82614dac565b602082019050919050565b60006020820190508181036000830152614e1181614dd5565b9050919050565b7f4d61726b657420697320616c72656164792064697361626c6564000000000000600082015250565b6000614e4e601a83613db9565b9150614e5982614e18565b602082019050919050565b60006020820190508181036000830152614e7d81614e41565b9050919050565b7f4d61726b6574206973206e6f7420736574746c65640000000000000000000000600082015250565b6000614eba601583613db9565b9150614ec582614e84565b602082019050919050565b60006020820190508181036000830152614ee981614ead565b9050919050565b7f4f7574636f6d65206973206e6f7420612077696e6e6572000000000000000000600082015250565b6000614f26601783613db9565b9150614f3182614ef0565b602082019050919050565b60006020820190508181036000830152614f5581614f19565b9050919050565b7f4e6f2062616c616e636520746f20636c61696d00000000000000000000000000600082015250565b6000614f92601383613db9565b9150614f9d82614f5c565b602082019050919050565b60006020820190508181036000830152614fc181614f85565b9050919050565b6000614fd3826136ad565b9150614fde836136ad565b9250828203905063ffffffff811115614ffa57614ff9614096565b5b92915050565b600081905092915050565b50565b600061501b600083615000565b91506150268261500b565b600082019050919050565b600061503c8261500e565b9150819050919050565b7f5472616e73666572206661696c65640000000000000000000000000000000000600082015250565b600061507c600f83613db9565b915061508782615046565b602082019050919050565b600060208201905081810360008301526150ab8161506f565b9050919050565b7f496e766573746d656e74206d75737420626520706f7369746976650000000000600082015250565b60006150e8601b83613db9565b91506150f3826150b2565b602082019050919050565b60006020820190508181036000830152615117816150db565b9050919050565b7f526563656976696e67206c657373207468616e20657870656374656400000000600082015250565b6000615154601c83613db9565b915061515f8261511e565b602082019050919050565b6000602082019050818103600083015261518381615147565b9050919050565b7f46756e6473206d75737420626520706f73697469766500000000000000000000600082015250565b60006151c0601683613db9565b91506151cb8261518a565b602082019050919050565b600060208201905081810360008301526151ef816151b3565b9050919050565b7f43616e6e6f742072656d6f7665206d6f7265207468616e20706f6f6c00000000600082015250565b600061522c601c83613db9565b9150615237826151f6565b602082019050919050565b6000602082019050818103600083015261525b8161521f565b9050919050565b7f496e73756666696369656e742066756e64730000000000000000000000000000600082015250565b6000615298601283613db9565b91506152a382615262565b602082019050919050565b600060208201905081810360008301526152c78161528b565b9050919050565b7f52657175697265206e6f6e2d7a65726f2062616c616e63657300000000000000600082015250565b6000615304601983613db9565b915061530f826152ce565b602082019050919050565b60006020820190508181036000830152615333816152f7565b9050919050565b600060408201905061534f600083018561423a565b61535c602083018461373c565b9392505050565b7f4f6e6c79206f776e65722063616e207365742074726561737572657200000000600082015250565b6000615399601c83613db9565b91506153a482615363565b602082019050919050565b600060208201905081810360008301526153c88161538c565b905091905056fea26469706673582212204af5b614ce3efa48e8fb9d3b74bb38391d9e184c8b44e4a67deb854ba85416fe64736f6c634300081a0033",
  "linkReferences": {},
  "deployedLinkReferences": {}
}