{
  "_format": "hh-sol-artifact-1",
  "contractName": "FPMMMarket",
  "sourceName": "contracts/FPMM_market.sol",
  "abi": [
    {
      "inputs": [
        {
          "internalType": "uint32",
          "name": "_fee",
          "type": "uint32"
        }
      ],
      "stateMutability": "nonpayable",
      "type": "constructor"
    },
    {
      "anonymous": false,
      "inputs": [
        {
          "indexed": true,
          "internalType": "address",
          "name": "buyer",
          "type": "address"
        },
        {
          "indexed": false,
          "internalType": "uint128",
          "name": "investmentAmount",
          "type": "uint128"
        },
        {
          "indexed": false,
          "internalType": "uint32",
          "name": "outcomeIndex",
          "type": "uint32"
        },
        {
          "indexed": false,
          "internalType": "uint256",
          "name": "outcomeTokensBought",
          "type": "uint256"
        }
      ],
      "name": "FPMMBuy",
      "type": "event"
    },
    {
      "anonymous": false,
      "inputs": [
        {
          "indexed": true,
          "internalType": "address",
          "name": "funder",
          "type": "address"
        },
        {
          "indexed": false,
          "internalType": "uint256",
          "name": "amountsAdded",
          "type": "uint256"
        }
      ],
      "name": "FPMMFundingAdded",
      "type": "event"
    },
    {
      "anonymous": false,
      "inputs": [
        {
          "indexed": true,
          "internalType": "address",
          "name": "funder",
          "type": "address"
        },
        {
          "indexed": false,
          "internalType": "uint256",
          "name": "collateralRemovedFromFeePool",
          "type": "uint256"
        },
        {
          "indexed": false,
          "internalType": "uint256",
          "name": "amountsRemoved",
          "type": "uint256"
        }
      ],
      "name": "FPMMFundingRemoved",
      "type": "event"
    },
    {
      "anonymous": false,
      "inputs": [
        {
          "indexed": true,
          "internalType": "uint256",
          "name": "marketId",
          "type": "uint256"
        },
        {
          "indexed": false,
          "internalType": "string[]",
          "name": "outcomes",
          "type": "string[]"
        },
        {
          "indexed": false,
          "internalType": "uint128",
          "name": "deadline",
          "type": "uint128"
        }
      ],
      "name": "FPMMMarketInit",
      "type": "event"
    },
    {
      "anonymous": false,
      "inputs": [
        {
          "indexed": true,
          "internalType": "address",
          "name": "seller",
          "type": "address"
        },
        {
          "indexed": false,
          "internalType": "uint128",
          "name": "returnAmount",
          "type": "uint128"
        },
        {
          "indexed": false,
          "internalType": "uint32",
          "name": "outcomeIndex",
          "type": "uint32"
        },
        {
          "indexed": false,
          "internalType": "uint256",
          "name": "outcomeTokensSold",
          "type": "uint256"
        }
      ],
      "name": "FPMMSell",
      "type": "event"
    },
    {
      "inputs": [],
      "name": "addFunding",
      "outputs": [],
      "stateMutability": "payable",
      "type": "function"
    },
    {
      "inputs": [
        {
          "internalType": "uint256",
          "name": "",
          "type": "uint256"
        },
        {
          "internalType": "address",
          "name": "",
          "type": "address"
        },
        {
          "internalType": "uint32",
          "name": "",
          "type": "uint32"
        }
      ],
      "name": "balances",
      "outputs": [
        {
          "internalType": "uint256",
          "name": "",
          "type": "uint256"
        }
      ],
      "stateMutability": "view",
      "type": "function"
    },
    {
      "inputs": [
        {
          "internalType": "uint256",
          "name": "marketId",
          "type": "uint256"
        },
        {
          "internalType": "uint32",
          "name": "outcomeIndex",
          "type": "uint32"
        },
        {
          "internalType": "uint128",
          "name": "minOutcomeTokensToBuy",
          "type": "uint128"
        }
      ],
      "name": "buy",
      "outputs": [],
      "stateMutability": "payable",
      "type": "function"
    },
    {
      "inputs": [
        {
          "internalType": "uint256",
          "name": "marketId",
          "type": "uint256"
        },
        {
          "internalType": "uint128",
          "name": "investmentAmount",
          "type": "uint128"
        },
        {
          "internalType": "uint32",
          "name": "outcomeIndex",
          "type": "uint32"
        }
      ],
      "name": "calcBuyAmount",
      "outputs": [
        {
          "internalType": "uint128",
          "name": "",
          "type": "uint128"
        }
      ],
      "stateMutability": "view",
      "type": "function"
    },
    {
      "inputs": [
        {
          "internalType": "uint256",
          "name": "marketId",
          "type": "uint256"
        },
        {
          "internalType": "uint128",
          "name": "returnAmount",
          "type": "uint128"
        },
        {
          "internalType": "uint32",
          "name": "outcomeIndex",
          "type": "uint32"
        }
      ],
      "name": "calcSellAmount",
      "outputs": [
        {
          "internalType": "uint128",
          "name": "",
          "type": "uint128"
        }
      ],
      "stateMutability": "view",
      "type": "function"
    },
    {
      "inputs": [
        {
          "internalType": "uint256",
          "name": "marketId",
          "type": "uint256"
        },
        {
          "internalType": "uint32",
          "name": "outcomeIndex",
          "type": "uint32"
        }
      ],
      "name": "claimWinnings",
      "outputs": [],
      "stateMutability": "nonpayable",
      "type": "function"
    },
    {
      "inputs": [],
      "name": "collateralToken",
      "outputs": [
        {
          "internalType": "address",
          "name": "",
          "type": "address"
        }
      ],
      "stateMutability": "view",
      "type": "function"
    },
    {
      "inputs": [],
      "name": "currentLiquidity",
      "outputs": [
        {
          "internalType": "uint256",
          "name": "",
          "type": "uint256"
        }
      ],
      "stateMutability": "view",
      "type": "function"
    },
    {
      "inputs": [
        {
          "internalType": "uint256",
          "name": "marketId",
          "type": "uint256"
        }
      ],
      "name": "disableMarket",
      "outputs": [],
      "stateMutability": "nonpayable",
      "type": "function"
    },
    {
      "inputs": [],
      "name": "fee",
      "outputs": [
        {
          "internalType": "uint32",
          "name": "",
          "type": "uint32"
        }
      ],
      "stateMutability": "view",
      "type": "function"
    },
    {
      "inputs": [],
      "name": "feesAccrued",
      "outputs": [
        {
          "internalType": "uint256",
          "name": "",
          "type": "uint256"
        }
      ],
      "stateMutability": "view",
      "type": "function"
    },
    {
      "inputs": [
        {
          "internalType": "address",
          "name": "account",
          "type": "address"
        }
      ],
      "name": "feesWithdrawableBy",
      "outputs": [
        {
          "internalType": "uint256",
          "name": "",
          "type": "uint256"
        }
      ],
      "stateMutability": "view",
      "type": "function"
    },
    {
      "inputs": [],
      "name": "getCollateralToken",
      "outputs": [
        {
          "internalType": "address",
          "name": "",
          "type": "address"
        }
      ],
      "stateMutability": "view",
      "type": "function"
    },
    {
      "inputs": [],
      "name": "getFee",
      "outputs": [
        {
          "internalType": "uint32",
          "name": "",
          "type": "uint32"
        }
      ],
      "stateMutability": "view",
      "type": "function"
    },
    {
      "inputs": [
        {
          "internalType": "uint256",
          "name": "marketId",
          "type": "uint256"
        }
      ],
      "name": "getMarket",
      "outputs": [
        {
          "components": [
            {
              "internalType": "uint32",
              "name": "numOutcomes",
              "type": "uint32"
            },
            {
              "internalType": "uint128",
              "name": "deadline",
              "type": "uint128"
            },
            {
              "internalType": "bool",
              "name": "isActive",
              "type": "bool"
            },
            {
              "internalType": "bool",
              "name": "isSettled",
              "type": "bool"
            }
          ],
          "internalType": "struct FPMMStructs.FPMMMarket",
          "name": "",
          "type": "tuple"
        }
      ],
      "stateMutability": "view",
      "type": "function"
    },
    {
      "inputs": [],
      "name": "getNumMarkets",
      "outputs": [
        {
          "internalType": "uint256",
          "name": "",
          "type": "uint256"
        }
      ],
      "stateMutability": "view",
      "type": "function"
    },
    {
      "inputs": [
        {
          "internalType": "uint256",
          "name": "marketId",
          "type": "uint256"
        },
        {
          "internalType": "uint32",
          "name": "outcomeIndex",
          "type": "uint32"
        }
      ],
      "name": "getOutcome",
      "outputs": [
        {
          "components": [
            {
              "internalType": "string",
              "name": "name",
              "type": "string"
            },
            {
              "internalType": "uint128",
              "name": "numSharesInPool",
              "type": "uint128"
            },
            {
              "internalType": "bool",
              "name": "winner",
              "type": "bool"
            }
          ],
          "internalType": "struct FPMMStructs.Outcome",
          "name": "",
          "type": "tuple"
        }
      ],
      "stateMutability": "view",
      "type": "function"
    },
    {
      "inputs": [],
      "name": "getTreasury",
      "outputs": [
        {
          "internalType": "address",
          "name": "",
          "type": "address"
        }
      ],
      "stateMutability": "view",
      "type": "function"
    },
    {
      "inputs": [
        {
          "internalType": "address",
          "name": "user",
          "type": "address"
        }
      ],
      "name": "getUserBalance",
      "outputs": [
        {
          "internalType": "uint256",
          "name": "",
          "type": "uint256"
        }
      ],
      "stateMutability": "view",
      "type": "function"
    },
    {
      "inputs": [
        {
          "internalType": "address",
          "name": "user",
          "type": "address"
        },
        {
          "internalType": "uint256",
          "name": "marketId",
          "type": "uint256"
        },
        {
          "internalType": "uint32",
          "name": "outcomeIndex",
          "type": "uint32"
        }
      ],
      "name": "getUserMarketShare",
      "outputs": [
        {
          "internalType": "uint256",
          "name": "",
          "type": "uint256"
        }
      ],
      "stateMutability": "view",
      "type": "function"
    },
    {
      "inputs": [
        {
          "internalType": "string[]",
          "name": "outcomeNames",
          "type": "string[]"
        },
        {
          "internalType": "uint128",
          "name": "deadline",
          "type": "uint128"
        }
      ],
      "name": "initMarket",
      "outputs": [],
      "stateMutability": "nonpayable",
      "type": "function"
    },
    {
      "inputs": [
        {
          "internalType": "address",
          "name": "",
          "type": "address"
        }
      ],
      "name": "liquidityBalance",
      "outputs": [
        {
          "internalType": "uint256",
          "name": "",
          "type": "uint256"
        }
      ],
      "stateMutability": "view",
      "type": "function"
    },
    {
      "inputs": [],
      "name": "liquidityPool",
      "outputs": [
        {
          "internalType": "uint256",
          "name": "",
          "type": "uint256"
        }
      ],
      "stateMutability": "view",
      "type": "function"
    },
    {
      "inputs": [
        {
          "internalType": "uint256",
          "name": "",
          "type": "uint256"
        }
      ],
      "name": "markets",
      "outputs": [
        {
          "internalType": "uint32",
          "name": "numOutcomes",
          "type": "uint32"
        },
        {
          "internalType": "uint128",
          "name": "deadline",
          "type": "uint128"
        },
        {
          "internalType": "bool",
          "name": "isActive",
          "type": "bool"
        },
        {
          "internalType": "bool",
          "name": "isSettled",
          "type": "bool"
        }
      ],
      "stateMutability": "view",
      "type": "function"
    },
    {
      "inputs": [],
      "name": "numMarkets",
      "outputs": [
        {
          "internalType": "uint256",
          "name": "",
          "type": "uint256"
        }
      ],
      "stateMutability": "view",
      "type": "function"
    },
    {
      "inputs": [
        {
          "internalType": "uint256",
          "name": "",
          "type": "uint256"
        },
        {
          "internalType": "uint32",
          "name": "",
          "type": "uint32"
        }
      ],
      "name": "outcomes",
      "outputs": [
        {
          "internalType": "string",
          "name": "name",
          "type": "string"
        },
        {
          "internalType": "uint128",
          "name": "numSharesInPool",
          "type": "uint128"
        },
        {
          "internalType": "bool",
          "name": "winner",
          "type": "bool"
        }
      ],
      "stateMutability": "view",
      "type": "function"
    },
    {
      "inputs": [],
      "name": "owner",
      "outputs": [
        {
          "internalType": "address",
          "name": "",
          "type": "address"
        }
      ],
      "stateMutability": "view",
      "type": "function"
    },
    {
      "inputs": [
        {
          "internalType": "uint128",
          "name": "fundsToRemove",
          "type": "uint128"
        }
      ],
      "name": "removeFunding",
      "outputs": [],
      "stateMutability": "payable",
      "type": "function"
    },
    {
      "inputs": [
        {
          "internalType": "uint256",
          "name": "marketId",
          "type": "uint256"
        },
        {
          "internalType": "uint128",
          "name": "returnAmount",
          "type": "uint128"
        },
        {
          "internalType": "uint32",
          "name": "outcomeIndex",
          "type": "uint32"
        },
        {
          "internalType": "uint128",
          "name": "maxOutcomeTokensToSell",
          "type": "uint128"
        }
      ],
      "name": "sell",
      "outputs": [],
      "stateMutability": "nonpayable",
      "type": "function"
    },
    {
      "inputs": [
        {
          "internalType": "uint32",
          "name": "_fee",
          "type": "uint32"
        }
      ],
      "name": "setFee",
      "outputs": [],
      "stateMutability": "nonpayable",
      "type": "function"
    },
    {
      "inputs": [
        {
          "internalType": "uint256",
          "name": "marketId",
          "type": "uint256"
        },
        {
          "internalType": "uint32",
          "name": "outcomeIndex",
          "type": "uint32"
        }
      ],
      "name": "setMarketWinner",
      "outputs": [],
      "stateMutability": "nonpayable",
      "type": "function"
    },
    {
      "inputs": [
        {
          "internalType": "uint32",
          "name": "_fee",
          "type": "uint32"
        }
      ],
      "name": "setTreasurerFee",
      "outputs": [],
      "stateMutability": "nonpayable",
      "type": "function"
    },
    {
      "inputs": [
        {
          "internalType": "address",
          "name": "treasurer",
          "type": "address"
        }
      ],
      "name": "setTreasury",
      "outputs": [],
      "stateMutability": "nonpayable",
      "type": "function"
    },
    {
      "inputs": [
        {
          "internalType": "uint256",
          "name": "marketId",
          "type": "uint256"
        },
        {
          "internalType": "uint32",
          "name": "outcomeIndex",
          "type": "uint32"
        }
      ],
      "name": "setWinner",
      "outputs": [],
      "stateMutability": "nonpayable",
      "type": "function"
    },
    {
      "inputs": [],
      "name": "treasuryFee",
      "outputs": [
        {
          "internalType": "uint32",
          "name": "",
          "type": "uint32"
        }
      ],
      "stateMutability": "view",
      "type": "function"
    },
    {
      "inputs": [],
      "name": "treasuryWallet",
      "outputs": [
        {
          "internalType": "address",
          "name": "",
          "type": "address"
        }
      ],
      "stateMutability": "view",
      "type": "function"
    },
    {
      "inputs": [
        {
          "internalType": "uint256",
          "name": "marketId",
          "type": "uint256"
        },
        {
          "internalType": "uint128",
          "name": "deadline",
          "type": "uint128"
        }
      ],
      "name": "updateDeadline",
      "outputs": [],
      "stateMutability": "nonpayable",
      "type": "function"
    }
  ],
  "bytecode": "0x608060405234801561001057600080fd5b5060405161550c38038061550c833981810160405281019061003291906100db565b80600260006101000a81548163ffffffff021916908363ffffffff16021790555033600560006101000a81548173ffffffffffffffffffffffffffffffffffffffff021916908373ffffffffffffffffffffffffffffffffffffffff16021790555050610108565b600080fd5b600063ffffffff82169050919050565b6100b88161009f565b81146100c357600080fd5b50565b6000815190506100d5816100af565b92915050565b6000602082840312156100f1576100f061009a565b5b60006100ff848285016100c6565b91505092915050565b6153f5806101176000396000f3fe60806040526004361061021a5760003560e01c80635dc48d8e11610123578063c392b9a6116100ab578063ddca3f431161006f578063ddca3f43146107f8578063dfef009414610823578063eb44fdd31461083f578063f0f442601461087c578063f244244f146108a55761021a565b8063c392b9a61461070c578063c86df02914610749578063cc32d17614610765578063ced72f8714610790578063dd296480146107bb5761021a565b806394db0595116100f257806394db05951461060c57806396423663146106375780639ecabe9714610662578063b1283e77146106a1578063b2016bd4146106e15761021a565b80635dc48d8e14610564578063665a11ca1461058d578063794da9cc146105b85780638da5cb5b146105e15761021a565b80633064c8b0116101a657806346caf2ae1161017557806346caf2ae1461046d57806347734892146104985780634ac4e727146104d55780634f5fa3f714610512578063565c17141461053b5761021a565b80633064c8b0146103b157806335a0ca93146103ee5780633b19e84a146104175780634626402b146104425761021a565b80631ab971ab116101ed5780631ab971ab146102cc57806326e04f9d146102f5578063295c39a5146103205780632b38fe621461034b5780632c381775146103885761021a565b806306ba86181461021f5780630f2539e01461025c57806313dce9381461028557806316dbd7761461028f575b600080fd5b34801561022b57600080fd5b50610246600480360381019061024191906136d9565b6108ce565b604051610253919061373b565b60405180910390f35b34801561026857600080fd5b50610283600480360381019061027e919061379e565b610947565b005b61028d610c73565b005b34801561029b57600080fd5b506102b660048036038101906102b19190613805565b610d75565b6040516102c3919061373b565b60405180910390f35b3480156102d857600080fd5b506102f360048036038101906102ee9190613832565b610e27565b005b34801561030157600080fd5b5061030a610edb565b604051610317919061373b565b60405180910390f35b34801561032c57600080fd5b50610335610ee1565b604051610342919061373b565b60405180910390f35b34801561035757600080fd5b50610372600480360381019061036d919061385f565b610eeb565b60405161037f91906139a9565b60405180910390f35b34801561039457600080fd5b506103af60048036038101906103aa9190613be6565b61102d565b005b3480156103bd57600080fd5b506103d860048036038101906103d39190613c42565b6113f6565b6040516103e5919061373b565b60405180910390f35b3480156103fa57600080fd5b506104156004803603810190610410919061385f565b611428565b005b34801561042357600080fd5b5061042c6115f9565b6040516104399190613ca4565b60405180910390f35b34801561044e57600080fd5b506104576116b3565b6040516104649190613ca4565b60405180910390f35b34801561047957600080fd5b506104826116d9565b60405161048f919061373b565b60405180910390f35b3480156104a457600080fd5b506104bf60048036038101906104ba9190613805565b6116e3565b6040516104cc919061373b565b60405180910390f35b3480156104e157600080fd5b506104fc60048036038101906104f79190613cbf565b61172c565b6040516105099190613d21565b60405180910390f35b34801561051e57600080fd5b5061053960048036038101906105349190613d3c565b611a8f565b005b34801561054757600080fd5b50610562600480360381019061055d9190613d7c565b611c6d565b005b34801561057057600080fd5b5061058b60048036038101906105869190613832565b611d86565b005b34801561059957600080fd5b506105a2611e3a565b6040516105af919061373b565b60405180910390f35b3480156105c457600080fd5b506105df60048036038101906105da919061385f565b611e40565b005b3480156105ed57600080fd5b506105f661214a565b6040516106039190613ca4565b60405180910390f35b34801561061857600080fd5b50610621612170565b60405161062e919061373b565b60405180910390f35b34801561064357600080fd5b5061064c612176565b6040516106599190613ca4565b60405180910390f35b34801561066e57600080fd5b506106896004803603810190610684919061385f565b61219f565b60405161069893929190613e02565b60405180910390f35b3480156106ad57600080fd5b506106c860048036038101906106c39190613d7c565b612287565b6040516106d89493929190613e4f565b60405180910390f35b3480156106ed57600080fd5b506106f66122fd565b6040516107039190613ca4565b60405180910390f35b34801561071857600080fd5b50610733600480360381019061072e9190613cbf565b612321565b6040516107409190613d21565b60405180910390f35b610763600480360381019061075e9190613e94565b6126c4565b005b34801561077157600080fd5b5061077a6129be565b6040516107879190613ee7565b60405180910390f35b34801561079c57600080fd5b506107a56129d4565b6040516107b29190613ee7565b60405180910390f35b3480156107c757600080fd5b506107e260048036038101906107dd9190613805565b6129ee565b6040516107ef919061373b565b60405180910390f35b34801561080457600080fd5b5061080d612a06565b60405161081a9190613ee7565b60405180910390f35b61083d60048036038101906108389190613f02565b612a1c565b005b34801561084b57600080fd5b5061086660048036038101906108619190613d7c565b612cf6565b6040516108739190613f93565b60405180910390f35b34801561088857600080fd5b506108a3600480360381019061089e9190613805565b612dc9565b005b3480156108b157600080fd5b506108cc60048036038101906108c7919061385f565b612e9d565b005b60006009600084815260200190815260200160002060008573ffffffffffffffffffffffffffffffffffffffff1673ffffffffffffffffffffffffffffffffffffffff16815260200190815260200160002060008363ffffffff1663ffffffff1681526020019081526020016000205490509392505050565b600061095485858561172c565b9050816fffffffffffffffffffffffffffffffff16816fffffffffffffffffffffffffffffffff1611156109bd576040517f08c379a00000000000000000000000000000000000000000000000000000000081526004016109b490613ffa565b60405180910390fd5b6009600086815260200190815260200160002060003373ffffffffffffffffffffffffffffffffffffffff1673ffffffffffffffffffffffffffffffffffffffff16815260200190815260200160002060008463ffffffff1663ffffffff16815260200190815260200160002054816fffffffffffffffffffffffffffffffff161115610a7f576040517f08c379a0000000000000000000000000000000000000000000000000000000008152600401610a7690614066565b60405180910390fd5b806fffffffffffffffffffffffffffffffff166009600087815260200190815260200160002060003373ffffffffffffffffffffffffffffffffffffffff1673ffffffffffffffffffffffffffffffffffffffff16815260200190815260200160002060008563ffffffff1663ffffffff1681526020019081526020016000206000828254610b0e91906140b5565b925050819055506064600260009054906101000a900463ffffffff1663ffffffff1685610b3b91906140e9565b610b459190614155565b6fffffffffffffffffffffffffffffffff1660046000828254610b689190614186565b9250508190555060006064600260009054906101000a900463ffffffff1663ffffffff1686610b9791906140e9565b610ba19190614155565b85610bac91906141ba565b9050610bc06007600a8884888760006130c5565b3373ffffffffffffffffffffffffffffffffffffffff166108fc866fffffffffffffffffffffffffffffffff169081150290604051600060405180830381858888f19350505050158015610c18573d6000803e3d6000fd5b503373ffffffffffffffffffffffffffffffffffffffff167fd119a55f8addb8a2ff33c692b1d13c26a766c3f16aee9126a733534d47aa81c2868685604051610c6393929190614239565b60405180910390a2505050505050565b60003411610cb6576040517f08c379a0000000000000000000000000000000000000000000000000000000008152600401610cad906142bc565b60405180910390fd5b34600860003373ffffffffffffffffffffffffffffffffffffffff1673ffffffffffffffffffffffffffffffffffffffff1681526020019081526020016000206000828254610d059190614186565b925050819055503460036000828254610d1e9190614186565b925050819055503373ffffffffffffffffffffffffffffffffffffffff167f7ebb51c69763e72edc59161ffe7e6c51ab52010637c6d4e8ca433f5b43c876cb34604051610d6b919061373b565b60405180910390a2565b600080600354600860008573ffffffffffffffffffffffffffffffffffffffff1673ffffffffffffffffffffffffffffffffffffffff16815260200190815260200160002054600454610dc891906142dc565b610dd2919061431e565b9050600860008473ffffffffffffffffffffffffffffffffffffffff1673ffffffffffffffffffffffffffffffffffffffff1681526020019081526020016000205481610e1f9190614186565b915050919050565b600560009054906101000a900473ffffffffffffffffffffffffffffffffffffffff1673ffffffffffffffffffffffffffffffffffffffff163373ffffffffffffffffffffffffffffffffffffffff1614610eb7576040517f08c379a0000000000000000000000000000000000000000000000000000000008152600401610eae9061439b565b60405180910390fd5b80600260006101000a81548163ffffffff021916908363ffffffff16021790555050565b60015481565b6000600154905090565b610ef361357c565b600a600084815260200190815260200160002060008363ffffffff1663ffffffff168152602001908152602001600020604051806060016040529081600082018054610f3e906143ea565b80601f0160208091040260200160405190810160405280929190818152602001828054610f6a906143ea565b8015610fb75780601f10610f8c57610100808354040283529160200191610fb7565b820191906000526020600020905b815481529060010190602001808311610f9a57829003601f168201915b505050505081526020016001820160009054906101000a90046fffffffffffffffffffffffffffffffff166fffffffffffffffffffffffffffffffff166fffffffffffffffffffffffffffffffff1681526020016001820160109054906101000a900460ff161515151581525050905092915050565b6000825111611071576040517f08c379a000000000000000000000000000000000000000000000000000000000815260040161106890614467565b60405180910390fd5b610100825111156110b7576040517f08c379a00000000000000000000000000000000000000000000000000000000081526004016110ae906144d3565b60405180910390fd5b42816fffffffffffffffffffffffffffffffff161161110b576040517f08c379a00000000000000000000000000000000000000000000000000000000081526004016111029061453f565b60405180910390fd5b6000600354905060008111611155576040517f08c379a000000000000000000000000000000000000000000000000000000000815260040161114c906145ab565b60405180910390fd5b6000600180546111659190614186565b905080600181905550600084519050600060405180608001604052808363ffffffff168152602001866fffffffffffffffffffffffffffffffff168152602001600115158152602001600015158152509050806007600085815260200190815260200160002060008201518160000160006101000a81548163ffffffff021916908363ffffffff16021790555060208201518160000160046101000a8154816fffffffffffffffffffffffffffffffff02191690836fffffffffffffffffffffffffffffffff16021790555060408201518160000160146101000a81548160ff02191690831515021790555060608201518160000160156101000a81548160ff02191690831515021790555090505060008263ffffffff16600a8661128a919061431e565b611294919061431e565b905060005b8363ffffffff168163ffffffff1610156113b2576040518060600160405280898363ffffffff16815181106112d1576112d06145cb565b5b60200260200101518152602001836fffffffffffffffffffffffffffffffff16815260200160001515815250600a600087815260200190815260200160002060008363ffffffff1663ffffffff1681526020019081526020016000206000820151816000019081611342919061479c565b5060208201518160010160006101000a8154816fffffffffffffffffffffffffffffffff02191690836fffffffffffffffffffffffffffffffff16021790555060408201518160010160106101000a81548160ff0219169083151502179055509050508080600101915050611299565b50837f413a0255d79470114fc16c403c7e791ea572bf8776a21aea08820e65201936f288886040516113e5929190614930565b60405180910390a250505050505050565b600960205282600052604060002060205281600052604060002060205280600052604060002060009250925050505481565b600560009054906101000a900473ffffffffffffffffffffffffffffffffffffffff1673ffffffffffffffffffffffffffffffffffffffff163373ffffffffffffffffffffffffffffffffffffffff16146114b8576040517f08c379a00000000000000000000000000000000000000000000000000000000081526004016114af906149ac565b60405180910390fd5b60006007600084815260200190815260200160002090508060000160159054906101000a900460ff1615611521576040517f08c379a000000000000000000000000000000000000000000000000000000000815260040161151890614a18565b60405180910390fd5b60005b8160000160009054906101000a900463ffffffff1663ffffffff168163ffffffff1610156115b9578263ffffffff168163ffffffff16036115ac576001600a600086815260200190815260200160002060008363ffffffff1663ffffffff16815260200190815260200160002060010160106101000a81548160ff0219169083151502179055505b8080600101915050611524565b5060008160000160146101000a81548160ff02191690831515021790555060018160000160156101000a81548160ff021916908315150217905550505050565b6000600560009054906101000a900473ffffffffffffffffffffffffffffffffffffffff1673ffffffffffffffffffffffffffffffffffffffff163373ffffffffffffffffffffffffffffffffffffffff161461168b576040517f08c379a000000000000000000000000000000000000000000000000000000000815260040161168290614a84565b60405180910390fd5b600660009054906101000a900473ffffffffffffffffffffffffffffffffffffffff16905090565b600660009054906101000a900473ffffffffffffffffffffffffffffffffffffffff1681565b6000600354905090565b6000600860008373ffffffffffffffffffffffffffffffffffffffff1673ffffffffffffffffffffffffffffffffffffffff168152602001908152602001600020549050919050565b600080836fffffffffffffffffffffffffffffffff1611611782576040517f08c379a000000000000000000000000000000000000000000000000000000000815260040161177990614af0565b60405180910390fd5b6001548411156117c7576040517f08c379a00000000000000000000000000000000000000000000000000000000081526004016117be90614b5c565b60405180910390fd5b60006007600086815260200190815260200160002090508060000160009054906101000a900463ffffffff1663ffffffff168363ffffffff1610611840576040517f08c379a000000000000000000000000000000000000000000000000000000000815260040161183790614bc8565b60405180910390fd5b8060000160149054906101000a900460ff16611891576040517f08c379a000000000000000000000000000000000000000000000000000000000815260040161188890614c34565b60405180910390fd5b8060000160159054906101000a900460ff16156118e3576040517f08c379a00000000000000000000000000000000000000000000000000000000081526004016118da90614a18565b60405180910390fd5b60006118f26007600a8861338b565b905060006064600260009054906101000a900463ffffffff1663ffffffff168761191c91906140e9565b6119269190614155565b8661193191906141ba565b90506000828663ffffffff168151811061194e5761194d6145cb565b5b6020026020010151905060005b83518163ffffffff1610156119f5578663ffffffff168163ffffffff16146119e25782848263ffffffff1681518110611997576119966145cb565b5b60200260200101516119a991906141ba565b848263ffffffff16815181106119c2576119c16145cb565b5b6020026020010151836119d591906140e9565b6119df9190614155565b91505b80806119ed90614c54565b91505061195b565b506000816fffffffffffffffffffffffffffffffff1611611a4b576040517f08c379a0000000000000000000000000000000000000000000000000000000008152600401611a4290614ccc565b60405180910390fd5b828663ffffffff1681518110611a6457611a636145cb565b5b60200260200101518183611a789190614cec565b611a8291906141ba565b9450505050509392505050565b600560009054906101000a900473ffffffffffffffffffffffffffffffffffffffff1673ffffffffffffffffffffffffffffffffffffffff163373ffffffffffffffffffffffffffffffffffffffff1614611b1f576040517f08c379a0000000000000000000000000000000000000000000000000000000008152600401611b1690614d7c565b60405180910390fd5b60006007600084815260200190815260200160002090508060000160149054906101000a900460ff16611b87576040517f08c379a0000000000000000000000000000000000000000000000000000000008152600401611b7e90614c34565b60405180910390fd5b8060000160159054906101000a900460ff1615611bd9576040517f08c379a0000000000000000000000000000000000000000000000000000000008152600401611bd090614a18565b60405180910390fd5b42826fffffffffffffffffffffffffffffffff1611611c2d576040517f08c379a0000000000000000000000000000000000000000000000000000000008152600401611c249061453f565b60405180910390fd5b818160000160046101000a8154816fffffffffffffffffffffffffffffffff02191690836fffffffffffffffffffffffffffffffff160217905550505050565b600560009054906101000a900473ffffffffffffffffffffffffffffffffffffffff1673ffffffffffffffffffffffffffffffffffffffff163373ffffffffffffffffffffffffffffffffffffffff1614611cfd576040517f08c379a0000000000000000000000000000000000000000000000000000000008152600401611cf490614de8565b60405180910390fd5b60006007600083815260200190815260200160002090508060000160149054906101000a900460ff16611d65576040517f08c379a0000000000000000000000000000000000000000000000000000000008152600401611d5c90614e54565b60405180910390fd5b60008160000160146101000a81548160ff0219169083151502179055505050565b600560009054906101000a900473ffffffffffffffffffffffffffffffffffffffff1673ffffffffffffffffffffffffffffffffffffffff163373ffffffffffffffffffffffffffffffffffffffff1614611e16576040517f08c379a0000000000000000000000000000000000000000000000000000000008152600401611e0d9061439b565b60405180910390fd5b80600660146101000a81548163ffffffff021916908363ffffffff16021790555050565b60035481565b60006007600084815260200190815260200160002090508060000160159054906101000a900460ff16611ea8576040517f08c379a0000000000000000000000000000000000000000000000000000000008152600401611e9f90614ec0565b60405180910390fd5b6000600a600085815260200190815260200160002060008463ffffffff1663ffffffff16815260200190815260200160002090508060010160109054906101000a900460ff16611f2d576040517f08c379a0000000000000000000000000000000000000000000000000000000008152600401611f2490614f2c565b60405180910390fd5b60006009600086815260200190815260200160002060003373ffffffffffffffffffffffffffffffffffffffff1673ffffffffffffffffffffffffffffffffffffffff16815260200190815260200160002060008563ffffffff1663ffffffff16815260200190815260200160002054905060008111611fe2576040517f08c379a0000000000000000000000000000000000000000000000000000000008152600401611fd990614f98565b60405180910390fd5b60006064600260009054906101000a900463ffffffff1660646120059190614fb8565b63ffffffff168361201691906142dc565b612020919061431e565b905060006009600088815260200190815260200160002060003373ffffffffffffffffffffffffffffffffffffffff1673ffffffffffffffffffffffffffffffffffffffff16815260200190815260200160002060008763ffffffff1663ffffffff1681526020019081526020016000208190555060003373ffffffffffffffffffffffffffffffffffffffff16826040516120bb90615021565b60006040518083038185875af1925050503d80600081146120f8576040519150601f19603f3d011682016040523d82523d6000602084013e6120fd565b606091505b5050905080612141576040517f08c379a000000000000000000000000000000000000000000000000000000000815260040161213890615082565b60405180910390fd5b50505050505050565b600560009054906101000a900473ffffffffffffffffffffffffffffffffffffffff1681565b60045481565b60008060009054906101000a900473ffffffffffffffffffffffffffffffffffffffff16905090565b600a602052816000526040600020602052806000526040600020600091509150508060000180546121cf906143ea565b80601f01602080910402602001604051908101604052809291908181526020018280546121fb906143ea565b80156122485780601f1061221d57610100808354040283529160200191612248565b820191906000526020600020905b81548152906001019060200180831161222b57829003601f168201915b5050505050908060010160009054906101000a90046fffffffffffffffffffffffffffffffff16908060010160109054906101000a900460ff16905083565b60076020528060005260406000206000915090508060000160009054906101000a900463ffffffff16908060000160049054906101000a90046fffffffffffffffffffffffffffffffff16908060000160149054906101000a900460ff16908060000160159054906101000a900460ff16905084565b60008054906101000a900473ffffffffffffffffffffffffffffffffffffffff1681565b600080836fffffffffffffffffffffffffffffffff1611612377576040517f08c379a000000000000000000000000000000000000000000000000000000000815260040161236e906150ee565b60405180910390fd5b6001548411156123bc576040517f08c379a00000000000000000000000000000000000000000000000000000000081526004016123b390614b5c565b60405180910390fd5b60006007600086815260200190815260200160002090508060000160009054906101000a900463ffffffff1663ffffffff168363ffffffff1610612435576040517f08c379a000000000000000000000000000000000000000000000000000000000815260040161242c90614bc8565b60405180910390fd5b8060000160149054906101000a900460ff16612486576040517f08c379a000000000000000000000000000000000000000000000000000000000815260040161247d90614c34565b60405180910390fd5b8060000160159054906101000a900460ff16156124d8576040517f08c379a00000000000000000000000000000000000000000000000000000000081526004016124cf90614a18565b60405180910390fd5b60006124e76007600a8861338b565b905060006064600660149054906101000a900463ffffffff1663ffffffff168761251191906140e9565b61251b9190614155565b6064600260009054906101000a900463ffffffff1663ffffffff168861254191906140e9565b61254b9190614155565b8761255691906141ba565b61256091906141ba565b90506000828663ffffffff168151811061257d5761257c6145cb565b5b6020026020010151905060005b83518163ffffffff161015612624578663ffffffff168163ffffffff16146126115782848263ffffffff16815181106125c6576125c56145cb565b5b60200260200101516125d89190614cec565b848263ffffffff16815181106125f1576125f06145cb565b5b60200260200101518361260491906140e9565b61260e9190614155565b91505b808061261c90614c54565b91505061258a565b506000816fffffffffffffffffffffffffffffffff161161267a576040517f08c379a000000000000000000000000000000000000000000000000000000000815260040161267190614ccc565b60405180910390fd5b60008183858963ffffffff1681518110612697576126966145cb565b5b60200260200101516126a99190614cec565b6126b391906141ba565b905080955050505050509392505050565b600034905060006126d6858386612321565b9050826fffffffffffffffffffffffffffffffff16816fffffffffffffffffffffffffffffffff16101561273f576040517f08c379a00000000000000000000000000000000000000000000000000000000081526004016127369061515a565b60405180910390fd5b6064600260009054906101000a900463ffffffff1663ffffffff168361276591906140e9565b61276f9190614155565b6fffffffffffffffffffffffffffffffff16600460008282546127929190614186565b92505081905550600660009054906101000a900473ffffffffffffffffffffffffffffffffffffffff1673ffffffffffffffffffffffffffffffffffffffff166108fc6064600660149054906101000a900463ffffffff1663ffffffff16856127fb91906140e9565b6128059190614155565b6fffffffffffffffffffffffffffffffff169081150290604051600060405180830381858888f19350505050158015612842573d6000803e3d6000fd5b5060006064600660149054906101000a900463ffffffff1663ffffffff168461286b91906140e9565b6128759190614155565b6064600260009054906101000a900463ffffffff1663ffffffff168561289b91906140e9565b6128a59190614155565b846128b091906141ba565b6128ba91906141ba565b90506128ce6007600a8884898760016130c5565b816fffffffffffffffffffffffffffffffff166009600088815260200190815260200160002060003373ffffffffffffffffffffffffffffffffffffffff1673ffffffffffffffffffffffffffffffffffffffff16815260200190815260200160002060008763ffffffff1663ffffffff168152602001908152602001600020600082825461295d9190614186565b925050819055503373ffffffffffffffffffffffffffffffffffffffff167f285fd84012d60ebf3e087ae762bc6298ae35d7dbe0a659a56dd670656c17e6568487856040516129ae93929190614239565b60405180910390a2505050505050565b600660149054906101000a900463ffffffff1681565b6000600260009054906101000a900463ffffffff16905090565b60086020528060005260406000206000915090505481565b600260009054906101000a900463ffffffff1681565b6000816fffffffffffffffffffffffffffffffff1611612a71576040517f08c379a0000000000000000000000000000000000000000000000000000000008152600401612a68906151c6565b60405180910390fd5b47816fffffffffffffffffffffffffffffffff161115612ac6576040517f08c379a0000000000000000000000000000000000000000000000000000000008152600401612abd90615232565b60405180910390fd5b806fffffffffffffffffffffffffffffffff16600860003373ffffffffffffffffffffffffffffffffffffffff1673ffffffffffffffffffffffffffffffffffffffff168152602001908152602001600020541015612b5a576040517f08c379a0000000000000000000000000000000000000000000000000000000008152600401612b519061529e565b60405180910390fd5b600047826fffffffffffffffffffffffffffffffff16600454612b7d91906142dc565b612b87919061431e565b90506000612b9433610d75565b905060008111612bd9576040517f08c379a0000000000000000000000000000000000000000000000000000000008152600401612bd09061530a565b60405180910390fd5b3373ffffffffffffffffffffffffffffffffffffffff166108fc829081150290604051600060405180830381858888f19350505050158015612c1f573d6000803e3d6000fd5b508160046000828254612c3291906140b5565b92505081905550826fffffffffffffffffffffffffffffffff16600860003373ffffffffffffffffffffffffffffffffffffffff1673ffffffffffffffffffffffffffffffffffffffff1681526020019081526020016000206000828254612c9a91906140b5565b925050819055503373ffffffffffffffffffffffffffffffffffffffff167f8338d96d1ac03fc732036bb25b1469d0568ef83e329cc80df18ec1b705c6fa1d8484604051612ce992919061532a565b60405180910390a2505050565b612cfe6135b1565b600760008381526020019081526020016000206040518060800160405290816000820160009054906101000a900463ffffffff1663ffffffff1663ffffffff1681526020016000820160049054906101000a90046fffffffffffffffffffffffffffffffff166fffffffffffffffffffffffffffffffff166fffffffffffffffffffffffffffffffff1681526020016000820160149054906101000a900460ff161515151581526020016000820160159054906101000a900460ff1615151515815250509050919050565b600560009054906101000a900473ffffffffffffffffffffffffffffffffffffffff1673ffffffffffffffffffffffffffffffffffffffff163373ffffffffffffffffffffffffffffffffffffffff1614612e59576040517f08c379a0000000000000000000000000000000000000000000000000000000008152600401612e509061539f565b60405180910390fd5b80600660006101000a81548173ffffffffffffffffffffffffffffffffffffffff021916908373ffffffffffffffffffffffffffffffffffffffff16021790555050565b600560009054906101000a900473ffffffffffffffffffffffffffffffffffffffff1673ffffffffffffffffffffffffffffffffffffffff163373ffffffffffffffffffffffffffffffffffffffff1614612f2d576040517f08c379a0000000000000000000000000000000000000000000000000000000008152600401612f24906149ac565b60405180910390fd5b60006007600084815260200190815260200160002090508060000160149054906101000a900460ff16612f95576040517f08c379a0000000000000000000000000000000000000000000000000000000008152600401612f8c90614c34565b60405180910390fd5b8060000160159054906101000a900460ff1615612fe7576040517f08c379a0000000000000000000000000000000000000000000000000000000008152600401612fde90614a18565b60405180910390fd5b60005b8160000160009054906101000a900463ffffffff1663ffffffff168163ffffffff161015613085576000600a600086815260200190815260200160002060008363ffffffff1663ffffffff16815260200190815260200160002090508363ffffffff168263ffffffff16036130775760018160010160106101000a81548160ff0219169083151502179055505b508080600101915050612fea565b5060008160000160146101000a81548160ff02191690831515021790555060018160000160156101000a81548160ff021916908315150217905550505050565b60008760008781526020019081526020016000206040518060800160405290816000820160009054906101000a900463ffffffff1663ffffffff1663ffffffff1681526020016000820160049054906101000a90046fffffffffffffffffffffffffffffffff166fffffffffffffffffffffffffffffffff166fffffffffffffffffffffffffffffffff1681526020016000820160149054906101000a900460ff161515151581526020016000820160159054906101000a900460ff161515151581525050905060008160000151905060005b8163ffffffff168163ffffffff16101561337f5760008960008a815260200190815260200160002060008363ffffffff1663ffffffff168152602001908152602001600020905060008160010160009054906101000a90046fffffffffffffffffffffffffffffffff16905085156132bf578763ffffffff168363ffffffff16036132735786898261322a9190614cec565b61323491906141ba565b8260010160006101000a8154816fffffffffffffffffffffffffffffffff02191690836fffffffffffffffffffffffffffffffff1602179055506132ba565b888161327f9190614cec565b8260010160006101000a8154816fffffffffffffffffffffffffffffffff02191690836fffffffffffffffffffffffffffffffff1602179055505b613370565b8763ffffffff168363ffffffff1603613328578887826132df9190614cec565b6132e991906141ba565b8260010160006101000a8154816fffffffffffffffffffffffffffffffff02191690836fffffffffffffffffffffffffffffffff16021790555061336f565b888161333491906141ba565b8260010160006101000a8154816fffffffffffffffffffffffffffffffff02191690836fffffffffffffffffffffffffffffffff1602179055505b5b50508080600101915050613198565b50505050505050505050565b606060008460008481526020019081526020016000206040518060800160405290816000820160009054906101000a900463ffffffff1663ffffffff1663ffffffff1681526020016000820160049054906101000a90046fffffffffffffffffffffffffffffffff166fffffffffffffffffffffffffffffffff166fffffffffffffffffffffffffffffffff1681526020016000820160149054906101000a900460ff161515151581526020016000820160159054906101000a900460ff161515151581525050905060008160000151905060008163ffffffff1667ffffffffffffffff81111561347f5761347e6139d0565b5b6040519080825280602002602001820160405280156134ad5781602001602082028036833780820191505090505b50905060005b8263ffffffff168163ffffffff16101561356e5786600087815260200190815260200160002060008263ffffffff1663ffffffff16815260200190815260200160002060010160009054906101000a90046fffffffffffffffffffffffffffffffff16828263ffffffff168151811061352f5761352e6145cb565b5b60200260200101906fffffffffffffffffffffffffffffffff1690816fffffffffffffffffffffffffffffffff168152505080806001019150506134b3565b508093505050509392505050565b60405180606001604052806060815260200160006fffffffffffffffffffffffffffffffff1681526020016000151581525090565b6040518060800160405280600063ffffffff16815260200160006fffffffffffffffffffffffffffffffff1681526020016000151581526020016000151581525090565b6000604051905090565b600080fd5b600080fd5b600073ffffffffffffffffffffffffffffffffffffffff82169050919050565b600061363482613609565b9050919050565b61364481613629565b811461364f57600080fd5b50565b6000813590506136618161363b565b92915050565b6000819050919050565b61367a81613667565b811461368557600080fd5b50565b60008135905061369781613671565b92915050565b600063ffffffff82169050919050565b6136b68161369d565b81146136c157600080fd5b50565b6000813590506136d3816136ad565b92915050565b6000806000606084860312156136f2576136f16135ff565b5b600061370086828701613652565b935050602061371186828701613688565b9250506040613722868287016136c4565b9150509250925092565b61373581613667565b82525050565b6000602082019050613750600083018461372c565b92915050565b60006fffffffffffffffffffffffffffffffff82169050919050565b61377b81613756565b811461378657600080fd5b50565b60008135905061379881613772565b92915050565b600080600080608085870312156137b8576137b76135ff565b5b60006137c687828801613688565b94505060206137d787828801613789565b93505060406137e8878288016136c4565b92505060606137f987828801613789565b91505092959194509250565b60006020828403121561381b5761381a6135ff565b5b600061382984828501613652565b91505092915050565b600060208284031215613848576138476135ff565b5b6000613856848285016136c4565b91505092915050565b60008060408385031215613876576138756135ff565b5b600061388485828601613688565b9250506020613895858286016136c4565b9150509250929050565b600081519050919050565b600082825260208201905092915050565b60005b838110156138d95780820151818401526020810190506138be565b60008484015250505050565b6000601f19601f8301169050919050565b60006139018261389f565b61390b81856138aa565b935061391b8185602086016138bb565b613924816138e5565b840191505092915050565b61393881613756565b82525050565b60008115159050919050565b6139538161393e565b82525050565b6000606083016000830151848203600086015261397682826138f6565b915050602083015161398b602086018261392f565b50604083015161399e604086018261394a565b508091505092915050565b600060208201905081810360008301526139c38184613959565b905092915050565b600080fd5b7f4e487b7100000000000000000000000000000000000000000000000000000000600052604160045260246000fd5b613a08826138e5565b810181811067ffffffffffffffff82111715613a2757613a266139d0565b5b80604052505050565b6000613a3a6135f5565b9050613a4682826139ff565b919050565b600067ffffffffffffffff821115613a6657613a656139d0565b5b602082029050602081019050919050565b600080fd5b600080fd5b600067ffffffffffffffff821115613a9c57613a9b6139d0565b5b613aa5826138e5565b9050602081019050919050565b82818337600083830152505050565b6000613ad4613acf84613a81565b613a30565b905082815260208101848484011115613af057613aef613a7c565b5b613afb848285613ab2565b509392505050565b600082601f830112613b1857613b176139cb565b5b8135613b28848260208601613ac1565b91505092915050565b6000613b44613b3f84613a4b565b613a30565b90508083825260208201905060208402830185811115613b6757613b66613a77565b5b835b81811015613bae57803567ffffffffffffffff811115613b8c57613b8b6139cb565b5b808601613b998982613b03565b85526020850194505050602081019050613b69565b5050509392505050565b600082601f830112613bcd57613bcc6139cb565b5b8135613bdd848260208601613b31565b91505092915050565b60008060408385031215613bfd57613bfc6135ff565b5b600083013567ffffffffffffffff811115613c1b57613c1a613604565b5b613c2785828601613bb8565b9250506020613c3885828601613789565b9150509250929050565b600080600060608486031215613c5b57613c5a6135ff565b5b6000613c6986828701613688565b9350506020613c7a86828701613652565b9250506040613c8b868287016136c4565b9150509250925092565b613c9e81613629565b82525050565b6000602082019050613cb96000830184613c95565b92915050565b600080600060608486031215613cd857613cd76135ff565b5b6000613ce686828701613688565b9350506020613cf786828701613789565b9250506040613d08868287016136c4565b9150509250925092565b613d1b81613756565b82525050565b6000602082019050613d366000830184613d12565b92915050565b60008060408385031215613d5357613d526135ff565b5b6000613d6185828601613688565b9250506020613d7285828601613789565b9150509250929050565b600060208284031215613d9257613d916135ff565b5b6000613da084828501613688565b91505092915050565b600082825260208201905092915050565b6000613dc58261389f565b613dcf8185613da9565b9350613ddf8185602086016138bb565b613de8816138e5565b840191505092915050565b613dfc8161393e565b82525050565b60006060820190508181036000830152613e1c8186613dba565b9050613e2b6020830185613d12565b613e386040830184613df3565b949350505050565b613e498161369d565b82525050565b6000608082019050613e646000830187613e40565b613e716020830186613d12565b613e7e6040830185613df3565b613e8b6060830184613df3565b95945050505050565b600080600060608486031215613ead57613eac6135ff565b5b6000613ebb86828701613688565b9350506020613ecc868287016136c4565b9250506040613edd86828701613789565b9150509250925092565b6000602082019050613efc6000830184613e40565b92915050565b600060208284031215613f1857613f176135ff565b5b6000613f2684828501613789565b91505092915050565b613f388161369d565b82525050565b608082016000820151613f546000850182613f2f565b506020820151613f67602085018261392f565b506040820151613f7a604085018261394a565b506060820151613f8d606085018261394a565b50505050565b6000608082019050613fa86000830184613f3e565b92915050565b7f53656c6c696e67206d6f7265207468616e206578706563746564000000000000600082015250565b6000613fe4601a83613da9565b9150613fef82613fae565b602082019050919050565b6000602082019050818103600083015261401381613fd7565b9050919050565b7f496e73756666696369656e742062616c616e6365000000000000000000000000600082015250565b6000614050601483613da9565b915061405b8261401a565b602082019050919050565b6000602082019050818103600083015261407f81614043565b9050919050565b7f4e487b7100000000000000000000000000000000000000000000000000000000600052601160045260246000fd5b60006140c082613667565b91506140cb83613667565b92508282039050818111156140e3576140e2614086565b5b92915050565b60006140f482613756565b91506140ff83613756565b925082820261410d81613756565b915080821461411f5761411e614086565b5b5092915050565b7f4e487b7100000000000000000000000000000000000000000000000000000000600052601260045260246000fd5b600061416082613756565b915061416b83613756565b92508261417b5761417a614126565b5b828204905092915050565b600061419182613667565b915061419c83613667565b92508282019050808211156141b4576141b3614086565b5b92915050565b60006141c582613756565b91506141d083613756565b925082820390506fffffffffffffffffffffffffffffffff8111156141f8576141f7614086565b5b92915050565b6000819050919050565b600061422361421e61421984613756565b6141fe565b613667565b9050919050565b61423381614208565b82525050565b600060608201905061424e6000830186613d12565b61425b6020830185613e40565b614268604083018461422a565b949350505050565b7f41646465642066756e6473206d75737420626520706f73697469766500000000600082015250565b60006142a6601c83613da9565b91506142b182614270565b602082019050919050565b600060208201905081810360008301526142d581614299565b9050919050565b60006142e782613667565b91506142f283613667565b925082820261430081613667565b9150828204841483151761431757614316614086565b5b5092915050565b600061432982613667565b915061433483613667565b92508261434457614343614126565b5b828204905092915050565b7f4f6e6c79206f776e65722063616e207365742066656500000000000000000000600082015250565b6000614385601683613da9565b91506143908261434f565b602082019050919050565b600060208201905081810360008301526143b481614378565b9050919050565b7f4e487b7100000000000000000000000000000000000000000000000000000000600052602260045260246000fd5b6000600282049050600182168061440257607f821691505b602082108103614415576144146143bb565b5b50919050565b7f4f7574636f6d65732061727261792063616e6e6f7420626520656d7074790000600082015250565b6000614451601e83613da9565b915061445c8261441b565b602082019050919050565b6000602082019050818103600083015261448081614444565b9050919050565b7f546f6f206d616e79206f7574636f6d6573000000000000000000000000000000600082015250565b60006144bd601183613da9565b91506144c882614487565b602082019050919050565b600060208201905081810360008301526144ec816144b0565b9050919050565b7f446561646c696e65206d75737420626520696e20746865206675747572650000600082015250565b6000614529601e83613da9565b9150614534826144f3565b602082019050919050565b600060208201905081810360008301526145588161451c565b9050919050565b7f4e6f206c697175696469747920696e2074686520706f6f6c0000000000000000600082015250565b6000614595601883613da9565b91506145a08261455f565b602082019050919050565b600060208201905081810360008301526145c481614588565b9050919050565b7f4e487b7100000000000000000000000000000000000000000000000000000000600052603260045260246000fd5b60008190508160005260206000209050919050565b60006020601f8301049050919050565b600082821b905092915050565b60006008830261465c7fffffffffffffffffffffffffffffffffffffffffffffffffffffffffffffffff8261461f565b614666868361461f565b95508019841693508086168417925050509392505050565b600061469961469461468f84613667565b6141fe565b613667565b9050919050565b6000819050919050565b6146b38361467e565b6146c76146bf826146a0565b84845461462c565b825550505050565b600090565b6146dc6146cf565b6146e78184846146aa565b505050565b5b8181101561470b576147006000826146d4565b6001810190506146ed565b5050565b601f82111561475057614721816145fa565b61472a8461460f565b81016020851015614739578190505b61474d6147458561460f565b8301826146ec565b50505b505050565b600082821c905092915050565b600061477360001984600802614755565b1980831691505092915050565b600061478c8383614762565b9150826002028217905092915050565b6147a58261389f565b67ffffffffffffffff8111156147be576147bd6139d0565b5b6147c882546143ea565b6147d382828561470f565b600060209050601f83116001811461480657600084156147f4578287015190505b6147fe8582614780565b865550614866565b601f198416614814866145fa565b60005b8281101561483c57848901518255600182019150602085019450602081019050614817565b868310156148595784890151614855601f891682614762565b8355505b6001600288020188555050505b505050505050565b600081519050919050565b600082825260208201905092915050565b6000819050602082019050919050565b60006148a683836138f6565b905092915050565b6000602082019050919050565b60006148c68261486e565b6148d08185614879565b9350836020820285016148e28561488a565b8060005b8581101561491e57848403895281516148ff858261489a565b945061490a836148ae565b925060208a019950506001810190506148e6565b50829750879550505050505092915050565b6000604082019050818103600083015261494a81856148bb565b90506149596020830184613d12565b9392505050565b7f4f6e6c79206f776e65722063616e207365742077696e6e657200000000000000600082015250565b6000614996601983613da9565b91506149a182614960565b602082019050919050565b600060208201905081810360008301526149c581614989565b9050919050565b7f4d61726b657420697320616c726561647920736574746c656400000000000000600082015250565b6000614a02601983613da9565b9150614a0d826149cc565b602082019050919050565b60006020820190508181036000830152614a31816149f5565b9050919050565b7f4f6e6c79206f776e65722063616e207365652074726561737572657200000000600082015250565b6000614a6e601c83613da9565b9150614a7982614a38565b602082019050919050565b60006020820190508181036000830152614a9d81614a61565b9050919050565b7f4d75737420626520706f73697469766500000000000000000000000000000000600082015250565b6000614ada601083613da9565b9150614ae582614aa4565b602082019050919050565b60006020820190508181036000830152614b0981614acd565b9050919050565b7f496e76616c6964206d61726b6574204944000000000000000000000000000000600082015250565b6000614b46601183613da9565b9150614b5182614b10565b602082019050919050565b60006020820190508181036000830152614b7581614b39565b9050919050565b7f496e76616c6964206f7574636f6d6520696e6465780000000000000000000000600082015250565b6000614bb2601583613da9565b9150614bbd82614b7c565b602082019050919050565b60006020820190508181036000830152614be181614ba5565b9050919050565b7f4d61726b6574206973206e6f7420616374697665000000000000000000000000600082015250565b6000614c1e601483613da9565b9150614c2982614be8565b602082019050919050565b60006020820190508181036000830152614c4d81614c11565b9050919050565b6000614c5f8261369d565b915063ffffffff8203614c7557614c74614086565b5b600182019050919050565b7f4d7573742068617665206e6f6e2d7a65726f2062616c616e6365730000000000600082015250565b6000614cb6601b83613da9565b9150614cc182614c80565b602082019050919050565b60006020820190508181036000830152614ce581614ca9565b9050919050565b6000614cf782613756565b9150614d0283613756565b925082820190506fffffffffffffffffffffffffffffffff811115614d2a57614d29614086565b5b92915050565b7f4f6e6c79206f776e65722063616e2075706461746520646561646c696e650000600082015250565b6000614d66601e83613da9565b9150614d7182614d30565b602082019050919050565b60006020820190508181036000830152614d9581614d59565b9050919050565b7f4f6e6c79206f776e65722063616e2064697361626c65206d61726b6574000000600082015250565b6000614dd2601d83613da9565b9150614ddd82614d9c565b602082019050919050565b60006020820190508181036000830152614e0181614dc5565b9050919050565b7f4d61726b657420697320616c72656164792064697361626c6564000000000000600082015250565b6000614e3e601a83613da9565b9150614e4982614e08565b602082019050919050565b60006020820190508181036000830152614e6d81614e31565b9050919050565b7f4d61726b6574206973206e6f7420736574746c65640000000000000000000000600082015250565b6000614eaa601583613da9565b9150614eb582614e74565b602082019050919050565b60006020820190508181036000830152614ed981614e9d565b9050919050565b7f4f7574636f6d65206973206e6f7420612077696e6e6572000000000000000000600082015250565b6000614f16601783613da9565b9150614f2182614ee0565b602082019050919050565b60006020820190508181036000830152614f4581614f09565b9050919050565b7f4e6f2062616c616e636520746f20636c61696d00000000000000000000000000600082015250565b6000614f82601383613da9565b9150614f8d82614f4c565b602082019050919050565b60006020820190508181036000830152614fb181614f75565b9050919050565b6000614fc38261369d565b9150614fce8361369d565b9250828203905063ffffffff811115614fea57614fe9614086565b5b92915050565b600081905092915050565b50565b600061500b600083614ff0565b915061501682614ffb565b600082019050919050565b600061502c82614ffe565b9150819050919050565b7f5472616e73666572206661696c65640000000000000000000000000000000000600082015250565b600061506c600f83613da9565b915061507782615036565b602082019050919050565b6000602082019050818103600083015261509b8161505f565b9050919050565b7f496e766573746d656e74206d75737420626520706f7369746976650000000000600082015250565b60006150d8601b83613da9565b91506150e3826150a2565b602082019050919050565b60006020820190508181036000830152615107816150cb565b9050919050565b7f526563656976696e67206c657373207468616e20657870656374656400000000600082015250565b6000615144601c83613da9565b915061514f8261510e565b602082019050919050565b6000602082019050818103600083015261517381615137565b9050919050565b7f46756e6473206d75737420626520706f73697469766500000000000000000000600082015250565b60006151b0601683613da9565b91506151bb8261517a565b602082019050919050565b600060208201905081810360008301526151df816151a3565b9050919050565b7f43616e6e6f742072656d6f7665206d6f7265207468616e20706f6f6c00000000600082015250565b600061521c601c83613da9565b9150615227826151e6565b602082019050919050565b6000602082019050818103600083015261524b8161520f565b9050919050565b7f496e73756666696369656e742066756e64730000000000000000000000000000600082015250565b6000615288601283613da9565b915061529382615252565b602082019050919050565b600060208201905081810360008301526152b78161527b565b9050919050565b7f52657175697265206e6f6e2d7a65726f2062616c616e63657300000000000000600082015250565b60006152f4601983613da9565b91506152ff826152be565b602082019050919050565b60006020820190508181036000830152615323816152e7565b9050919050565b600060408201905061533f600083018561422a565b61534c602083018461372c565b9392505050565b7f4f6e6c79206f776e65722063616e207365742074726561737572657200000000600082015250565b6000615389601c83613da9565b915061539482615353565b602082019050919050565b600060208201905081810360008301526153b88161537c565b905091905056fea2646970667358221220cdb213c8bb9254f856d0d5c9187801d498dbba4f284c2ca8b02e9716865c87fc64736f6c634300081a0033",
  "linkReferences": {},
  "deployedLinkReferences": {}
}