{
  "_format": "hh-sol-artifact-1",
  "contractName": "FPMMMarket",
  "sourceName": "contracts/FPMM_market.sol",
  "abi": [
    {
      "inputs": [
        {
          "internalType": "uint32",
          "name": "_fee",
          "type": "uint32"
        }
      ],
      "stateMutability": "nonpayable",
      "type": "constructor"
    },
    {
      "anonymous": false,
      "inputs": [
        {
          "indexed": true,
          "internalType": "address",
          "name": "buyer",
          "type": "address"
        },
        {
          "indexed": false,
          "internalType": "uint128",
          "name": "investmentAmount",
          "type": "uint128"
        },
        {
          "indexed": false,
          "internalType": "uint32",
          "name": "outcomeIndex",
          "type": "uint32"
        },
        {
          "indexed": false,
          "internalType": "uint256",
          "name": "outcomeTokensBought",
          "type": "uint256"
        }
      ],
      "name": "FPMMBuy",
      "type": "event"
    },
    {
      "anonymous": false,
      "inputs": [
        {
          "indexed": true,
          "internalType": "address",
          "name": "funder",
          "type": "address"
        },
        {
          "indexed": false,
          "internalType": "uint256",
          "name": "amountsAdded",
          "type": "uint256"
        }
      ],
      "name": "FPMMFundingAdded",
      "type": "event"
    },
    {
      "anonymous": false,
      "inputs": [
        {
          "indexed": true,
          "internalType": "address",
          "name": "funder",
          "type": "address"
        },
        {
          "indexed": false,
          "internalType": "uint256",
          "name": "collateralRemovedFromFeePool",
          "type": "uint256"
        },
        {
          "indexed": false,
          "internalType": "uint256",
          "name": "amountsRemoved",
          "type": "uint256"
        }
      ],
      "name": "FPMMFundingRemoved",
      "type": "event"
    },
    {
      "anonymous": false,
      "inputs": [
        {
          "indexed": true,
          "internalType": "uint256",
          "name": "marketId",
          "type": "uint256"
        },
        {
          "indexed": false,
          "internalType": "string[]",
          "name": "outcomes",
          "type": "string[]"
        },
        {
          "indexed": false,
          "internalType": "uint128",
          "name": "deadline",
          "type": "uint128"
        }
      ],
      "name": "FPMMMarketInit",
      "type": "event"
    },
    {
      "anonymous": false,
      "inputs": [
        {
          "indexed": true,
          "internalType": "address",
          "name": "seller",
          "type": "address"
        },
        {
          "indexed": false,
          "internalType": "uint128",
          "name": "returnAmount",
          "type": "uint128"
        },
        {
          "indexed": false,
          "internalType": "uint32",
          "name": "outcomeIndex",
          "type": "uint32"
        },
        {
          "indexed": false,
          "internalType": "uint256",
          "name": "outcomeTokensSold",
          "type": "uint256"
        }
      ],
      "name": "FPMMSell",
      "type": "event"
    },
    {
      "inputs": [],
      "name": "DECIMALS",
      "outputs": [
        {
          "internalType": "uint256",
          "name": "",
          "type": "uint256"
        }
      ],
      "stateMutability": "view",
      "type": "function"
    },
    {
      "inputs": [],
      "name": "ETH_TO_USDC_RATE",
      "outputs": [
        {
          "internalType": "uint256",
          "name": "",
          "type": "uint256"
        }
      ],
      "stateMutability": "view",
      "type": "function"
    },
    {
      "inputs": [],
      "name": "SCALING_FACTOR",
      "outputs": [
        {
          "internalType": "uint256",
          "name": "",
          "type": "uint256"
        }
      ],
      "stateMutability": "view",
      "type": "function"
    },
    {
      "inputs": [],
      "name": "addFunding",
      "outputs": [],
      "stateMutability": "payable",
      "type": "function"
    },
    {
      "inputs": [
        {
          "internalType": "uint256",
          "name": "",
          "type": "uint256"
        },
        {
          "internalType": "address",
          "name": "",
          "type": "address"
        },
        {
          "internalType": "uint32",
          "name": "",
          "type": "uint32"
        }
      ],
      "name": "balances",
      "outputs": [
        {
          "internalType": "uint256",
          "name": "",
          "type": "uint256"
        }
      ],
      "stateMutability": "view",
      "type": "function"
    },
    {
      "inputs": [
        {
          "internalType": "uint256",
          "name": "marketId",
          "type": "uint256"
        },
        {
          "internalType": "uint32",
          "name": "outcomeIndex",
          "type": "uint32"
        },
        {
          "internalType": "uint128",
          "name": "minOutcomeTokensToBuy",
          "type": "uint128"
        }
      ],
      "name": "buy",
      "outputs": [],
      "stateMutability": "payable",
      "type": "function"
    },
    {
      "inputs": [
        {
          "internalType": "uint256",
          "name": "marketId",
          "type": "uint256"
        },
        {
          "internalType": "uint128",
          "name": "investmentAmount",
          "type": "uint128"
        },
        {
          "internalType": "uint32",
          "name": "outcomeIndex",
          "type": "uint32"
        }
      ],
      "name": "calcBuyAmount",
      "outputs": [
        {
          "internalType": "uint128",
          "name": "",
          "type": "uint128"
        }
      ],
      "stateMutability": "view",
      "type": "function"
    },
    {
      "inputs": [
        {
          "internalType": "uint256",
          "name": "marketId",
          "type": "uint256"
        },
        {
          "internalType": "uint128",
          "name": "returnAmount",
          "type": "uint128"
        },
        {
          "internalType": "uint32",
          "name": "outcomeIndex",
          "type": "uint32"
        }
      ],
      "name": "calcSellAmount",
      "outputs": [
        {
          "internalType": "uint128",
          "name": "",
          "type": "uint128"
        }
      ],
      "stateMutability": "view",
      "type": "function"
    },
    {
      "inputs": [
        {
          "internalType": "uint256",
          "name": "marketId",
          "type": "uint256"
        },
        {
          "internalType": "uint32",
          "name": "outcomeIndex",
          "type": "uint32"
        }
      ],
      "name": "claimWinnings",
      "outputs": [],
      "stateMutability": "nonpayable",
      "type": "function"
    },
    {
      "inputs": [],
      "name": "collateralToken",
      "outputs": [
        {
          "internalType": "address",
          "name": "",
          "type": "address"
        }
      ],
      "stateMutability": "view",
      "type": "function"
    },
    {
      "inputs": [
        {
          "internalType": "uint256",
          "name": "ethAmount",
          "type": "uint256"
        }
      ],
      "name": "convertEthToUsdc",
      "outputs": [
        {
          "internalType": "uint256",
          "name": "",
          "type": "uint256"
        }
      ],
      "stateMutability": "pure",
      "type": "function"
    },
    {
      "inputs": [
        {
          "internalType": "uint256",
          "name": "usdcAmount",
          "type": "uint256"
        }
      ],
      "name": "convertUsdcToEth",
      "outputs": [
        {
          "internalType": "uint256",
          "name": "",
          "type": "uint256"
        }
      ],
      "stateMutability": "pure",
      "type": "function"
    },
    {
      "inputs": [],
      "name": "currentLiquidity",
      "outputs": [
        {
          "internalType": "uint256",
          "name": "",
          "type": "uint256"
        }
      ],
      "stateMutability": "view",
      "type": "function"
    },
    {
      "inputs": [
        {
          "internalType": "uint256",
          "name": "marketId",
          "type": "uint256"
        }
      ],
      "name": "disableMarket",
      "outputs": [],
      "stateMutability": "nonpayable",
      "type": "function"
    },
    {
      "inputs": [],
      "name": "fee",
      "outputs": [
        {
          "internalType": "uint32",
          "name": "",
          "type": "uint32"
        }
      ],
      "stateMutability": "view",
      "type": "function"
    },
    {
      "inputs": [],
      "name": "feesAccrued",
      "outputs": [
        {
          "internalType": "uint256",
          "name": "",
          "type": "uint256"
        }
      ],
      "stateMutability": "view",
      "type": "function"
    },
    {
      "inputs": [
        {
          "internalType": "address",
          "name": "account",
          "type": "address"
        }
      ],
      "name": "feesWithdrawableBy",
      "outputs": [
        {
          "internalType": "uint256",
          "name": "",
          "type": "uint256"
        }
      ],
      "stateMutability": "view",
      "type": "function"
    },
    {
      "inputs": [],
      "name": "getCollateralToken",
      "outputs": [
        {
          "internalType": "address",
          "name": "",
          "type": "address"
        }
      ],
      "stateMutability": "view",
      "type": "function"
    },
    {
      "inputs": [],
      "name": "getFee",
      "outputs": [
        {
          "internalType": "uint32",
          "name": "",
          "type": "uint32"
        }
      ],
      "stateMutability": "view",
      "type": "function"
    },
    {
      "inputs": [
        {
          "internalType": "uint256",
          "name": "marketId",
          "type": "uint256"
        }
      ],
      "name": "getMarket",
      "outputs": [
        {
          "components": [
            {
              "internalType": "uint32",
              "name": "numOutcomes",
              "type": "uint32"
            },
            {
              "internalType": "uint128",
              "name": "deadline",
              "type": "uint128"
            },
            {
              "internalType": "bool",
              "name": "isActive",
              "type": "bool"
            },
            {
              "internalType": "bool",
              "name": "isSettled",
              "type": "bool"
            }
          ],
          "internalType": "struct FPMMStructs.FPMMMarket",
          "name": "",
          "type": "tuple"
        }
      ],
      "stateMutability": "view",
      "type": "function"
    },
    {
      "inputs": [],
      "name": "getNumMarkets",
      "outputs": [
        {
          "internalType": "uint256",
          "name": "",
          "type": "uint256"
        }
      ],
      "stateMutability": "view",
      "type": "function"
    },
    {
      "inputs": [
        {
          "internalType": "uint256",
          "name": "marketId",
          "type": "uint256"
        },
        {
          "internalType": "uint32",
          "name": "outcomeIndex",
          "type": "uint32"
        }
      ],
      "name": "getOutcome",
      "outputs": [
        {
          "components": [
            {
              "internalType": "string",
              "name": "name",
              "type": "string"
            },
            {
              "internalType": "uint128",
              "name": "numSharesInPool",
              "type": "uint128"
            },
            {
              "internalType": "bool",
              "name": "winner",
              "type": "bool"
            }
          ],
          "internalType": "struct FPMMStructs.Outcome",
          "name": "",
          "type": "tuple"
        }
      ],
      "stateMutability": "view",
      "type": "function"
    },
    {
      "inputs": [],
      "name": "getTreasury",
      "outputs": [
        {
          "internalType": "address",
          "name": "",
          "type": "address"
        }
      ],
      "stateMutability": "view",
      "type": "function"
    },
    {
      "inputs": [
        {
          "internalType": "address",
          "name": "user",
          "type": "address"
        }
      ],
      "name": "getUserBalance",
      "outputs": [
        {
          "internalType": "uint256",
          "name": "",
          "type": "uint256"
        }
      ],
      "stateMutability": "view",
      "type": "function"
    },
    {
      "inputs": [
        {
          "internalType": "address",
          "name": "user",
          "type": "address"
        },
        {
          "internalType": "uint256",
          "name": "marketId",
          "type": "uint256"
        },
        {
          "internalType": "uint32",
          "name": "outcomeIndex",
          "type": "uint32"
        }
      ],
      "name": "getUserMarketShare",
      "outputs": [
        {
          "internalType": "uint256",
          "name": "",
          "type": "uint256"
        }
      ],
      "stateMutability": "view",
      "type": "function"
    },
    {
      "inputs": [
        {
          "internalType": "string[]",
          "name": "outcomeNames",
          "type": "string[]"
        },
        {
          "internalType": "uint128",
          "name": "deadline",
          "type": "uint128"
        }
      ],
      "name": "initMarket",
      "outputs": [],
      "stateMutability": "nonpayable",
      "type": "function"
    },
    {
      "inputs": [
        {
          "internalType": "address",
          "name": "",
          "type": "address"
        }
      ],
      "name": "liquidityBalance",
      "outputs": [
        {
          "internalType": "uint256",
          "name": "",
          "type": "uint256"
        }
      ],
      "stateMutability": "view",
      "type": "function"
    },
    {
      "inputs": [],
      "name": "liquidityPool",
      "outputs": [
        {
          "internalType": "uint256",
          "name": "",
          "type": "uint256"
        }
      ],
      "stateMutability": "view",
      "type": "function"
    },
    {
      "inputs": [
        {
          "internalType": "uint256",
          "name": "",
          "type": "uint256"
        }
      ],
      "name": "markets",
      "outputs": [
        {
          "internalType": "uint32",
          "name": "numOutcomes",
          "type": "uint32"
        },
        {
          "internalType": "uint128",
          "name": "deadline",
          "type": "uint128"
        },
        {
          "internalType": "bool",
          "name": "isActive",
          "type": "bool"
        },
        {
          "internalType": "bool",
          "name": "isSettled",
          "type": "bool"
        }
      ],
      "stateMutability": "view",
      "type": "function"
    },
    {
      "inputs": [],
      "name": "numMarkets",
      "outputs": [
        {
          "internalType": "uint256",
          "name": "",
          "type": "uint256"
        }
      ],
      "stateMutability": "view",
      "type": "function"
    },
    {
      "inputs": [
        {
          "internalType": "uint256",
          "name": "",
          "type": "uint256"
        },
        {
          "internalType": "uint32",
          "name": "",
          "type": "uint32"
        }
      ],
      "name": "outcomes",
      "outputs": [
        {
          "internalType": "string",
          "name": "name",
          "type": "string"
        },
        {
          "internalType": "uint128",
          "name": "numSharesInPool",
          "type": "uint128"
        },
        {
          "internalType": "bool",
          "name": "winner",
          "type": "bool"
        }
      ],
      "stateMutability": "view",
      "type": "function"
    },
    {
      "inputs": [],
      "name": "owner",
      "outputs": [
        {
          "internalType": "address",
          "name": "",
          "type": "address"
        }
      ],
      "stateMutability": "view",
      "type": "function"
    },
    {
      "inputs": [
        {
          "internalType": "uint128",
          "name": "fundsToRemove",
          "type": "uint128"
        }
      ],
      "name": "removeFunding",
      "outputs": [],
      "stateMutability": "payable",
      "type": "function"
    },
    {
      "inputs": [
        {
          "internalType": "uint256",
          "name": "marketId",
          "type": "uint256"
        },
        {
          "internalType": "uint128",
          "name": "returnAmount",
          "type": "uint128"
        },
        {
          "internalType": "uint32",
          "name": "outcomeIndex",
          "type": "uint32"
        },
        {
          "internalType": "uint128",
          "name": "maxOutcomeTokensToSell",
          "type": "uint128"
        }
      ],
      "name": "sell",
      "outputs": [],
      "stateMutability": "nonpayable",
      "type": "function"
    },
    {
      "inputs": [
        {
          "internalType": "uint32",
          "name": "_fee",
          "type": "uint32"
        }
      ],
      "name": "setFee",
      "outputs": [],
      "stateMutability": "nonpayable",
      "type": "function"
    },
    {
      "inputs": [
        {
          "internalType": "uint256",
          "name": "marketId",
          "type": "uint256"
        },
        {
          "internalType": "uint32",
          "name": "outcomeIndex",
          "type": "uint32"
        }
      ],
      "name": "setMarketWinner",
      "outputs": [],
      "stateMutability": "nonpayable",
      "type": "function"
    },
    {
      "inputs": [
        {
          "internalType": "uint32",
          "name": "_fee",
          "type": "uint32"
        }
      ],
      "name": "setTreasurerFee",
      "outputs": [],
      "stateMutability": "nonpayable",
      "type": "function"
    },
    {
      "inputs": [
        {
          "internalType": "address",
          "name": "treasurer",
          "type": "address"
        }
      ],
      "name": "setTreasury",
      "outputs": [],
      "stateMutability": "nonpayable",
      "type": "function"
    },
    {
      "inputs": [
        {
          "internalType": "uint256",
          "name": "marketId",
          "type": "uint256"
        },
        {
          "internalType": "uint32",
          "name": "outcomeIndex",
          "type": "uint32"
        }
      ],
      "name": "setWinner",
      "outputs": [],
      "stateMutability": "nonpayable",
      "type": "function"
    },
    {
      "inputs": [],
      "name": "treasuryFee",
      "outputs": [
        {
          "internalType": "uint32",
          "name": "",
          "type": "uint32"
        }
      ],
      "stateMutability": "view",
      "type": "function"
    },
    {
      "inputs": [],
      "name": "treasuryWallet",
      "outputs": [
        {
          "internalType": "address",
          "name": "",
          "type": "address"
        }
      ],
      "stateMutability": "view",
      "type": "function"
    },
    {
      "inputs": [
        {
          "internalType": "uint256",
          "name": "marketId",
          "type": "uint256"
        },
        {
          "internalType": "uint128",
          "name": "deadline",
          "type": "uint128"
        }
      ],
      "name": "updateDeadline",
      "outputs": [],
      "stateMutability": "nonpayable",
      "type": "function"
    }
  ],
  "bytecode": "0x608060405234801561001057600080fd5b50604051615980380380615980833981810160405281019061003291906100db565b80600260006101000a81548163ffffffff021916908363ffffffff16021790555033600560006101000a81548173ffffffffffffffffffffffffffffffffffffffff021916908373ffffffffffffffffffffffffffffffffffffffff16021790555050610108565b600080fd5b600063ffffffff82169050919050565b6100b88161009f565b81146100c357600080fd5b50565b6000815190506100d5816100af565b92915050565b6000602082840312156100f1576100f061009a565b5b60006100ff848285016100c6565b91505092915050565b615869806101176000396000f3fe6080604052600436106102515760003560e01c806360b1791411610139578063c86df029116100b6578063dfef00941161007a578063dfef0094146108ed578063e94119ce14610909578063eb44fdd314610946578063ef4cadc514610983578063f0f44260146109ae578063f244244f146109d757610251565b8063c86df02914610813578063cc32d1761461082f578063ced72f871461085a578063dd29648014610885578063ddca3f43146108c257610251565b806396423663116100fd57806396423663146107015780639ecabe971461072c578063b1283e771461076b578063b2016bd4146107ab578063c392b9a6146107d657610251565b806360b179141461061a578063665a11ca14610657578063794da9cc146106825780638da5cb5b146106ab57806394db0595146106d657610251565b80633064c8b0116101d2578063477348921161019657806347734892146104fa5780634ac4e727146105375780634f5fa3f714610574578063565c17141461059d578063573c16f6146105c65780635dc48d8e146105f157610251565b80633064c8b01461041357806335a0ca93146104505780633b19e84a146104795780634626402b146104a457806346caf2ae146104cf57610251565b806326e04f9d1161021957806326e04f9d1461032c578063295c39a5146103575780632b38fe62146103825780632c381775146103bf5780632e0f2625146103e857610251565b806306ba8618146102565780630f2539e01461029357806313dce938146102bc57806316dbd776146102c65780631ab971ab14610303575b600080fd5b34801561026257600080fd5b5061027d60048036038101906102789190613963565b610a00565b60405161028a91906139c5565b60405180910390f35b34801561029f57600080fd5b506102ba60048036038101906102b59190613a28565b610a79565b005b6102c4610dc1565b005b3480156102d257600080fd5b506102ed60048036038101906102e89190613a8f565b610ed1565b6040516102fa91906139c5565b60405180910390f35b34801561030f57600080fd5b5061032a60048036038101906103259190613abc565b610f83565b005b34801561033857600080fd5b50610341611037565b60405161034e91906139c5565b60405180910390f35b34801561036357600080fd5b5061036c61103d565b60405161037991906139c5565b60405180910390f35b34801561038e57600080fd5b506103a960048036038101906103a49190613ae9565b611047565b6040516103b69190613c33565b60405180910390f35b3480156103cb57600080fd5b506103e660048036038101906103e19190613e70565b611189565b005b3480156103f457600080fd5b506103fd611546565b60405161040a91906139c5565b60405180910390f35b34801561041f57600080fd5b5061043a60048036038101906104359190613ecc565b61154b565b60405161044791906139c5565b60405180910390f35b34801561045c57600080fd5b5061047760048036038101906104729190613ae9565b61157d565b005b34801561048557600080fd5b5061048e61174e565b60405161049b9190613f2e565b60405180910390f35b3480156104b057600080fd5b506104b9611808565b6040516104c69190613f2e565b60405180910390f35b3480156104db57600080fd5b506104e461182e565b6040516104f191906139c5565b60405180910390f35b34801561050657600080fd5b50610521600480360381019061051c9190613a8f565b611838565b60405161052e91906139c5565b60405180910390f35b34801561054357600080fd5b5061055e60048036038101906105599190613f49565b611881565b60405161056b9190613fab565b60405180910390f35b34801561058057600080fd5b5061059b60048036038101906105969190613fc6565b611c04565b005b3480156105a957600080fd5b506105c460048036038101906105bf9190614006565b611de2565b005b3480156105d257600080fd5b506105db611efb565b6040516105e891906139c5565b60405180910390f35b3480156105fd57600080fd5b5061061860048036038101906106139190613abc565b611f01565b005b34801561062657600080fd5b50610641600480360381019061063c9190614006565b611fb5565b60405161064e91906139c5565b60405180910390f35b34801561066357600080fd5b5061066c611fd9565b60405161067991906139c5565b60405180910390f35b34801561068e57600080fd5b506106a960048036038101906106a49190613ae9565b611fdf565b005b3480156106b757600080fd5b506106c06122e9565b6040516106cd9190613f2e565b60405180910390f35b3480156106e257600080fd5b506106eb61230f565b6040516106f891906139c5565b60405180910390f35b34801561070d57600080fd5b50610716612315565b6040516107239190613f2e565b60405180910390f35b34801561073857600080fd5b50610753600480360381019061074e9190613ae9565b61233e565b6040516107629392919061408c565b60405180910390f35b34801561077757600080fd5b50610792600480360381019061078d9190614006565b612426565b6040516107a294939291906140d9565b60405180910390f35b3480156107b757600080fd5b506107c061249c565b6040516107cd9190613f2e565b60405180910390f35b3480156107e257600080fd5b506107fd60048036038101906107f89190613f49565b6124c0565b60405161080a9190613fab565b60405180910390f35b61082d6004803603810190610828919061411e565b61287d565b005b34801561083b57600080fd5b50610844612b79565b6040516108519190614171565b60405180910390f35b34801561086657600080fd5b5061086f612b8f565b60405161087c9190614171565b60405180910390f35b34801561089157600080fd5b506108ac60048036038101906108a79190613a8f565b612ba9565b6040516108b991906139c5565b60405180910390f35b3480156108ce57600080fd5b506108d7612bc1565b6040516108e49190614171565b60405180910390f35b6109076004803603810190610902919061418c565b612bd7565b005b34801561091557600080fd5b50610930600480360381019061092b9190614006565b612f26565b60405161093d91906139c5565b60405180910390f35b34801561095257600080fd5b5061096d60048036038101906109689190614006565b612f55565b60405161097a919061421d565b60405180910390f35b34801561098f57600080fd5b50610998613028565b6040516109a591906139c5565b60405180910390f35b3480156109ba57600080fd5b506109d560048036038101906109d09190613a8f565b613039565b005b3480156109e357600080fd5b506109fe60048036038101906109f99190613ae9565b61310d565b005b60006009600084815260200190815260200160002060008573ffffffffffffffffffffffffffffffffffffffff1673ffffffffffffffffffffffffffffffffffffffff16815260200190815260200160002060008363ffffffff1663ffffffff1681526020019081526020016000205490509392505050565b6000610a96846fffffffffffffffffffffffffffffffff16611fb5565b90506000610aa5868386611881565b9050826fffffffffffffffffffffffffffffffff16816fffffffffffffffffffffffffffffffff161115610b0e576040517f08c379a0000000000000000000000000000000000000000000000000000000008152600401610b0590614284565b60405180910390fd5b6009600087815260200190815260200160002060003373ffffffffffffffffffffffffffffffffffffffff1673ffffffffffffffffffffffffffffffffffffffff16815260200190815260200160002060008563ffffffff1663ffffffff16815260200190815260200160002054816fffffffffffffffffffffffffffffffff161115610bd0576040517f08c379a0000000000000000000000000000000000000000000000000000000008152600401610bc7906142f0565b60405180910390fd5b806fffffffffffffffffffffffffffffffff166009600088815260200190815260200160002060003373ffffffffffffffffffffffffffffffffffffffff1673ffffffffffffffffffffffffffffffffffffffff16815260200190815260200160002060008663ffffffff1663ffffffff1681526020019081526020016000206000828254610c5f919061433f565b925050819055506064600260009054906101000a900463ffffffff1663ffffffff1683610c8c9190614373565b610c9691906143e4565b60046000828254610ca79190614415565b9250508190555060006064600260009054906101000a900463ffffffff1663ffffffff1684610cd69190614373565b610ce091906143e4565b83610ceb919061433f565b9050610cff6007600a898489876000613335565b6000610d1c876fffffffffffffffffffffffffffffffff16612f26565b90503373ffffffffffffffffffffffffffffffffffffffff166108fc829081150290604051600060405180830381858888f19350505050158015610d64573d6000803e3d6000fd5b503373ffffffffffffffffffffffffffffffffffffffff167fd119a55f8addb8a2ff33c692b1d13c26a766c3f16aee9126a733534d47aa81c2858886604051610daf93929190614484565b60405180910390a25050505050505050565b60003411610e04576040517f08c379a0000000000000000000000000000000000000000000000000000000008152600401610dfb90614507565b60405180910390fd5b6000610e0f34611fb5565b905080600860003373ffffffffffffffffffffffffffffffffffffffff1673ffffffffffffffffffffffffffffffffffffffff1681526020019081526020016000206000828254610e609190614415565b925050819055508060036000828254610e799190614415565b925050819055503373ffffffffffffffffffffffffffffffffffffffff167f7ebb51c69763e72edc59161ffe7e6c51ab52010637c6d4e8ca433f5b43c876cb82604051610ec691906139c5565b60405180910390a250565b600080600354600860008573ffffffffffffffffffffffffffffffffffffffff1673ffffffffffffffffffffffffffffffffffffffff16815260200190815260200160002054600454610f249190614373565b610f2e91906143e4565b9050600860008473ffffffffffffffffffffffffffffffffffffffff1673ffffffffffffffffffffffffffffffffffffffff1681526020019081526020016000205481610f7b9190614415565b915050919050565b600560009054906101000a900473ffffffffffffffffffffffffffffffffffffffff1673ffffffffffffffffffffffffffffffffffffffff163373ffffffffffffffffffffffffffffffffffffffff1614611013576040517f08c379a000000000000000000000000000000000000000000000000000000000815260040161100a90614573565b60405180910390fd5b80600260006101000a81548163ffffffff021916908363ffffffff16021790555050565b60015481565b6000600154905090565b61104f613806565b600a600084815260200190815260200160002060008363ffffffff1663ffffffff16815260200190815260200160002060405180606001604052908160008201805461109a906145c2565b80601f01602080910402602001604051908101604052809291908181526020018280546110c6906145c2565b80156111135780601f106110e857610100808354040283529160200191611113565b820191906000526020600020905b8154815290600101906020018083116110f657829003601f168201915b505050505081526020016001820160009054906101000a90046fffffffffffffffffffffffffffffffff166fffffffffffffffffffffffffffffffff166fffffffffffffffffffffffffffffffff1681526020016001820160109054906101000a900460ff161515151581525050905092915050565b60008251116111cd576040517f08c379a00000000000000000000000000000000000000000000000000000000081526004016111c49061463f565b60405180910390fd5b61010082511115611213576040517f08c379a000000000000000000000000000000000000000000000000000000000815260040161120a906146ab565b60405180910390fd5b42816fffffffffffffffffffffffffffffffff1611611267576040517f08c379a000000000000000000000000000000000000000000000000000000000815260040161125e90614717565b60405180910390fd5b60006003549050600081116112b1576040517f08c379a00000000000000000000000000000000000000000000000000000000081526004016112a890614783565b60405180910390fd5b6000600180546112c19190614415565b905080600181905550600084519050600060405180608001604052808363ffffffff168152602001866fffffffffffffffffffffffffffffffff168152602001600115158152602001600015158152509050806007600085815260200190815260200160002060008201518160000160006101000a81548163ffffffff021916908363ffffffff16021790555060208201518160000160046101000a8154816fffffffffffffffffffffffffffffffff02191690836fffffffffffffffffffffffffffffffff16021790555060408201518160000160146101000a81548160ff02191690831515021790555060608201518160000160156101000a81548160ff02191690831515021790555090505060008263ffffffff16856113e491906143e4565b905060005b8363ffffffff168163ffffffff161015611502576040518060600160405280898363ffffffff1681518110611421576114206147a3565b5b60200260200101518152602001836fffffffffffffffffffffffffffffffff16815260200160001515815250600a600087815260200190815260200160002060008363ffffffff1663ffffffff16815260200190815260200160002060008201518160000190816114929190614974565b5060208201518160010160006101000a8154816fffffffffffffffffffffffffffffffff02191690836fffffffffffffffffffffffffffffffff16021790555060408201518160010160106101000a81548160ff02191690831515021790555090505080806001019150506113e9565b50837f413a0255d79470114fc16c403c7e791ea572bf8776a21aea08820e65201936f28888604051611535929190614b08565b60405180910390a250505050505050565b600681565b600960205282600052604060002060205281600052604060002060205280600052604060002060009250925050505481565b600560009054906101000a900473ffffffffffffffffffffffffffffffffffffffff1673ffffffffffffffffffffffffffffffffffffffff163373ffffffffffffffffffffffffffffffffffffffff161461160d576040517f08c379a000000000000000000000000000000000000000000000000000000000815260040161160490614b84565b60405180910390fd5b60006007600084815260200190815260200160002090508060000160159054906101000a900460ff1615611676576040517f08c379a000000000000000000000000000000000000000000000000000000000815260040161166d90614bf0565b60405180910390fd5b60005b8160000160009054906101000a900463ffffffff1663ffffffff168163ffffffff16101561170e578263ffffffff168163ffffffff1603611701576001600a600086815260200190815260200160002060008363ffffffff1663ffffffff16815260200190815260200160002060010160106101000a81548160ff0219169083151502179055505b8080600101915050611679565b5060008160000160146101000a81548160ff02191690831515021790555060018160000160156101000a81548160ff021916908315150217905550505050565b6000600560009054906101000a900473ffffffffffffffffffffffffffffffffffffffff1673ffffffffffffffffffffffffffffffffffffffff163373ffffffffffffffffffffffffffffffffffffffff16146117e0576040517f08c379a00000000000000000000000000000000000000000000000000000000081526004016117d790614c5c565b60405180910390fd5b600660009054906101000a900473ffffffffffffffffffffffffffffffffffffffff16905090565b600660009054906101000a900473ffffffffffffffffffffffffffffffffffffffff1681565b6000600354905090565b6000600860008373ffffffffffffffffffffffffffffffffffffffff1673ffffffffffffffffffffffffffffffffffffffff168152602001908152602001600020549050919050565b600080836fffffffffffffffffffffffffffffffff16116118d7576040517f08c379a00000000000000000000000000000000000000000000000000000000081526004016118ce90614cc8565b60405180910390fd5b60015484111561191c576040517f08c379a000000000000000000000000000000000000000000000000000000000815260040161191390614d34565b60405180910390fd5b60006007600086815260200190815260200160002090508060000160009054906101000a900463ffffffff1663ffffffff168363ffffffff1610611995576040517f08c379a000000000000000000000000000000000000000000000000000000000815260040161198c90614da0565b60405180910390fd5b8060000160149054906101000a900460ff166119e6576040517f08c379a00000000000000000000000000000000000000000000000000000000081526004016119dd90614e0c565b60405180910390fd5b8060000160159054906101000a900460ff1615611a38576040517f08c379a0000000000000000000000000000000000000000000000000000000008152600401611a2f90614bf0565b60405180910390fd5b6000611a55856fffffffffffffffffffffffffffffffff16611fb5565b90506000611a666007600a896135fb565b905060006064600260009054906101000a900463ffffffff1663ffffffff1684611a909190614373565b611a9a91906143e4565b83611aa5919061433f565b90506000828763ffffffff1681518110611ac257611ac16147a3565b5b6020026020010151905060005b83518163ffffffff161015611b69578763ffffffff168163ffffffff1614611b565782848263ffffffff1681518110611b0b57611b0a6147a3565b5b6020026020010151611b1d9190614e2c565b848263ffffffff1681518110611b3657611b356147a3565b5b602002602001015183611b499190614e70565b611b539190614ead565b91505b8080611b6190614ede565b915050611acf565b506000816fffffffffffffffffffffffffffffffff1611611bbf576040517f08c379a0000000000000000000000000000000000000000000000000000000008152600401611bb690614f56565b60405180910390fd5b828763ffffffff1681518110611bd857611bd76147a3565b5b60200260200101518183611bec9190614f76565b611bf69190614e2c565b955050505050509392505050565b600560009054906101000a900473ffffffffffffffffffffffffffffffffffffffff1673ffffffffffffffffffffffffffffffffffffffff163373ffffffffffffffffffffffffffffffffffffffff1614611c94576040517f08c379a0000000000000000000000000000000000000000000000000000000008152600401611c8b90615006565b60405180910390fd5b60006007600084815260200190815260200160002090508060000160149054906101000a900460ff16611cfc576040517f08c379a0000000000000000000000000000000000000000000000000000000008152600401611cf390614e0c565b60405180910390fd5b8060000160159054906101000a900460ff1615611d4e576040517f08c379a0000000000000000000000000000000000000000000000000000000008152600401611d4590614bf0565b60405180910390fd5b42826fffffffffffffffffffffffffffffffff1611611da2576040517f08c379a0000000000000000000000000000000000000000000000000000000008152600401611d9990614717565b60405180910390fd5b818160000160046101000a8154816fffffffffffffffffffffffffffffffff02191690836fffffffffffffffffffffffffffffffff160217905550505050565b600560009054906101000a900473ffffffffffffffffffffffffffffffffffffffff1673ffffffffffffffffffffffffffffffffffffffff163373ffffffffffffffffffffffffffffffffffffffff1614611e72576040517f08c379a0000000000000000000000000000000000000000000000000000000008152600401611e6990615072565b60405180910390fd5b60006007600083815260200190815260200160002090508060000160149054906101000a900460ff16611eda576040517f08c379a0000000000000000000000000000000000000000000000000000000008152600401611ed1906150de565b60405180910390fd5b60008160000160146101000a81548160ff0219169083151502179055505050565b610a0981565b600560009054906101000a900473ffffffffffffffffffffffffffffffffffffffff1673ffffffffffffffffffffffffffffffffffffffff163373ffffffffffffffffffffffffffffffffffffffff1614611f91576040517f08c379a0000000000000000000000000000000000000000000000000000000008152600401611f8890614573565b60405180910390fd5b80600660146101000a81548163ffffffff021916908363ffffffff16021790555050565b600080611fc1836137ec565b9050610a0981611fd19190614373565b915050919050565b60035481565b60006007600084815260200190815260200160002090508060000160159054906101000a900460ff16612047576040517f08c379a000000000000000000000000000000000000000000000000000000000815260040161203e9061514a565b60405180910390fd5b6000600a600085815260200190815260200160002060008463ffffffff1663ffffffff16815260200190815260200160002090508060010160109054906101000a900460ff166120cc576040517f08c379a00000000000000000000000000000000000000000000000000000000081526004016120c3906151b6565b60405180910390fd5b60006009600086815260200190815260200160002060003373ffffffffffffffffffffffffffffffffffffffff1673ffffffffffffffffffffffffffffffffffffffff16815260200190815260200160002060008563ffffffff1663ffffffff16815260200190815260200160002054905060008111612181576040517f08c379a000000000000000000000000000000000000000000000000000000000815260040161217890615222565b60405180910390fd5b60006064600260009054906101000a900463ffffffff1660646121a49190615242565b63ffffffff16836121b59190614373565b6121bf91906143e4565b905060006009600088815260200190815260200160002060003373ffffffffffffffffffffffffffffffffffffffff1673ffffffffffffffffffffffffffffffffffffffff16815260200190815260200160002060008763ffffffff1663ffffffff1681526020019081526020016000208190555060003373ffffffffffffffffffffffffffffffffffffffff168260405161225a906152ab565b60006040518083038185875af1925050503d8060008114612297576040519150601f19603f3d011682016040523d82523d6000602084013e61229c565b606091505b50509050806122e0576040517f08c379a00000000000000000000000000000000000000000000000000000000081526004016122d79061530c565b60405180910390fd5b50505050505050565b600560009054906101000a900473ffffffffffffffffffffffffffffffffffffffff1681565b60045481565b60008060009054906101000a900473ffffffffffffffffffffffffffffffffffffffff16905090565b600a6020528160005260406000206020528060005260406000206000915091505080600001805461236e906145c2565b80601f016020809104026020016040519081016040528092919081815260200182805461239a906145c2565b80156123e75780601f106123bc576101008083540402835291602001916123e7565b820191906000526020600020905b8154815290600101906020018083116123ca57829003601f168201915b5050505050908060010160009054906101000a90046fffffffffffffffffffffffffffffffff16908060010160109054906101000a900460ff16905083565b60076020528060005260406000206000915090508060000160009054906101000a900463ffffffff16908060000160049054906101000a90046fffffffffffffffffffffffffffffffff16908060000160149054906101000a900460ff16908060000160159054906101000a900460ff16905084565b60008054906101000a900473ffffffffffffffffffffffffffffffffffffffff1681565b600080836fffffffffffffffffffffffffffffffff1611612516576040517f08c379a000000000000000000000000000000000000000000000000000000000815260040161250d90615378565b60405180910390fd5b60015484111561255b576040517f08c379a000000000000000000000000000000000000000000000000000000000815260040161255290614d34565b60405180910390fd5b6000612578846fffffffffffffffffffffffffffffffff16611fb5565b905060006007600087815260200190815260200160002090508060000160009054906101000a900463ffffffff1663ffffffff168463ffffffff16106125f3576040517f08c379a00000000000000000000000000000000000000000000000000000000081526004016125ea90614da0565b60405180910390fd5b8060000160149054906101000a900460ff16612644576040517f08c379a000000000000000000000000000000000000000000000000000000000815260040161263b90614e0c565b60405180910390fd5b8060000160159054906101000a900460ff1615612696576040517f08c379a000000000000000000000000000000000000000000000000000000000815260040161268d90614bf0565b60405180910390fd5b60006126a56007600a896135fb565b905060006064600660149054906101000a900463ffffffff1663ffffffff16856126cf9190614e70565b6126d99190614ead565b6064600260009054906101000a900463ffffffff1663ffffffff16866126ff9190614e70565b6127099190614ead565b856127149190614e2c565b61271e9190614e2c565b90506000828763ffffffff168151811061273b5761273a6147a3565b5b6020026020010151905060005b83518163ffffffff1610156127e2578763ffffffff168163ffffffff16146127cf5782848263ffffffff1681518110612784576127836147a3565b5b60200260200101516127969190614f76565b848263ffffffff16815181106127af576127ae6147a3565b5b6020026020010151836127c29190614e70565b6127cc9190614ead565b91505b80806127da90614ede565b915050612748565b506000816fffffffffffffffffffffffffffffffff1611612838576040517f08c379a000000000000000000000000000000000000000000000000000000000815260040161282f90614f56565b60405180910390fd5b8082848963ffffffff1681518110612853576128526147a3565b5b60200260200101516128659190614f76565b61286f9190614e2c565b955050505050509392505050565b600061288834611fb5565b905060006128978534866124c0565b9050826fffffffffffffffffffffffffffffffff16816fffffffffffffffffffffffffffffffff161015612900576040517f08c379a00000000000000000000000000000000000000000000000000000000081526004016128f7906153e4565b60405180910390fd5b6064600260009054906101000a900463ffffffff1663ffffffff16836129269190614373565b61293091906143e4565b600460008282546129419190614415565b9250508190555060006129826064600660149054906101000a900463ffffffff1663ffffffff16856129739190614373565b61297d91906143e4565b612f26565b9050600660009054906101000a900473ffffffffffffffffffffffffffffffffffffffff1673ffffffffffffffffffffffffffffffffffffffff166108fc64e8d4a51000836129d19190614373565b9081150290604051600060405180830381858888f193505050501580156129fc573d6000803e3d6000fd5b5060006064600660149054906101000a900463ffffffff1663ffffffff1685612a259190614373565b612a2f91906143e4565b6064600260009054906101000a900463ffffffff1663ffffffff1686612a559190614373565b612a5f91906143e4565b85612a6a9190614e2c565b612a749190614e2c565b9050612a886007600a89848a886001613335565b826fffffffffffffffffffffffffffffffff166009600089815260200190815260200160002060003373ffffffffffffffffffffffffffffffffffffffff1673ffffffffffffffffffffffffffffffffffffffff16815260200190815260200160002060008863ffffffff1663ffffffff1681526020019081526020016000206000828254612b179190614415565b925050819055503373ffffffffffffffffffffffffffffffffffffffff167f285fd84012d60ebf3e087ae762bc6298ae35d7dbe0a659a56dd670656c17e656858886604051612b6893929190614484565b60405180910390a250505050505050565b600660149054906101000a900463ffffffff1681565b6000600260009054906101000a900463ffffffff16905090565b60086020528060005260406000206000915090505481565b600260009054906101000a900463ffffffff1681565b6000816fffffffffffffffffffffffffffffffff1611612c2c576040517f08c379a0000000000000000000000000000000000000000000000000000000008152600401612c2390615450565b60405180910390fd5b600354816fffffffffffffffffffffffffffffffff161115612c83576040517f08c379a0000000000000000000000000000000000000000000000000000000008152600401612c7a906154bc565b60405180910390fd5b806fffffffffffffffffffffffffffffffff16600860003373ffffffffffffffffffffffffffffffffffffffff1673ffffffffffffffffffffffffffffffffffffffff168152602001908152602001600020541015612d17576040517f08c379a0000000000000000000000000000000000000000000000000000000008152600401612d0e90615528565b60405180910390fd5b6000600354826fffffffffffffffffffffffffffffffff16600454612d3c9190614373565b612d4691906143e4565b90506000612d5333610ed1565b905060008111612d98576040517f08c379a0000000000000000000000000000000000000000000000000000000008152600401612d8f90615594565b60405180910390fd5b6000612da382612f26565b905064e8d4a5100081612db69190614373565b471015612df8576040517f08c379a0000000000000000000000000000000000000000000000000000000008152600401612def90615600565b60405180910390fd5b3373ffffffffffffffffffffffffffffffffffffffff166108fc64e8d4a5100083612e239190614373565b9081150290604051600060405180830381858888f19350505050158015612e4e573d6000803e3d6000fd5b508260046000828254612e61919061433f565b92505081905550836fffffffffffffffffffffffffffffffff16600860003373ffffffffffffffffffffffffffffffffffffffff1673ffffffffffffffffffffffffffffffffffffffff1681526020019081526020016000206000828254612ec9919061433f565b925050819055503373ffffffffffffffffffffffffffffffffffffffff167f8338d96d1ac03fc732036bb25b1469d0568ef83e329cc80df18ec1b705c6fa1d8585604051612f18929190615620565b60405180910390a250505050565b6000610a096006600a612f39919061577c565b83612f449190614373565b612f4e91906143e4565b9050919050565b612f5d61383b565b600760008381526020019081526020016000206040518060800160405290816000820160009054906101000a900463ffffffff1663ffffffff1663ffffffff1681526020016000820160049054906101000a90046fffffffffffffffffffffffffffffffff166fffffffffffffffffffffffffffffffff166fffffffffffffffffffffffffffffffff1681526020016000820160149054906101000a900460ff161515151581526020016000820160159054906101000a900460ff1615151515815250509050919050565b6006600a613036919061577c565b81565b600560009054906101000a900473ffffffffffffffffffffffffffffffffffffffff1673ffffffffffffffffffffffffffffffffffffffff163373ffffffffffffffffffffffffffffffffffffffff16146130c9576040517f08c379a00000000000000000000000000000000000000000000000000000000081526004016130c090615813565b60405180910390fd5b80600660006101000a81548173ffffffffffffffffffffffffffffffffffffffff021916908373ffffffffffffffffffffffffffffffffffffffff16021790555050565b600560009054906101000a900473ffffffffffffffffffffffffffffffffffffffff1673ffffffffffffffffffffffffffffffffffffffff163373ffffffffffffffffffffffffffffffffffffffff161461319d576040517f08c379a000000000000000000000000000000000000000000000000000000000815260040161319490614b84565b60405180910390fd5b60006007600084815260200190815260200160002090508060000160149054906101000a900460ff16613205576040517f08c379a00000000000000000000000000000000000000000000000000000000081526004016131fc90614e0c565b60405180910390fd5b8060000160159054906101000a900460ff1615613257576040517f08c379a000000000000000000000000000000000000000000000000000000000815260040161324e90614bf0565b60405180910390fd5b60005b8160000160009054906101000a900463ffffffff1663ffffffff168163ffffffff1610156132f5576000600a600086815260200190815260200160002060008363ffffffff1663ffffffff16815260200190815260200160002090508363ffffffff168263ffffffff16036132e75760018160010160106101000a81548160ff0219169083151502179055505b50808060010191505061325a565b5060008160000160146101000a81548160ff02191690831515021790555060018160000160156101000a81548160ff021916908315150217905550505050565b60008760008781526020019081526020016000206040518060800160405290816000820160009054906101000a900463ffffffff1663ffffffff1663ffffffff1681526020016000820160049054906101000a90046fffffffffffffffffffffffffffffffff166fffffffffffffffffffffffffffffffff166fffffffffffffffffffffffffffffffff1681526020016000820160149054906101000a900460ff161515151581526020016000820160159054906101000a900460ff161515151581525050905060008160000151905060005b8163ffffffff168163ffffffff1610156135ef5760008960008a815260200190815260200160002060008363ffffffff1663ffffffff168152602001908152602001600020905060008160010160009054906101000a90046fffffffffffffffffffffffffffffffff169050851561352f578763ffffffff168363ffffffff16036134e35786898261349a9190614f76565b6134a49190614e2c565b8260010160006101000a8154816fffffffffffffffffffffffffffffffff02191690836fffffffffffffffffffffffffffffffff16021790555061352a565b88816134ef9190614f76565b8260010160006101000a8154816fffffffffffffffffffffffffffffffff02191690836fffffffffffffffffffffffffffffffff1602179055505b6135e0565b8763ffffffff168363ffffffff16036135985788878261354f9190614f76565b6135599190614e2c565b8260010160006101000a8154816fffffffffffffffffffffffffffffffff02191690836fffffffffffffffffffffffffffffffff1602179055506135df565b88816135a49190614e2c565b8260010160006101000a8154816fffffffffffffffffffffffffffffffff02191690836fffffffffffffffffffffffffffffffff1602179055505b5b50508080600101915050613408565b50505050505050505050565b606060008460008481526020019081526020016000206040518060800160405290816000820160009054906101000a900463ffffffff1663ffffffff1663ffffffff1681526020016000820160049054906101000a90046fffffffffffffffffffffffffffffffff166fffffffffffffffffffffffffffffffff166fffffffffffffffffffffffffffffffff1681526020016000820160149054906101000a900460ff161515151581526020016000820160159054906101000a900460ff161515151581525050905060008160000151905060008163ffffffff1667ffffffffffffffff8111156136ef576136ee613c5a565b5b60405190808252806020026020018201604052801561371d5781602001602082028036833780820191505090505b50905060005b8263ffffffff168163ffffffff1610156137de5786600087815260200190815260200160002060008263ffffffff1663ffffffff16815260200190815260200160002060010160009054906101000a90046fffffffffffffffffffffffffffffffff16828263ffffffff168151811061379f5761379e6147a3565b5b60200260200101906fffffffffffffffffffffffffffffffff1690816fffffffffffffffffffffffffffffffff16815250508080600101915050613723565b508093505050509392505050565b600064e8d4a51000826137ff91906143e4565b9050919050565b60405180606001604052806060815260200160006fffffffffffffffffffffffffffffffff1681526020016000151581525090565b6040518060800160405280600063ffffffff16815260200160006fffffffffffffffffffffffffffffffff1681526020016000151581526020016000151581525090565b6000604051905090565b600080fd5b600080fd5b600073ffffffffffffffffffffffffffffffffffffffff82169050919050565b60006138be82613893565b9050919050565b6138ce816138b3565b81146138d957600080fd5b50565b6000813590506138eb816138c5565b92915050565b6000819050919050565b613904816138f1565b811461390f57600080fd5b50565b600081359050613921816138fb565b92915050565b600063ffffffff82169050919050565b61394081613927565b811461394b57600080fd5b50565b60008135905061395d81613937565b92915050565b60008060006060848603121561397c5761397b613889565b5b600061398a868287016138dc565b935050602061399b86828701613912565b92505060406139ac8682870161394e565b9150509250925092565b6139bf816138f1565b82525050565b60006020820190506139da60008301846139b6565b92915050565b60006fffffffffffffffffffffffffffffffff82169050919050565b613a05816139e0565b8114613a1057600080fd5b50565b600081359050613a22816139fc565b92915050565b60008060008060808587031215613a4257613a41613889565b5b6000613a5087828801613912565b9450506020613a6187828801613a13565b9350506040613a728782880161394e565b9250506060613a8387828801613a13565b91505092959194509250565b600060208284031215613aa557613aa4613889565b5b6000613ab3848285016138dc565b91505092915050565b600060208284031215613ad257613ad1613889565b5b6000613ae08482850161394e565b91505092915050565b60008060408385031215613b0057613aff613889565b5b6000613b0e85828601613912565b9250506020613b1f8582860161394e565b9150509250929050565b600081519050919050565b600082825260208201905092915050565b60005b83811015613b63578082015181840152602081019050613b48565b60008484015250505050565b6000601f19601f8301169050919050565b6000613b8b82613b29565b613b958185613b34565b9350613ba5818560208601613b45565b613bae81613b6f565b840191505092915050565b613bc2816139e0565b82525050565b60008115159050919050565b613bdd81613bc8565b82525050565b60006060830160008301518482036000860152613c008282613b80565b9150506020830151613c156020860182613bb9565b506040830151613c286040860182613bd4565b508091505092915050565b60006020820190508181036000830152613c4d8184613be3565b905092915050565b600080fd5b7f4e487b7100000000000000000000000000000000000000000000000000000000600052604160045260246000fd5b613c9282613b6f565b810181811067ffffffffffffffff82111715613cb157613cb0613c5a565b5b80604052505050565b6000613cc461387f565b9050613cd08282613c89565b919050565b600067ffffffffffffffff821115613cf057613cef613c5a565b5b602082029050602081019050919050565b600080fd5b600080fd5b600067ffffffffffffffff821115613d2657613d25613c5a565b5b613d2f82613b6f565b9050602081019050919050565b82818337600083830152505050565b6000613d5e613d5984613d0b565b613cba565b905082815260208101848484011115613d7a57613d79613d06565b5b613d85848285613d3c565b509392505050565b600082601f830112613da257613da1613c55565b5b8135613db2848260208601613d4b565b91505092915050565b6000613dce613dc984613cd5565b613cba565b90508083825260208201905060208402830185811115613df157613df0613d01565b5b835b81811015613e3857803567ffffffffffffffff811115613e1657613e15613c55565b5b808601613e238982613d8d565b85526020850194505050602081019050613df3565b5050509392505050565b600082601f830112613e5757613e56613c55565b5b8135613e67848260208601613dbb565b91505092915050565b60008060408385031215613e8757613e86613889565b5b600083013567ffffffffffffffff811115613ea557613ea461388e565b5b613eb185828601613e42565b9250506020613ec285828601613a13565b9150509250929050565b600080600060608486031215613ee557613ee4613889565b5b6000613ef386828701613912565b9350506020613f04868287016138dc565b9250506040613f158682870161394e565b9150509250925092565b613f28816138b3565b82525050565b6000602082019050613f436000830184613f1f565b92915050565b600080600060608486031215613f6257613f61613889565b5b6000613f7086828701613912565b9350506020613f8186828701613a13565b9250506040613f928682870161394e565b9150509250925092565b613fa5816139e0565b82525050565b6000602082019050613fc06000830184613f9c565b92915050565b60008060408385031215613fdd57613fdc613889565b5b6000613feb85828601613912565b9250506020613ffc85828601613a13565b9150509250929050565b60006020828403121561401c5761401b613889565b5b600061402a84828501613912565b91505092915050565b600082825260208201905092915050565b600061404f82613b29565b6140598185614033565b9350614069818560208601613b45565b61407281613b6f565b840191505092915050565b61408681613bc8565b82525050565b600060608201905081810360008301526140a68186614044565b90506140b56020830185613f9c565b6140c2604083018461407d565b949350505050565b6140d381613927565b82525050565b60006080820190506140ee60008301876140ca565b6140fb6020830186613f9c565b614108604083018561407d565b614115606083018461407d565b95945050505050565b60008060006060848603121561413757614136613889565b5b600061414586828701613912565b93505060206141568682870161394e565b925050604061416786828701613a13565b9150509250925092565b600060208201905061418660008301846140ca565b92915050565b6000602082840312156141a2576141a1613889565b5b60006141b084828501613a13565b91505092915050565b6141c281613927565b82525050565b6080820160008201516141de60008501826141b9565b5060208201516141f16020850182613bb9565b5060408201516142046040850182613bd4565b5060608201516142176060850182613bd4565b50505050565b600060808201905061423260008301846141c8565b92915050565b7f53656c6c696e67206d6f7265207468616e206578706563746564000000000000600082015250565b600061426e601a83614033565b915061427982614238565b602082019050919050565b6000602082019050818103600083015261429d81614261565b9050919050565b7f496e73756666696369656e742062616c616e6365000000000000000000000000600082015250565b60006142da601483614033565b91506142e5826142a4565b602082019050919050565b60006020820190508181036000830152614309816142cd565b9050919050565b7f4e487b7100000000000000000000000000000000000000000000000000000000600052601160045260246000fd5b600061434a826138f1565b9150614355836138f1565b925082820390508181111561436d5761436c614310565b5b92915050565b600061437e826138f1565b9150614389836138f1565b9250828202614397816138f1565b915082820484148315176143ae576143ad614310565b5b5092915050565b7f4e487b7100000000000000000000000000000000000000000000000000000000600052601260045260246000fd5b60006143ef826138f1565b91506143fa836138f1565b92508261440a576144096143b5565b5b828204905092915050565b6000614420826138f1565b915061442b836138f1565b925082820190508082111561444357614442614310565b5b92915050565b6000819050919050565b600061446e614469614464846139e0565b614449565b6138f1565b9050919050565b61447e81614453565b82525050565b60006060820190506144996000830186613f9c565b6144a660208301856140ca565b6144b36040830184614475565b949350505050565b7f41646465642066756e6473206d75737420626520706f73697469766500000000600082015250565b60006144f1601c83614033565b91506144fc826144bb565b602082019050919050565b60006020820190508181036000830152614520816144e4565b9050919050565b7f4f6e6c79206f776e65722063616e207365742066656500000000000000000000600082015250565b600061455d601683614033565b915061456882614527565b602082019050919050565b6000602082019050818103600083015261458c81614550565b9050919050565b7f4e487b7100000000000000000000000000000000000000000000000000000000600052602260045260246000fd5b600060028204905060018216806145da57607f821691505b6020821081036145ed576145ec614593565b5b50919050565b7f4f7574636f6d65732061727261792063616e6e6f7420626520656d7074790000600082015250565b6000614629601e83614033565b9150614634826145f3565b602082019050919050565b600060208201905081810360008301526146588161461c565b9050919050565b7f546f6f206d616e79206f7574636f6d6573000000000000000000000000000000600082015250565b6000614695601183614033565b91506146a08261465f565b602082019050919050565b600060208201905081810360008301526146c481614688565b9050919050565b7f446561646c696e65206d75737420626520696e20746865206675747572650000600082015250565b6000614701601e83614033565b915061470c826146cb565b602082019050919050565b60006020820190508181036000830152614730816146f4565b9050919050565b7f4e6f206c697175696469747920696e2074686520706f6f6c0000000000000000600082015250565b600061476d601883614033565b915061477882614737565b602082019050919050565b6000602082019050818103600083015261479c81614760565b9050919050565b7f4e487b7100000000000000000000000000000000000000000000000000000000600052603260045260246000fd5b60008190508160005260206000209050919050565b60006020601f8301049050919050565b600082821b905092915050565b6000600883026148347fffffffffffffffffffffffffffffffffffffffffffffffffffffffffffffffff826147f7565b61483e86836147f7565b95508019841693508086168417925050509392505050565b600061487161486c614867846138f1565b614449565b6138f1565b9050919050565b6000819050919050565b61488b83614856565b61489f61489782614878565b848454614804565b825550505050565b600090565b6148b46148a7565b6148bf818484614882565b505050565b5b818110156148e3576148d86000826148ac565b6001810190506148c5565b5050565b601f821115614928576148f9816147d2565b614902846147e7565b81016020851015614911578190505b61492561491d856147e7565b8301826148c4565b50505b505050565b600082821c905092915050565b600061494b6000198460080261492d565b1980831691505092915050565b6000614964838361493a565b9150826002028217905092915050565b61497d82613b29565b67ffffffffffffffff81111561499657614995613c5a565b5b6149a082546145c2565b6149ab8282856148e7565b600060209050601f8311600181146149de57600084156149cc578287015190505b6149d68582614958565b865550614a3e565b601f1984166149ec866147d2565b60005b82811015614a14578489015182556001820191506020850194506020810190506149ef565b86831015614a315784890151614a2d601f89168261493a565b8355505b6001600288020188555050505b505050505050565b600081519050919050565b600082825260208201905092915050565b6000819050602082019050919050565b6000614a7e8383613b80565b905092915050565b6000602082019050919050565b6000614a9e82614a46565b614aa88185614a51565b935083602082028501614aba85614a62565b8060005b85811015614af65784840389528151614ad78582614a72565b9450614ae283614a86565b925060208a01995050600181019050614abe565b50829750879550505050505092915050565b60006040820190508181036000830152614b228185614a93565b9050614b316020830184613f9c565b9392505050565b7f4f6e6c79206f776e65722063616e207365742077696e6e657200000000000000600082015250565b6000614b6e601983614033565b9150614b7982614b38565b602082019050919050565b60006020820190508181036000830152614b9d81614b61565b9050919050565b7f4d61726b657420697320616c726561647920736574746c656400000000000000600082015250565b6000614bda601983614033565b9150614be582614ba4565b602082019050919050565b60006020820190508181036000830152614c0981614bcd565b9050919050565b7f4f6e6c79206f776e65722063616e207365652074726561737572657200000000600082015250565b6000614c46601c83614033565b9150614c5182614c10565b602082019050919050565b60006020820190508181036000830152614c7581614c39565b9050919050565b7f4d75737420626520706f73697469766500000000000000000000000000000000600082015250565b6000614cb2601083614033565b9150614cbd82614c7c565b602082019050919050565b60006020820190508181036000830152614ce181614ca5565b9050919050565b7f496e76616c6964206d61726b6574204944000000000000000000000000000000600082015250565b6000614d1e601183614033565b9150614d2982614ce8565b602082019050919050565b60006020820190508181036000830152614d4d81614d11565b9050919050565b7f496e76616c6964206f7574636f6d6520696e6465780000000000000000000000600082015250565b6000614d8a601583614033565b9150614d9582614d54565b602082019050919050565b60006020820190508181036000830152614db981614d7d565b9050919050565b7f4d61726b6574206973206e6f7420616374697665000000000000000000000000600082015250565b6000614df6601483614033565b9150614e0182614dc0565b602082019050919050565b60006020820190508181036000830152614e2581614de9565b9050919050565b6000614e37826139e0565b9150614e42836139e0565b925082820390506fffffffffffffffffffffffffffffffff811115614e6a57614e69614310565b5b92915050565b6000614e7b826139e0565b9150614e86836139e0565b9250828202614e94816139e0565b9150808214614ea657614ea5614310565b5b5092915050565b6000614eb8826139e0565b9150614ec3836139e0565b925082614ed357614ed26143b5565b5b828204905092915050565b6000614ee982613927565b915063ffffffff8203614eff57614efe614310565b5b600182019050919050565b7f4d7573742068617665206e6f6e2d7a65726f2062616c616e6365730000000000600082015250565b6000614f40601b83614033565b9150614f4b82614f0a565b602082019050919050565b60006020820190508181036000830152614f6f81614f33565b9050919050565b6000614f81826139e0565b9150614f8c836139e0565b925082820190506fffffffffffffffffffffffffffffffff811115614fb457614fb3614310565b5b92915050565b7f4f6e6c79206f776e65722063616e2075706461746520646561646c696e650000600082015250565b6000614ff0601e83614033565b9150614ffb82614fba565b602082019050919050565b6000602082019050818103600083015261501f81614fe3565b9050919050565b7f4f6e6c79206f776e65722063616e2064697361626c65206d61726b6574000000600082015250565b600061505c601d83614033565b915061506782615026565b602082019050919050565b6000602082019050818103600083015261508b8161504f565b9050919050565b7f4d61726b657420697320616c72656164792064697361626c6564000000000000600082015250565b60006150c8601a83614033565b91506150d382615092565b602082019050919050565b600060208201905081810360008301526150f7816150bb565b9050919050565b7f4d61726b6574206973206e6f7420736574746c65640000000000000000000000600082015250565b6000615134601583614033565b915061513f826150fe565b602082019050919050565b6000602082019050818103600083015261516381615127565b9050919050565b7f4f7574636f6d65206973206e6f7420612077696e6e6572000000000000000000600082015250565b60006151a0601783614033565b91506151ab8261516a565b602082019050919050565b600060208201905081810360008301526151cf81615193565b9050919050565b7f4e6f2062616c616e636520746f20636c61696d00000000000000000000000000600082015250565b600061520c601383614033565b9150615217826151d6565b602082019050919050565b6000602082019050818103600083015261523b816151ff565b9050919050565b600061524d82613927565b915061525883613927565b9250828203905063ffffffff81111561527457615273614310565b5b92915050565b600081905092915050565b50565b600061529560008361527a565b91506152a082615285565b600082019050919050565b60006152b682615288565b9150819050919050565b7f5472616e73666572206661696c65640000000000000000000000000000000000600082015250565b60006152f6600f83614033565b9150615301826152c0565b602082019050919050565b60006020820190508181036000830152615325816152e9565b9050919050565b7f496e766573746d656e74206d75737420626520706f7369746976650000000000600082015250565b6000615362601b83614033565b915061536d8261532c565b602082019050919050565b6000602082019050818103600083015261539181615355565b9050919050565b7f526563656976696e67206c657373207468616e20657870656374656400000000600082015250565b60006153ce601c83614033565b91506153d982615398565b602082019050919050565b600060208201905081810360008301526153fd816153c1565b9050919050565b7f46756e6473206d75737420626520706f73697469766500000000000000000000600082015250565b600061543a601683614033565b915061544582615404565b602082019050919050565b600060208201905081810360008301526154698161542d565b9050919050565b7f43616e6e6f742072656d6f7665206d6f7265207468616e20706f6f6c00000000600082015250565b60006154a6601c83614033565b91506154b182615470565b602082019050919050565b600060208201905081810360008301526154d581615499565b9050919050565b7f496e73756666696369656e742066756e64730000000000000000000000000000600082015250565b6000615512601283614033565b915061551d826154dc565b602082019050919050565b6000602082019050818103600083015261554181615505565b9050919050565b7f52657175697265206e6f6e2d7a65726f2062616c616e63657300000000000000600082015250565b600061557e601983614033565b915061558982615548565b602082019050919050565b600060208201905081810360008301526155ad81615571565b9050919050565b7f496e73756666696369656e7420636f6e74726163742062616c616e6365000000600082015250565b60006155ea601d83614033565b91506155f5826155b4565b602082019050919050565b60006020820190508181036000830152615619816155dd565b9050919050565b60006040820190506156356000830185614475565b61564260208301846139b6565b9392505050565b60008160011c9050919050565b6000808291508390505b60018511156156a05780860481111561567c5761567b614310565b5b600185161561568b5780820291505b808102905061569985615649565b9450615660565b94509492505050565b6000826156b95760019050615775565b816156c75760009050615775565b81600181146156dd57600281146156e757615716565b6001915050615775565b60ff8411156156f9576156f8614310565b5b8360020a9150848211156157105761570f614310565b5b50615775565b5060208310610133831016604e8410600b841016171561574b5782820a90508381111561574657615745614310565b5b615775565b6157588484846001615656565b9250905081840481111561576f5761576e614310565b5b81810290505b9392505050565b6000615787826138f1565b9150615792836138f1565b92506157bf7fffffffffffffffffffffffffffffffffffffffffffffffffffffffffffffffff84846156a9565b905092915050565b7f4f6e6c79206f776e65722063616e207365742074726561737572657200000000600082015250565b60006157fd601c83614033565b9150615808826157c7565b602082019050919050565b6000602082019050818103600083015261582c816157f0565b905091905056fea2646970667358221220013d522ab92c68d1878f89f9021777814f7bc280cf9f20ee10dd37c2ec5ef4c664736f6c634300081a0033",
  "linkReferences": {},
  "deployedLinkReferences": {}
}